:020000040000fa
:080000000c20040000000000c8
:020000040000fa
:1000080004180000081800000c1800001018000060
:1000180014180000bc180000bc180000bc18000030
:10002800181800001c1800002018000024180000f0
:10003800bc180000281800002c1800003018000018
:1000480034180000381800003c1800004018000060
:100058004418000048180000bc180000bc18000034
:100068004c180000501800005418000058180000e0
:100078005c180000bc180000bc180000bc18000088
:10008800bc18000060180000641800006818000020
:100098006c18000070180000741800007818000030
:1000a8007c18000080180000bc180000bc18000074
:1000b800bc18000084180000881800008c18000084
:1000c800bc18000090180000bc180000bc18000004
:1000d800bc18000094180000bc180000bc180000f0
:1000e800bc180000981800009c180000bc180000fc
:1000f800bc180000bc180000bc180000bc180000a8
:10010800bc180000bc180000bc180000bc18000097
:10011800bc180000bc180000a0180000bc180000a3
:10012800bc180000a4180000a8180000ac180000b3
:10013800bc180000bc180000bc180000bc18000067
:10014800b0180000bc180000bc180000bc18000063
:10015800bc180000b4180000bc180000bc1800004f
:10016800bc180000bc180000bc180000bc18000037
:10017800bc180000bc180000b8180000bc1800002b
:10018800bc180000bc180000bc180000bc18000017
:10019800bc180000bc180000bc180000bc18000007
:1001a800bc180000bc180000bc180000bc180000f7
:1001b800bc180000bc180000bc180000bc180000e7
:1001c800bc180000bc180000bc180000bc180000d7
:1001d800bc180000bc180000bc180000bc180000c7
:1001e800bc180000bc180000bc180000bc180000b7
:0801f800bc180000bc18000057
:020000040000fa
:103000000c20040000000000a42d040000000000bb
:10301000a42d040000000000a42d04000000000006
:10302000a42d040000000000a42d040000000000f6
:10303000a42d040000000000a42d040000000000e6
:10304000a42d040000000000ae20040000000000d9
:10305000a42d040000000000a42d040000000000c6
:1030600006220400000000007a9004000000000026
:10307000a42d040000000000a42d040000000000a6
:10308000a42d040000000000a42d04000000000096
:103090005223040000000000a42d040000000000e2
:1030a000a42d040000000000a42d04000000000076
:1030b000a42d040000000000a42d04000000000066
:1030c000a42d040000000000a42d04000000000056
:1030d000a42d040000000000a42d04000000000046
:1030e000a42d0400000000005a220400000000008b
:1030f0004a23040000000000a42d0400000000008a
:10310000a42d040000000000a42d04000000000015
:10311000a42d040000000000a42d04000000000005
:10312000a42d040000000000a42d040000000000f5
:10313000a42d040000000000a42d040000000000e5
:103140003e22040000000000a42d04000000000046
:10315000a42d040000000000a42d040000000000c5
:10316000a42d040000000000a42d040000000000b5
:103170001661040000000000a42d040000000000ff
:020000040000fa
:103180000000fa000f2d07000080fa000000060082
:103190000e00fa006000b800008fbe0000002000a2
:1031a000010420002007980031079800c200200089
:1031b000610b2e00404a2100ba0c0700404a210052
:1031c000312507002e009000be0090003e01400017
:1031d000ae8148000200be004007980051079800e9
:1031e0006c00470013002000000178004e009000a2
:1031f000de009000840007004e489000e14f400040
:10320000030032004e019000de019000028fbe00ec
:103210002e019000be01900000102000010020004f
:10322000800f5100818f590003003a001e00be003c
:103230000080fa00000006002e009000be00900002
:103240008100d1000080d30020079800310798004a
:10325000dcff37000000fa00000a20000100200017
:1032600036030700c322a800000a20000100200046
:1032700032030700c322a900000a20000100200039
:103280002e0307000080fa00000006000000fa008c
:10329000000a20000100200028030700c322a80024
:1032a0000080fa00000006000200fa00004f7800db
:1032b0001e00fb0040128800000000000012800089
:1032c000610060000000e000fcff3200401280005e
:1032d000004f78001e4078000080fa0000000600d1
:1032e0000000fa0072012000210c2e00404a21004b
:1032f0006c0c0700404a2100e3240700d5ff0700bb
:10330000b0cab300e8ff0700e0ff07000064200038
:1033100001002000090307000080fa0000000600f9
:103320000000fa0002012000910d2e00404a210009
:103330005c0c0700404a2100d3240700c5ff0700aa
:1033400060c6b300d8ff070090c9b300d6ff0700de
:10335000ceff07000064200001002000f7020700f4
:103360000080fa00000006000e00fa003007980006
:10337000410798005207980063079800670007000c
:103380006600470010079800b2ff070020c0b30096
:10339000c5ff07001e0090000080e8001040780084
:1033a000c1ff07001e0090000000e80010407800f8
:1033b000bdff07001e00900010407800baff070014
:1033c0000000eb00000f7800070037001e007800b7
:1033d000de0090000080400010407800b2ff07003f
:1033e000404798001e0fe8009e0078006e00900095
:1033f000808f5000f5ff3900a4ff0700510007003f
:103400000080fa00000006000e00fa003007980065
:103410004107980052079800630798000000eb00ee
:10342000000f7800660047001007980089ff07002a
:1034300030c0b3009cff07001e0090000080e80031
:103440001040780098ff07001e0090000000e80080
:103450001040780094ff07001e0090001040780094
:1034600091ff07000000eb00000f78000900370013
:103470000040eb008cff0700404798001e007800da
:10348000de00900000804000ce40900001487800af
:103490001e0fe8006e0090009e007800808f5000a4
:1034a000f3ff350079ff0700260007000080fa00cf
:1034b000000006000600fa00100798002107980097
:1034c00064ff070000c9b30077ff07000040eb006e
:1034d00075ff0700004f78000040eb0072ff070007
:1034e000004f78000040eb006fff0700004f7800ae
:1034f0000040eb006cff07009e00900080487800c1
:103500000040eb0068ff0700ae00900080487800a4
:103510005eff07000080fa00000006000200fa00cb
:103520004cff070060c0b3005fff070057ff0700b4
:10353000160007000080fb00000f78000080fa00f2
:10354000000006000200fa000000eb00000f780007
:10355000050037000064200001002000770207000a
:1035600010002000000f7800080007000080fb001a
:1035700061006000004078000004e000f5ff3a00c0
:103580001e0078000080fa00000006000200fa0029
:1035900030ff070050c0b30043ff07000040eb00be
:1035a00041ff0700004f780038ff07001e407800f9
:1035b0000080fa00000006000200fa0025ff070064
:1035c00050c3b30038ff07000040eb0036ff070090
:1035d000004f78002dff07001e4078000080fa00a1
:1035e000000006000200fa001aff070030c3b30013
:1035f0002dff07000040eb002bff0700004f780075
:1036000022ff07001e4078000080fa00000006003c
:103610000400fa00004f78001147980022479800f4
:10362000beff07000bff070010c0b3001eff07001e
:103630001e4078001cff07001e4090001aff070084
:103640002e40900018ff070010ff0700bdff070085
:103650000080fa00000006000400fa00cbff07001b
:10366000004f7800d4ff070010479800ddff0700e7
:1036700020479800c0c6b300004f78002e4190004c
:103680009e4090001e407800e1ff07000080fa0095
:10369000000006000400fa00bcff0700004f78009d
:1036a000c5ff070010479800ceff0700204798008d
:1036b0000040eb00004f78002e4190009e409000ab
:1036c0001e407800d2ff07000080fa0000000600cc
:1036d0000600fa0010079800210798008fff0700e6
:1036e0000e8fe800dbfe070080cdb300eefe070082
:1036f0001e80e80010407800ebfe07001e00e80086
:1037000010407800e8fe07001e00780010407800a6
:10371000e5fe0700ddfe07008aff07000080fa00d3
:10372000000006000600fa00100798002107980024
:103730007aff07000e8fe800c6fe070000c2b30044
:10374000d9fe07001e80e80010407800d6fe070072
:103750001e00e80010407800d3fe07001e0078002d
:1037600010407800d0fe0700c8fe070075ff070074
:103770000080fa00000006000000fa0071ff070058
:10378000c4ff070065ff0700b2fe070000c6b300d4
:10379000c5fe0700bdfe07006aff07000080fa00b3
:1037a000000006000000fa0078ff07000080fb0020
:1037b0006100600000f0a7000000ea000000e900de
:1037c0004f00de000080fa00000006000200fa0050
:1037d000000a200001002000d8010700c302a80051
:1037e000000a200001002000d4010700c302a90044
:1037f000000a200001002000d0010700f0c8b3003b
:10380000004f78001e407800a7fe07000040eb0044
:10381000a5fe070010479800000a200001002000c4
:10382000c6010700c302a8001e4090000080fa00f5
:10383000000006000000fa00000a2000010020003d
:10384000be010700c302a800000a200001002000fa
:10385000ba010700c302a900000a200001002000ed
:10386000b60107000010270021002000b301070067
:1038700000c2b3008cfe070070c2b3008afe0700ce
:10388000000a200001002000ac010700c302a800cc
:103890000080fa00000006000000fa00000a200084
:1038a00001002000a5010700c302a800000a2000b3
:1038b00001002000a1010700c302a900000a2000a6
:1038c000010020009d0107000010270021002000ba
:1038d0009a01070010c2b30073fe070080c0b30056
:1038e00071fe0700000a200001002000930107007c
:1038f000c302a8000080fa00000006000000fa00e1
:10390000000a2000010020008c010700c302a8006b
:10391000000a20000100200088010700c302a9005e
:10392000000a200001002000840107000010270089
:10393000210020008101070030c2b3005afe0700b9
:1039400080c0b30058fe0700000a200001002000dc
:103950007a010700c302a8000080fa0000000600f8
:103960000800fa00881f7800000a200001002000eb
:1039700072010700c302a800000a20000100200015
:103980006e010700c302a900000a20000100200008
:103990006a01070080ceb30043fe07000e84e800f2
:1039a0000040eb0040fe0700004c78000e80e8006d
:1039b0000004e8000040eb003bfe0700004c7800ec
:1039c000640447000040eb0037fe0700004c78001d
:1039d000640047000004e8000040eb0032fe0700ee
:1039e000004c7800660447000040eb002efe070004
:1039f000004c7800660047000004e8000040eb003f
:103a000029fe0700004c78009e0090000002200074
:103a100000017800110009008200d800100798000a
:103a2000ae009000000220000001780011000900a3
:103a30008200d80020079800be00900000022000fd
:103a400000017800110009008200d80030079800ba
:103a50009e0090002e009000808040003e0090006c
:103a6000008f40001e0078000000e00001003d00d3
:103a70001e0fea00a00f20009e007800808f5000eb
:103a800002003400a00f2000000f7800000a200080
:103a90000100200029010700c302a8001e007800d1
:0c3aa0004f0478000080fa0000000600cf
:020000040000fa
:103aac000000fa00b0468000c04688000080fa0092
:103abc00000006000e00fa0010079800210798007d
:103acc003407980045079800560798006707980038
:103adc00b04680008000e800200320000001780040
:103aec00110009008280d8008000fd00000f7800d2
:103afc009e007800c0468000808f500002003a0083
:103b0c000000eb0014003700b0468000c200dd005e
:103b1c0020802100008040001e029000ae02900028
:103b2c000488be00b0468000a18c21004300dd005b
:103b3c00008040003e029000ce0290005e03900098
:103b4c00ee0390000498be000690be001e007800a4
:103b5c00b0468800100020000080fa00000006002b
:103b6c000400fa00000f780011079800c14680008d
:103b7c00b0468000808f500002003a000000eb003d
:103b8c0019003700c0468000c200dd0020802100f3
:103b9c00008040001000be001e0178000089be00ad
:103bac00c04680004300dd00a18c21000080400055
:103bbc005001be004000be001e029000009abe00e4
:103bcc000292be00c04680008000e8002003200066
:103bdc0000017800110009008280d8008000fd00ef
:103bec00c0468800100020000080fa00000006008b
:103bfc000800fa003007980050168000680060003a
:103c0c000000e000020032000000eb00430037002f
:103c1c00d402a9000001200001002000c40007000c
:103c2c006000b80010079800210798000000eb0016
:103c3c00000f780012003700d402a800000000002a
:103c4c001e009000ae0090000001400081814800f1
:103c5c00501680004300de00614060000080fb00d5
:103c6c008000eb000000710081807100100798004b
:103c7c0021079800d402a900000000001e0fe800e4
:103c8c001e007800f70f5000ebff3400d402a800a0
:103c9c000001200001002000a50007001e0190007b
:103cac00ae01900092468800a34688001e01900049
:103cbc00ae01900000002000010e200002027800ee
:103ccc000301780080017800010078000302620093
:103cdc00000061008000eb00c000dd00000020004f
:103cec000001be006120b8000001710081817100eb
:103cfc00e00f5100e08f5900030032006000b80063
:103d0c0010079800210798003e0090001e019000bb
:103d1c00ae0190000288be00100020000080fa0066
:103d2c00000006001000fa0000402200410f2000a5
:103d3c00809fbe00a0062e00801f7800404a210004
:103d4c00300a0700e6875700404a21004b22070043
:103d5c00a0ee21000000010001003700000000006f
:103d6c00e8004700640047007dff07000000e0000a
:103d7c00faff32002e009000be009000590207009e
:103d8c00cf80de00008fbe004e009000de00900061
:103d9c006e019000fe0190001e02be00849fbe00ca
:103dac00809fbe00829fbe00c0072e00801f78003f
:103dbc00404a2100130a0700ee875700404a2100b1
:103dcc002e220700e6ff37000000fa0062012000f7
:103ddc0091082e00404a2100af090700404a2100fb
:103dec0026220700c842a900d002a900c862a80078
:103dfc00d402a80000642000010020004c00070041
:103e0c00cc42a800006420000100200048000700fc
:103e1c00cc42a900006420000100200044000700ef
:103e2c000080fa00000006000000fa007201200079
:103e3c00f1092e00404a210097090700404a210051
:103e4c000e220700cc42a8000064200001002000d4
:0c3e5c00370007000080fa00000006009c
:020000040000fa
:103e68000000fa0040248000620060000000e000ca
:103e78002d003a00b144800000022000808f5000dd
:103e88000d003a0050478000e10f50001700320043
:103e980051478000b0042000808f50001500320088
:103ea8005147800060092000808f500013003600c1
:103eb800ea28ef001800370050478000e10f500053
:103ec800100032005147800020032000808f5000ee
:103ed8000e00320051478000603b2000808f500068
:103ee8000c003600ea28ef000b0037000000000045
:103ef800090037000000000007003700000000003c
:103f08000500370000000000030037000000000033
:103f18000100370000000000504780000000e80062
:103f28005047880001003700000000000080fa00b8
:043f3800000006007f
:020000040000fa
:103f3c00f03fb1000180b10006003500ee0309002e
:103f4c0000000000403fb1000180b100fbff3d00cc
:103f5c001000b000203fb0000200350000800900c6
:083f6c00000000000000060047
:020000040000fa
:1040000053650000702000003233000020320000b1
:08401000303200003000000016
:020000040000fa
:104018004f0922000e7f22000e01880000000000d8
:10402800000020000000e000020032000001200033
:10403800200288000c00070000c4280001002000ae
:1040480011000700000020000000e000020032001c
:104058000000020000000000f2230200000000003f
:104068000040da000000fe004440a90080a52000be
:104078000000e0000300320000002000a0018800da
:104088004440a800000006009101880080007800e4
:104098000000eb0015003700e280400032a0b400b9
:1040a8009101ba00e280400032a0b4009102ba0047
:1040b800e280400032a0b4000002eb00472bde0093
:1040c800f507b200602ce10004003a000059eb004b
:1040d8008301e900fdff3e00040037006128e1008c
:1040e800010032000082eb00040007001101ba0051
:1040f8000200e000e8ff3a00000006003159ba006b
:104108008301e9000c0032002159ba008301e9005b
:10411800080032000400e00003003a00e28040009a
:1041280032a0b400f5ff370011d9ba008301e900c5
:10413800faff3a008100e800e180400032a0b400b4
:104148000000060000000000000000000000000061
:10415800000000003600f800809fbe00829fbe006d
:10416800849fbe00869fbe00889fbe003400f80072
:1041780000002000a00188000400fa008460a90063
:10418800100880000000e8006102b8006033b80041
:10419800608020005001be004000be0000004200c8
:1041a80081804a0002014b0083814b00648020001b
:1041b800009abe000292be00304780008000eb00eb
:1041c8000001be0000002800010020002c070700a5
:1041d800000078000000e900100888008000200036
:1041e800404788005ac8bf000004e0007c00320045
:1041f8000e0078007ffe07000000e0006f0032002c
:104208008e28ef00404780000000e00009003a00d7
:10421800608020005001be004000be001e04be00a9
:104228000203be000002be000800be0022fe070016
:104238006500370032448000434480001e00be0001
:1042480002004000838048003044880041448800d0
:104258008ac8bf000040e8008ae8b70060802000f4
:104268003002be002003be00e08720005001be00df
:104278004000be000020e10001a8e10002b0e1001a
:1042880003b8e10050003900344480004544800000
:104298008ac8bf000080fb008000eb000001be0060
:1042a8000400be00dc070700008fbe004047800006
:1042b8008000eb000001be00000028000100200083
:1042c800ef0607000002be004fabde008603780051
:1042d800e08720005001be004000be000000420000
:1042e80081804a0002014b0083814b00e487200053
:1042f800009abe000292be00e08720003002be0095
:104308002003be00608020005001be004000be00b7
:104318000020e10001a8e10002b0e10003b8e100db
:104328001a0031007201200031bc2d00404a2100e2
:104338005a080700404a2100d12007004047800062
:104348008000eb000001be000000280001002000f2
:10435800cb0607000002be004fabde0086037800e4
:10436800608020005001be004000be0000004200f6
:1043780081804a0002014b0083814b00e4872000c2
:10438800009abe000292be0008003700e0872000b5
:104398005001be004000be001e04be000203be0065
:1043a8000002be000800be00c3fd07008628ef001b
:1043b8008828ef008a68ef00030037007044800007
:1043c8000000e80070448800714480002003200049
:1043d800808f5000020036007cfe07008e28ef0018
:1043e8000080fa003400f9004f04be004f03be00fd
:1043f8004f02be004f01be004f00be003600f9005c
:10440800004006003600f800809fbe00829fbe0074
:10441800849fbe00869fbe003400f8000000200084
:10442800a00188000000fa0084e0a9003000200004
:10443800a637070040002000a437070062002000cc
:10444800a1bd2d00404a210014080700404a210060
:104458008b2007000080fa003400f9004f03be00eb
:104468004f02be004f01be004f00be003600f900eb
:1044780000400600801f78003400f800000020008b
:10448800a00188000000fa008bc0a90023e6a8005c
:1044980027e6a80010c0b3001ce8b7000080fa00a7
:1044a8003400f9004f007800004006003600f8009c
:1044b800809fbe00829fbe00849fbe00869fbe0074
:1044c8000400fa008bc8bf000040e8008be8b70082
:1044d80090118000620060000000e00001003200de
:1044e8003222a90090118000640060000000e00002
:1044f800010032003242a90090118000680060007b
:104508000000e000540032003262a9005300370076
:10451800b0118000204798002e409000ea4f5000cc
:10452800060032002e409000ed4f5000030032008c
:104538002e4090000004e00023003a00b0408000c4
:104548000000e0001e003400c1408000b34080003d
:10455800c28e2000400620000088b90000007800c4
:1045680003004000000041008040eb000148780053
:10457800c0408000000fe8001e007800fd0f5000ca
:10458800020034000000eb00000f7800d0408000eb
:104598009e007800808f500007003a00120120002a
:1045a80001be2d00404a2100bc070700404a2100f7
:1045b80033200700020037009e007800c1408800c1
:1045c8001628ef0025003700c1408000b440800065
:1045d8002e419000c38e2000400620000088b900bc
:1045e8000000780004004000008041000248780084
:1045f800b04080000000e800b0408800b140800072
:1046080030062000808f500014003400c140800024
:10461800b04080008001e900c28e200040062000e2
:104628000088b90000007800030040000000410045
:104638008040eb00014878001201200011bf2d00d6
:10464800404a210095070700404a21000c20070036
:104658001628ef00010037000000000090118000cc
:10466800610060000000e000a9ff3a0087c0a900cf
:104678000080fa004f03be004f02be004f01be008b
:104688004f00be003600f900004006000000fa00a6
:1046980087e0a9000080fa00004006003600f80014
:1046a800809fbe00829fbe00849fbe00869fbe0082
:1046b8000000fa008200200021c02d00404a21009d
:1046c80076070700404a2100ed1f07000080fa0026
:1046d8004f03be004f02be004f01be004f00be0098
:1046e8003600f900004006001400fa00881f780020
:1046f800000f9800110f98008cc8bf000004e0005c
:1047080004003200205b240011e02300008fbe006b
:10471800030037005083240031e02300008fbe00df
:1047280000002500317c24004007980051079800bc
:104738000e0890009e0890002e0607000200200038
:1047480003a024008c0507006007980071079800f3
:104758001e01be006e009000fe0090008605070056
:104768004e019000de019000830507000240220000
:104778004397240074060700200798003107980023
:1047880018c0b30002002000c33024002e0090009f
:10479800be009000cb0507000000e00001003c00cf
:1047a8000044eb000804e000030032006000b80099
:1047b800200798003107980002002000a347240032
:1047c8002e009000be0090005f060700bf0507009e
:1047d8004f0478000080fa00000006004200fa004a
:1047e800889fbe008a9fbe0020c0b30036e8b7008d
:1047f800e3270700400020008a36070000a02600b3
:1048080081012000cbfd0700400020009a360700f8
:10481800805f210011c1b30001487800905f21003a
:1048280021c2b30001487800a05f210031c3b30062
:1048380001487800b05f210041c4b3000148780006
:10484800300020007736070000a0260081012000f4
:10485800b8fd07003000200087360700024022001c
:10486800430f200000202c001100200073260700b1
:1048780022012000a1c02d00404a2100070707009f
:10488800404a21007e1f070092002000c1c12d0070
:10489800404a210001070700404a2100781f07000d
:1048a80035fa0700c7fb070031032000810f5000cd
:1048b8000b003a001201200051c22d00404a21008d
:1048c800f6060700404a21006d1f070010c0b3001c
:1048d8008ce8b700d5fb070006fc0700ecfb0700d7
:1048e8000d240700752707000100370000000000ad
:1048f800608020003002be002003be00240f980014
:10490800350f9800460f9800570f980000a0260012
:104918008101200087fd0700608020005001be0053
:104928004000be000001be002e089000be089000a6
:104938000000510081805900600f9800710f9800a5
:104948006e089000fe089000809fbe0060c32d0096
:10495800801f7800404a2100a40a0700e687570014
:10496800404a2100461f07006e099000fe0990008a
:104978006066200001002000800f5100818f5900df
:10498800daff360010c0b300ce27070000a02600cb
:104998008101200067fd07000cfd070041fc0700ae
:1049a8006f1f07004247a90002402200430f200062
:1049b80000202c00110020006726070000102700a7
:1049c800210020005bfd0700f200200001c42d003b
:1049d800404a2100b1060700404a2100281f07006d
:1049e800f2200700001798000e1090000000e00069
:1049f80028003a0082012000f1c42d00404a21001d
:104a0800a6060700404a21001d1f0700b20020002b
:104a180071c62d00404a2100a0060700404a210027
:104a2800171f07002200200021c72d00404a21003f
:104a38009a06070011c0b300404a2100c41e0700af
:104a480025200700961f070080007800c06f21000e
:104a5800c1060700a31f0700c06f2100801f780050
:104a680040c72d00801f7800404a21005f0a0700d8
:104a7800e4875700404a2100011f0700a1c82d0004
:104a8800c06f2100ad0607000000e0000f003200f3
:104a9800100037008e129000851f780080ca2d0004
:104aa800801f7800404a2100500a0700e487570019
:104ab800404a2100f21e0700171f0700004022008d
:104ac800410f20001bfd0700bfff3700e006200054
:104ad80080448800b1cb2d00c06f210097060700e5
:104ae8000000e00002003a008007200080448800af
:104af80061cd2d00c06f2100900607000000e00086
:104b080002003a00b00720008044880011cf2d0031
:104b1800c06f2100890607000000e00002003a008b
:104b28005008200080448800db210700c9e2a90062
:104b3800cbe2a800e8f90700f7f9070021032000f5
:104b48008e804000100320000e00400057fa070036
:104b58001e709000e14f50000a003a002e7090003d
:104b6800f64f500007003a00d200200021d12d0056
:104b7800404a210049060700404a2100c01e07009c
:104b8800110037002e7090008080fb001e7090008e
:104b98000080fb00811f7800801f7800f0d12d0075
:104ba800801f7800404a2100100a0700e687570056
:104bb800404a2100b21e0700300020009935070046
:104bc800400020009735070000230700020120005d
:104bd80031d42d00404a210030060700404a210008
:104be800a71e0700501680004900de0061406000e3
:104bf8000080fb00801f780030d52d00801f7800d2
:104c0800404a2100f9090700e4875700404a21007b
:104c18009b1e070050052000303b8800a00a20009a
:104c2800303b880027a6a800303180000080a00013
:104c38000090a00030318800000120002031880059
:104c4800101020002031880010102000203188002a
:104c580010102000203188004bf907001040880010
:104c6800214088001040800021408000809fbe00c5
:104c7800f0d52d00801f7800404a2100db0907008d
:104c8800e6875700404a21007d1e07001240800039
:104c980023408000f0ff2f0001002000800f51000a
:104ca800818f59000a003e0082022000e1d62d00c3
:104cb800404a2100f9050700404a2100701e0700fc
:104cc80000002000110020001040880021408800ca
:104cd8001100200030002000c03507001c68ef00dc
:104ce80016fa07000000e0000600320092002000db
:104cf80061d92d00404a2100e8050700404a2100fb
:104d08005f1e07000000eb00000f78000000eb00ba
:104d1800100798006228ef000000eb002b1d070029
:104d280037270700f2002000f1d92d00404a210062
:104d3800da050700404a2100511e07006000b8004c
:104d48006011b800200798003107980042079800c2
:104d5800530798006000b8006011b8006007980019
:104d680071079800020f9800130f98009046800072
:104d7800a146800010179800608020005001be00f6
:104d88004000be00201798009e1090002e10900042
:104d98008080400030418000808040004041800099
:104da80000804000301798003e139000861f78005e
:104db800e0da2d00801f7800404a21008b090700a7
:104dc800e4875700404a21002d1e07003e1090003e
:104dd800c0050700961d07001c2107006000b800e9
:104de8006011b80040179800511798006217980092
:104df800731798000100370000000000941f070097
:104e08001a1d0700e0428000e20f500008003a0037
:104e18005c28ef0042002000a1db2d00404a210061
:104e28009e05070011c0b300404a2100c81d0700b5
:104e38005116800000202000008060000000e00083
:104e480001003200412907001047800021478000f7
:104e5800e00f5000e08f5800090032005116800022
:104e680000202000008060000000e00003003a00fd
:104e7800e228ef00e428ef00010037003201370094
:104e88003ac8bf000004e0004800320043fa0700b7
:104e98000000e00001003a002b013700e0418000eb
:104ea800f1418000809fbe00e0db2d00801f78006c
:104eb800404a21004d090700e6875700404a210073
:104ec800ef1d0700e2418000f3418000f0ff2f0052
:104ed800f1072000800f5100818f590026003e0005
:104ee800e0418000f1418000020420000e014100f1
:104ef8001300200042f907000ec090000080fb005c
:104f0800801f780010dd2d00801f7800404a2100a6
:104f180036090700e4875700404a2100d81d0700da
:104f28000ec09000e14f400004003200e0418000d4
:104f3800f1418000e4f907000600370092002000e4
:104f4800d1dd2d00404a210054050700404a2100c8
:104f5800cb1d0700e2418000f341800000002000e3
:104f6800110020000200400083804800e0418800d2
:104f7800f1418800f40037007201200061de2d0045
:104f8800404a210045050700404a2100bc1d070092
:104f98000e2207003a68ef000000200011002000f0
:104fa80010408800214088004e28ef00be1c0700f2
:104fb8000040eb0000779800810320008e804000bd
:104fc800400320000e004000e6fa07000000e00061
:104fd800470032002e189000be189000c2fd07004e
:104fe80010428800214288008cc8bf000004e000fd
:104ff8000f00320058fa0700cf80de0030428800e8
:105008004142880032428000434280005042800082
:1050180061428000800f5100818f590004003600e2
:10502800304280004142800050428800614288003e
:10503800124280002342800020032000010020004b
:10504800800f5100818f59000e00360012428000f7
:1050580023428000f02d220021002000800f510003
:10506800818f590007003e0010c0b30000779800f8
:105078000000eb00000f78001000200010438800ab
:10508800010037001e0fe800104380000000e00018
:105098000f00320030428000414280000041780019
:1050a8001042800021428000aa2307003642800077
:1050b8004742800014428000254280004e1890002c
:1050c800de1890006e199000fe1990009f000700ee
:1050d800800220009e007800808f50000400340079
:1050e800704280000000e00001003a006228ef00f2
:1050f800608020003004be002005be002e00900015
:10510800be0090004e019000de01900000025400a5
:1051180081825c0002035d0083835d00000028003b
:10512800310020006011b8000020e10001a8e10072
:1051380002b0e10003b8e100090036005c23070073
:10514800608020003002be002003be0024079800c3
:10515800350798004607980057079800f02507007c
:105168005116800000202000008060000000e00050
:1051780006003a00104380000000e00003003a00f7
:10518800200107000000eb00000f7800608020007d
:105198003004be002005be006e009000fe009000a6
:1051a8000e0990009e0990000002540081825c0064
:1051b80002035d0083835d000000200021002000c1
:1051c8006011b8000020e10001a8e10002b0e10090
:1051d80003b8e10008ff3600f2002000d1df2d00ff
:1051e800404a2100ad040700404a2100241d070061
:1051f80011c0b300c0e02d00d51c07001320070024
:10520800608020003002be002003be0064079800c2
:1052180075079800060f9800170f98001442800031
:1052280025428000501680004900de006140600081
:105238008083fb00501680004d00de006140600056
:105248000083fb00a2428000b342800080428000bd
:1052580091428000849fbe00871f7800861f7800d7
:10526800829fbe00809fbe00e0e02d00801f780076
:10527800404a21005d080700f2875700404a210094
:10528800ff1c07007342800010408000214080000e
:1052980012438000831f7800809fbe00821f780021
:1052a800d0e32d00801f7800404a21004f080700f6
:1052b800ea875700404a2100f11c07001e009000b1
:1052c8000000e0000b0034009e029000851f78006b
:1052d80020e62d00801f7800404a2100430807007f
:1052e800e4875700404a2100e51c07000000eb0056
:1052f80010079800511680000020200000806000f0
:105308000000e000040032006000b800904188000e
:10531800a14188000a00370090418000a141800027
:105328006011b800e50207000000e00004003a0040
:10533800a0428000b142800090418800a1418800cd
:10534800a0200700adfe3700acfe37001400fa00bd
:1053580020079800310798004207980053079800e3
:105368006407980075079800060f9800170f9800b3
:105378000e0890009e089000c801dd000200200081
:105388006e009000fe0090000000710081807100a6
:10539800008fbe00124080002340800000002000e3
:1053a80001082000800f5100818f590007003a0042
:1053b800d200200011e72d00404a210037040700e1
:1053c800404a2100ae1c070058003700805f2100ca
:1053d80010407800f14f50000f003a00905f210014
:1053e8009040780020c2b30080cf50000a003a00f5
:1053f800a05f21009040780030c3b30080cf5000f8
:1054080005003a00b05f21009040780040c4b30026
:1054180080cf50000600320032022000e1e72d0064
:10542800404a21001d040700404a2100941c07003f
:10543800704280000000e00022003a002e00900038
:10544800be0090004e019000de019000f442800002
:1054580005438000809fbe00829fbe00849fbe00df
:1054680010ea2d00801f7800404a2100df0707005e
:10547800ee875700404a2100811c070071428000d6
:10548800c05f210000804000e40047008200200047
:1054980002040700704280006800400070428800e3
:1054a80071428000c05f210000804000420020005f
:1054b800e1852000f9030700704280006400400085
:1054c8007042880071428000c05f21000080400067
:1054d800420020008e007800f00307007042800030
:1054e8006400400070428800714280000010200073
:1054f800808f50000d003a0010f80700104080001f
:105508002140800003102000c25f210094f70700ab
:1055180010408000214080000010b0000180b000e1
:1055280010408800214088004e28ef000080fa00d3
:10553800000006000000fa00889fbe008a9fbe0097
:10554800eb0307006101b900f0ff2f0001002800fc
:1055580002027800030178008001780001007800d9
:1055680003026200000061006101b800c011dd00a3
:10557800020020000200be006121b8000200700095
:1055880083807000e00f5000e08f580008003d0055
:1055980061005000e080580002002000f3ff2f0057
:1055a800020070008380700061004000e0804800c5
:1055b8000004be004fcdde008a0578006080200020
:1055c8005001be004000be000002440081824c0031
:1055d80002034d0083834d000000280021002000b5
:1055e8006011b8000000420081804a0002014b00af
:1055f80083814b004f05be004f04be000080fa00b7
:10560800000006002800fa00889fbe008a9fbe009e
:105618004201200001ec2d00404a21009f030700b1
:10562800404a2100161c07000000eb00000f78001c
:1056380010c0b30040e8b700c04180000000e0009f
:10564800080032002200200041ed2d00404a2100d0
:105658009203070011c0b300404a2100bc1b070099
:105668003b1d0700300020000333070040002000e6
:10567800013307000040eb0092240700261c0700b6
:10568800e8220700e9f90700aaff070010079800b9
:105698002107980032079800430798000000eb00a4
:1056a80050079800010037000000000060802000cb
:1056b8005001be004000be00809fbe00829fbe0019
:1056c80060ed2d00801f7800404a21004707070041
:1056d800ea875700404a2100e91b07005c1d0700c4
:1056e8001e0fe80051168000002020000080600096
:1056f8000000e00013003200e91b07003000200022
:10570800c8320700001027002100200009fa07000e
:1057180030002000d83207000010270021002000a8
:1057280004fa070030002000be32070000102700ee
:1057380021002000fff9070030002000ce320700ca
:10574800ca00370010002000304788000040fe00e3
:105758005e0090000000e800500798005e0090008e
:10576800670060000000e0001b003a006c2407009e
:10577800a0428000b142800018c0b3003233230039
:1057880033052400cd0107000000e00001003500ca
:105798000044eb000804e00008003200300020005c
:1057a800a032070000202e0041002000e1f9070088
:1057b80030002000b032070007003700400020000a
:1057c8009832070000202e0041002000d9f9070078
:1057d80040002000a8320700608020003002be0090
:1057e8002003be001e009000ae0090003e01900015
:1057f800ce0190000020e10001a8e10002b0e10024
:1058080003b8e100a8ff360010c0b3002d2407003c
:105818006ef90700a3f80700c200200081ef2d00f1
:10582800404a21001d030700404a2100941b07003d
:105838009b1b07000008200030478800608020007c
:105848003002be002003be00640798007507980068
:10585800060f9800170f9800010037000040fe005f
:105868006e049000fe0490000e0d90009e0d9000b6
:1058780000002800010020006011b8000002440068
:1058880081824c0002034d0083834d00608020001c
:105898005001be004000be000020e10001a8e10068
:1058a80002b0e10003b8e100ecff3e007df807001c
:1058b80000000000010220008e8040007c004700ac
:1058c800a8f807000000e000faff32006e08900018
:1058d800fe08900084fb07001042880021428800df
:1058e8000e22070090418000a14180006011b8009d
:1058f800720107000000e00004003a00a0428000a6
:10590800b142800090418800a141880068210700c9
:10591800608020003002be002003be00240f9800e3
:10592800350f9800460f9800570f9800020037006f
:105938000040fe00c61c07002e0c9000be0c900014
:105948004e0d9000de0d90000000280001002000a0
:105958006011b8000002440081824c0002034d002f
:1059680083834d00608020005001be004000be00cf
:105978000020e10001a8e10002b0e10003b8e10065
:10598800ebff3e00124280002342800020032000eb
:1059980001002000800f5100818f5900120036004d
:1059a8001242800023428000f02d220021002000b6
:1059b800800f5100818f59000b003e00104280007b
:1059c80021428000809fbe0040f02d00801f78009b
:1059d800404a210085060700e6875700404a210013
:1059e800271b070021003700104280002142800059
:1059f800809fbe00e0f12d00801f7800404a210002
:105a08007a060700e6875700404a21001c1b07005a
:105a180006f907000040eb00aa2307000040fe003b
:105a2800608020005001be004000be00809fbe0084
:105a3800829fbe0070f32d00801f7800404a21002d
:105a48006a060700ea875700404a21000c1b070036
:105a5800311b0700b7fe07001007980021079800c0
:105a6800320798004307980010ff370010c0b300b2
:105a7800942307000008200030478800de21070033
:105a88004068ef00f11d07004f05be004f04be003f
:105a98000080fa00000006000600fa00000f7800f7
:105aa80011079800220798001e007800210720009f
:105ab800810f50001800320021072000810f50008c
:105ac8000a003c00e20f500015003200e20f5000bf
:105ad80003003c00e10f50000b00320015003700b6
:105ae800e30f50000a00320012003700410720007f
:105af800810f50000c00320041072000810f500038
:105b08000b0035000b0037008f2b0700090037000a
:105b1800932d07000700370000000000050037003c
:105b280000000000030037000000000001003700fb
:105b38000000000010c0b3000080fa00000006005a
:105b48000040da000000fe000a00fa00e20f5000f0
:105b580020003e00e0ff8000e10f50000600320008
:105b68008023200045232000232320000423200035
:105b78000000e00004003a008022200045222000b6
:105b880023222000042220000600280014036300ba
:105b980003003a000608780000002800140a700084
:105ba80013a8a30001003a0013a0a0000200780087
:105bb800050037001388a300feff32003102fb0006
:105bc800840a78000000e9000000e000f9ff3a00cc
:105bd8000800370033002000b3bf9f00c0bf9f00fc
:105be800d1bf9f00e2bf9f006a805700971007004f
:105bf8006fb99700020078000080fa0000000600e4
:105c080003f0a200889fbe008a9fbe008c1f780008
:105c1800350107003c0133006450e1004f003200b9
:105c28006420e1005200320003826c0007003b0050
:105c38000905d0000306d000820f54000c065d0051
:105c4800020039000200320089017800030678005a
:105c58008582550004003d000003fd008103fd001e
:105c68008502ea008b854200840f720002003b0027
:105c780060001000e08018006011b8000005eb001b
:105c88007a28e1000a00390006007800c75ddd00c7
:105c9800f707b200878075002d00370082817100f8
:105ca8000a017800610560008180d1000080d3007e
:105cb8008502e900f9ff3b0006044000878448009c
:105cc80002003b0060041400e0841c000988a30063
:105cd800070032008a8171008281710061016400cd
:105ce8008904d1000884d3008b05e8001700370029
:105cf8000978a30013003a000b00e00013003400f9
:105d08008b05e9000804440089844c000a447400a7
:105d18000978a3000d003a000b00e00007003400ea
:105d28008b05e9000804440089844c0001003a000e
:105d38000b0020000978a300f7ff32000001eb00f8
:105d480002003700828171000a017800ab00070069
:105d58000cf0a70001f0a000f40037006420e10077
:105d680002003a00838f6c00f40033000801be0083
:105d78000200be00ed003700889fbe008a9fbe006b
:105d88008c1f7800d8000700df00330003866c0002
:105d98006450e1002e0032006420e100330032003c
:105da8006150e1002f0032006120e1003100320033
:105db80085855500eb07b000090020000804200085
:105dc800050037000804440089844c000a003100ab
:105dd8000603430087834b000001530081815b0069
:105de800f8ff33000203be000800a00008044400c6
:105df80089844c00f6ff3900c639dd008301730041
:105e080001003200130020008904d1000884d30067
:105e18000998a300050032000800a7000300a000ad
:105e28008904d1000884d3008b05e8008904d100d7
:105e38000884d3000001eb000281d2006f00070044
:105e480001f0a1000cf0a70001f0a000b700370096
:105e58006420e100b90032000801be000200be0063
:105e6800f7ff37006120e100b40032006000b8009d
:105e7800f3ff37000000200001f82700f0ff37008b
:105e8800839f68000100e00002003d0060001000f0
:105e9800e08018000300e00002003d0060011100ee
:105ea800e0811900dc0007004f00e00002003b0021
:105eb80060001000e08018000000060014002000b8
:105ec8000e013700f4ff2f000c0137000001be005f
:105ed800700007000470a70003f0a10003f8a300f6
:105ee80013003a006509b1001000320009003500be
:105ef8006928e100020035000100280000000500c3
:105f080000004000818048008502e900fcff3a005b
:105f180000000600f88f4200050035008100d1001e
:105f28000080d3008502e800fcff3a00000006006c
:105f38008000eb0000000500889fbe008a9fbe001d
:105f48000082700004027100048271002600320091
:105f58000004be000200be006011b8006b092000fa
:105f6800950220000182cf000a0039000541b100e6
:105f78000082cf00070039000541b1000982cf0037
:105f8800040039000541b1000882cf000100390042
:105f98000541b10005425200120032000a003b00e0
:105fa80082817100610164008100d1000080d3000a
:105fb8008984d3000884d3008b05e8000442e800f4
:105fc800f7ff3a00070037000804440089844c00b2
:105fd80000004800818048008b05e9000442e90080
:105fe800f9ff3a00050007004f05be004f04be0048
:105ff800000006006011b800cfff370081002000c4
:10600800618055000b003d000b00200061fe2f0051
:106018000100e1001d00340082817100610164000b
:106028008904d1000884d3000000e800faff3a0090
:10603800710020006100640003007000020060002d
:106048000900320061044400e0844c000988a5007e
:10605800050032008b05e8006808e10002003a00fc
:106068008904d1000884d300f20f20000258e1000f
:1060780005003d00c75ddd00f907b20089807500a5
:1060880008007800000006000bf827008b00780055
:1060980000000500c70ade00f107b200f50fb200e4
:1060a80008003200e1cf4200020032000170a00077
:1060b80024000500810f700001003200040805006b
:1060c80044000500810f700002003a00140005002a
:1060d8008502e9000000400081c04800fcff3b0049
:1060e8000170a000240005000004be00e9ff0700bd
:1060f8000003be000405be000200be00e5ff070065
:10610800844f7500000006000200be006450e100e4
:10611800050036006420e100020036000968a3008b
:1061280001003a000800be000160a0004f06780098
:106138004f05be004f04be0000000600f0ff2f0010
:10614800f1ff2700f9ff3700889fbe008a9fbe0035
:106158008c1f7800e4ff0700ebff330003866c0018
:106168006450e100240032006420e100270032007e
:106178006150e100220032006120e100210032007c
:106188008b854200eb07b1000134b800003ab80033
:106198000804420089844a00013ab8000030b80077
:1061a8008880400009014a000400330000004000d4
:1061b80081804800020149008b05e900c909dd001a
:1061c800830170000100320013002000c814de00b3
:1061d8004814dd004709de001200b200c808de00de
:1061e8000884700085ff070001f0a1000cf0a700eb
:1061f80001f0a000cdff37006120e100cfff3200a1
:106208000801be000200be00f7ff37006150e10040
:10621800fcff3a00c9ff37006022b80006022000e0
:106228000000d0008180d2000482d2008582d20092
:106238000000a0000202520083825a0003003100cd
:106248000202420083824a000000a1000603e9001e
:10625800f3ff3a0000000600889fbe008a9fbe0038
:106268008c1f78000006eb00e00f5000e08f58000c
:10627800e00f5900e08f590007003d006044b80066
:106288006055b8000000540081805c0002015d0088
:1062980083815d001c002000e00f5200e08f5a004f
:1062a800e00f5b00e08f5b0007003d006044b80032
:1062b8006055b8000402540085825c0006035d0046
:1062c80087835d000c00a200270007000c00e00097
:1062d800060032006022b8006033b80000005200a7
:1062e80081805a0002015b0083815b004f067800c1
:1062f8004f05be004f04be0000000600889fbe0088
:106308008a9fbe00841f780077ff07004f0078003f
:1063180011003300f0ff2f00838f6c0006003b0054
:10632800040565000a00a7000800370009f0a60068
:106338001000200008003700820f5400838f5c0093
:10634800030039001000200001003e00000020007a
:1063580009f0a7000000ea004f05be004f04be0088
:106368000000e00000000600889fbe008a9fbe0073
:106378008c9fbe000404b8000506b80089044600d6
:1063880060854e000606b8000a054600e0854e0006
:106398000706b8008b054600040eb80089044600bd
:1063a8000a854e00e0854d00050eb8000a05460036
:1063b8008b854e00060eb8008b0546000416b80003
:1063c8000a0546008b854e000516b8008b05460069
:1063d800041eb8008b0546000800be000a01be0076
:1063e8004f06be004f05be004f04be000000060069
:1063f800889fbe008a1f78003044780080047800a7
:1064080001c2b300814f5400fbff3200e94f540032
:10641800f9ff3200d0c2b300804f540003003a00a5
:10642800394478001ac0b300050037000045eb0076
:10643800b0c2b300804f540001003a0039447800dc
:106448006000b8000a003700a20020000300200006
:10645800ba10070002cdb300024144000281fb00dc
:106468008001eb0002004000838048003944780036
:106478000881fb000203b100e90f5100f2ff36006a
:106488000a04e0000200320060001000e0801800fa
:106498004f0578004f04be00000006008001780018
:1064a80002003700b15978000201e9000200e0005b
:1064b800fcff3a0000000600800178000200370067
:1064c800815978000201e9000200e000fcff3a006f
:1064d800000006008000eb00500489006104890078
:1064e80011c0b300800822000148780000000600af
:1064f800800822001004e00002003a00100020008a
:10650800f4ff0700d2e62400631c24005004810035
:106518006104810089100700920323000300200012
:106528000001410081814900520489006304890007
:106538000300780000f0a10000000600b0417800d8
:1065480031c1510002003a000304e000fbff3a00a9
:106558000200fb000000060000017800b14178004d
:10656800035978000304e000fcff3a00000006002d
:10657800800078003104e000feff3a000080ea0065
:1065880000804000000006000a003700b041780093
:106598000304e000030032000201e900b1cf51001a
:1065a800040032008381fb001480fb00008051004e
:1065b80000000600010278000200e000f3ff3a0044
:1065c8000000050080017800060037000201e9009c
:1065d800b142780085597800030278000504e0008c
:1065e80006003200030278000200e000f7ff3a00dc
:1065f80002003700005aeb000201e9000200e00047
:10660800fcff3a00000006000c00fa00889fbe005c
:1066180000047800f0ff2700d0bf9f008004eb0043
:1066280099bf9f0088bf9f00a8bf9f00200c200033
:10663800b0bf9f0078815700cfb097007080570097
:10664800100007000fb89700094878008fb8970026
:10665800088050004f04be000080fa0000000600c9
:10666800d0019000028151004240a900030034008b
:1066780010017800014978000208e800010078005c
:10668800000006002f02b000889fbe008a9fbe004f
:106698008c9fbe008e1f780080067800d1af9f00c7
:1066a80092b79f000007eb0044033700dfa897006c
:1066b8008100e800d1af9f0051c2b300814f500064
:1066c80003003a005fa897000006eb0011003700ae
:1066d800bd0090000000fb000168a3000700320025
:1066e8000e017800800078000d007800dcff0700bc
:1066f8000000e00005003a00300337008d00780004
:10670800500d0700e10f40002c0332000e07e8008f
:106718002a0337008000780030417800d3c2b300e4
:10672800834f51000c00320007003c00edc15100be
:10673800834f51000a003200ebc14100834f5100e2
:106748000d003a000800370003c3b300834f51001f
:1067580009003a00060037000c30a000edff3700b2
:106768000c00a000ebff37000c10a000e9ff370079
:106778000c20a000e7ff37000c18a300010032002e
:106788000c00a1000c38a300010032000c20a1006d
:106798000200fb000003b100e90f50000c003e00ae
:1067a800010178000000eb006a00b900b201fb00ab
:1067b8000303b10000804100820078009201fb00d1
:1067c8000303b100e98f5100f7ff360008003700d6
:1067d8000000eb00a3c2b300834f510004003a004d
:1067e8001fb197004200780092b79f008100e8002f
:1067f8008001eb00a3b79f00e2c2b300914f1100e4
:106808000c003a000ce0a00064415100d14f110087
:106818000300320001017800030278000900370004
:106828001fb29700c402780094b79f00a5b79f00d5
:106838008100e80001017800090037006a22b900e8
:106848000482410082007800b201fb000303b1001a
:10685800e98f5100f9ff3600a4b79f00f5ff370014
:10686800b2407800d2af9f00c3c6b30083cf5000b8
:10687800250032000f003c0032c6b30082cf500022
:10688800a000320004003c000104e000d002320005
:106898006b4151000f00370042c6b30082cf500051
:1068a800170032006541410082cf5000b3003a0022
:1068b8001300370032c7b30082cf50001f003200e8
:1068c80007003c006441510082cf500014003200a0
:1068d8000241e80082cf5000a8003a0013003700b8
:1068e80052c7b30082cf5000ab0032006341410071
:1068f80082cf5000a1003a00a1d79f000d003700b9
:10690800a1d79f00a6003700010120000c48a30072
:1069180001003200010028000c867000d0ff37000b
:10692800a1d79f000c60a0009d003700a1d79f0051
:106938000c50a0000c70a00099003700a1d79f0050
:106948009fb39700c700780097b79f00b1b79f0023
:106958000100e00002003a00c9d12100b9b79f0048
:106968003fb197008000eb00010037008100e8008c
:10697800e2c178000304e000fcff3a00c1b79f00c1
:106988002fb597000a00e00005003200cfb5970048
:106998008b0f5500020031008a007800c1b79f00b4
:1069a800cfb097000004eb00810f500001003600c3
:1069b80001045000680666002b003a0011003700f9
:1069c8003d0090000068a300070032000e01780027
:1069d800010220000d00780021ff07000000e00000
:1069e80006003a00060037008d00780000022000fb
:1069f800940c0700e10f4000010032000e07e80088
:106a08000804e9000800e000edff3a000084eb000c
:106a1800150037003d0090000068a300090032000f
:106a280008007800b000fb00000478000e01780030
:106a38000d0078000aff07000000e00008003a0097
:106a48000f003700880078003100fb00010478004f
:106a58008d0078007b0c0700e10f40000800320031
:106a68000e07e80006003700acb79f00080678005c
:106a78003fb49700cfb497005fb59700efb5970084
:106a8800090078008004e9000000e000e1ff3a0016
:106a9800b8b79f00c9b79f00dab79f00ebb79f0050
:106aa8000c0478002fb697000c00e0004302320077
:106ab800110037003d0090000068a3000700320075
:106ac8000e017800010220000d007800e4fe0700a6
:106ad8000000e00006003a00060037008d0078004c
:106ae80000022000570c0700e10f400001003200af
:106af8000e07e8000804e9000800e000edff3a008e
:106b08002e0237009fb297004504780095b79f0082
:106b1800cfc4de00614db9000802be000a03be0002
:106b28004822de00c828dd0004827000a4d79f0038
:106b38000c48a300090032000404e00007003200fa
:106b4800e14f420005003200b4d79f00c8d79f002c
:106b580022002000c2b79f0003003700b8d79f006b
:106b680013002000c3b79f0024fd2f000f0242002e
:106b78000402e800b4b79f0081ff3700a1d79f0047
:106b880025fd2f0085824700b5b79f00160020001d
:106b9800c6b79f007aff3700a1d79f000c0cb3003f
:106ba8008c007800010cb20032003a000c00e000c2
:106bb80005003d009fb097004105be004104be009e
:106bc80091b79f00080037000c48a3000b00320063
:106bd8001fb297004401be0094b79f000204be0094
:106be8004fcdde008a057800b8b79f00c9b79f006f
:106bf800dab79f00ebb79f00090037009fb49700f2
:106c0800c900780099b79f00610ab900612bb900e3
:106c1800b4b79f00c5b79f00d6b79f00e7b79f00de
:106c28003fb49700cfb497005fb59700efb59700d2
:106c3800e00f5400e08f5c00e00f5d00e08f5d0026
:106c480022003d003c00b3006022b8006033b80069
:106c58000804520089845a000a055b008b855b0092
:106c6800b8b79f00c9b79f00dab79f00ebb79f007e
:106c7800160037000c00e00004003d001fb4970028
:106c88004803be004802be00050037000c48a300b8
:106c9800050032001fb497004802be006033b800f8
:106ca80098b79f00050037009fb49700c900780087
:106cb80099b79f00610ab8006033b800b4b79f0065
:106cc800c5b79f00d6b79f00e7b79f00afb2970040
:106cd8000500e0000d003a0016002000a6b79f004e
:106ce8003fb49700cfb497005fb59700efb5970012
:106cf800e00f5400e08f5c00e00f5d00e08f5d0066
:106d0800020032008004eb00a9b79f000c05780050
:106d18000a0cb2008ab79f0001042000810f5500b9
:106d28003400320003003c000a00e0000800320092
:106d380048003700010820008fb59700818f550063
:106d480014003200010c2000818f550041003a00e8
:106d5800c2d2210011c0b3003202be003203be000d
:106d68003fb49700cfb497005fb59700efb5970091
:106d78000440e10005c8e10006d0e10007d8e100c1
:106d8800330039008140e800f4cf5000f2ff3a00a8
:106d98002f00370011c0b3000401200005002000b7
:106da8006033b8003fb49700cfb497005fb5970041
:106db800efb597000440e10005c8e10006d0e10006
:106dc80007d8e10022003900490020000402d00061
:106dd8008582d2000683d2008783d2008904e90025
:106de800faff3a008140e800f0cf5000edff3a008a
:106df8001700370011c0b3008400200005002000f0
:106e08006033b8003fb49700cfb497005fb59700e0
:106e1800efb597000440e10005c8e10006d0e100a5
:106e280007d8e1000a003900390020000402d00028
:106e38008582d2000683d2008783d2008904e900c4
:106e4800faff3a008140e800f5cf5000edff3a0024
:106e5800a1d79f002fd597008a00fb00afb59700f8
:106e68008b8f500002003d00abd79f000400370015
:106e78002fb19700810f510001003d00a1b79f007d
:106e88000000e00003003200e30066000100320069
:106e98000000e9000ce8a30006003200afb197003b
:106ea800830f500002003400030050000100370037
:106eb8000000eb002fd297008400fb008002eb005b
:106ec800f5af9f00810f5000020034008100500090
:106ed800f1af9f000c28a3003c003200610166005e
:106ee8000c18a3000f0032003d0090000068a300ba
:106ef80006003200b10220000200e000010032006a
:106f08008180e8000e0178000d003700b0022000f3
:106f18000200e000010032000080e8008d007800e7
:106f28000e0037000200e000100032003d00900023
:106f38000068a300070032000e017800010220005b
:106f48000d007800c6fd07000000e00006003a00ca
:106f5800060037008d00780000022000390b07007a
:106f6800e10f4000010032000e07e8007fab9700f8
:106f78000600e00052003200060478003d00900050
:106f88000068a300070032000e017800010320000a
:106f98000d007800b2fd07000000e00006003a008e
:106fa800060037008d00780000032000250b07003d
:106fb800e10f4000010032000e07e8000804e90074
:106fc800eeff3a00f8af9f003d003700ffab970097
:106fd8000700e000160032000c38a30014003a0045
:106fe800070478003d0090000068a3000700320005
:106ff8000e017800010220000d00780098fd0700be
:107008000000e00006003a00060037008d00780016
:10701800000220000b0b0700e10f400001003200c6
:107028000e07e8000804e900eeff3a00f8af9f00f9
:10703800610166000c18a3000f0032003d009000ab
:107048000068a30006003200b10220000200e00040
:10705800010032008180e8000e0178000d00370041
:10706800b00220000200e000010032000080e800c9
:107078008d0078000e0037000200e000100032009a
:107088003d0090000068a300070032000e01780060
:10709800010220000d00780071fd07000000e000eb
:1070a80006003a00060037008d0078000002200034
:1070b800e40a0700e10f4000010032000e07e80073
:1070c8002fb497000800e900c204dd00c9af9f0093
:1070d8006301b90002057800baaf9f004300dd00e4
:1070e80041d2210081004000e1af9f0098003700a5
:1070f800afb597008b05e900abb79f0000042000ef
:107108008fb09700808f50006800320003003c0069
:107118000100e0000800320073003700000820007a
:107128000fb19700800f51004c003200000c200076
:10713800800f51006c003a000c00e0001e003d007a
:10714800efa997003304be002305be000802be0065
:107158000a03be003fb09700cfb097005fb1970019
:10716800efb19700140e0700a0d79f000000fb00a6
:10717800cf80de006109b9000802be000a03be0024
:1071880035fc07003fb29700cfb297005fb3970076
:10719800efb397000002520081825a0002035b009d
:1071a80083835b00b4b79f00c5b79f00d6b79f0025
:1071b800e7b79f00250037000c48a3001a003200eb
:1071c8003fb29700cfb297006fab97003604be006e
:1071d8002605be000801be000400be00f4b79f00eb
:1071e80085bf9f000cfc0700a0d79f000000fb0094
:1071f800cf80de000801be00500d07007fb2970067
:107208008fba97000002520081825a000404be001f
:107218006055b800b8b79f00c9b79f00dab79f009c
:10722800ebb79f0009003700efac97001901780011
:107238003fb59700110009000285d800a200200080
:10724800110009000280d800a1d79f00afd5970090
:107258000b43b000abd79f0023003700b0d021000c
:107268000c58a30001003200a0cf21003fb29700c4
:10727800cfb297005fb39700efb39700cfa89700fe
:107288008100e900050033008703d1000683d3009d
:107298008582d3000482d300f9ff37006f026200b1
:1072a80060427a00a4d79f000f0037003fb09700d4
:1072b800cfb097005fb19700efb197003faa970052
:1072c8000402e900050033008301d1000281d300e4
:1072d8008180d3000080d300f9ff37006740600049
:1072e8000043b000a0d79f00bd009000afd2970028
:1072f8000500fb000168a300070032000e017800ba
:10730800800078000d007800d5fc07000000e00040
:1073180005003a00050037008d007800490a07008b
:10732800e10f4000010032000e07e8004fab970064
:1073380064035300c6af9f00bfab9700e3835300bd
:10734800b7af9f006fac970068045400e8af9f0088
:10735800afb497000900e00065ff3a000c38a300bd
:10736800160032007fad97000a00e00013003400d9
:107378000a0478003d0090000068a300070032006e
:107388000e017800010220000d007800b4fc07000f
:107398000000e00006003a00060037008d00780083
:1073a80000022000270a0700e10f40000100320018
:1073b8000e07e8000804e900eeff3a00dfad970089
:1073c8001b407800a0d79f000004e000b7fc3a00fb
:1073d8000e0078004f0778004f06be004f05be002c
:1073e8004f04be002f02b100000006000c00fa0096
:1073f800889fbe0000047800f0ff2700d0bf9f00e0
:107408008004eb0099bf9f0088bf9f00a8bf9f0022
:10741800200c2000b0bf9f0078815700cfb09700a4
:1074280070805700cf0007000fb897000948780010
:107438008fb89700088050004f04be000080fa0003
:10744800000006000800fa00889fbe008a9fbe0060
:107458000084fb00d1c6b300814f500034003600d1
:107468004b062000110009000b84d8008105780024
:10747800720040004300dd00a9b0210000804400f4
:107488006022b8000600200007fe23005001be005d
:107498004000be00320c07000002be000203be001e
:1074a80084bf9f0095bf9f00a6bf9f00b7bf9f00e6
:1074b800aa002000110009008a85d80080057800fc
:1074c800e9854500c35ddd008b8544003b02be00b5
:1074d8002b03be000fb897009fb897002fb99700ed
:1074e800bfb997001e0c07000002be000203be00d1
:1074f80084bf9f0095bf9f00a6bf9f00b7bf9f0096
:10750800110009000a84d800010478004344dd0012
:10751800888444003902be002903be000fb89700d2
:107528009fb897002fb99700bfb997001d00370083
:10753800ea4f500013003600aa002000110009008d
:107548000a84d80001057800690440004344dd003e
:10755800a9b02100088444006022b8000600200079
:1075680007fe23003800be002801be00fc0b070000
:107578004355dd008a8444003902be002903be0059
:10758800080037004344dd00a0b021000804400093
:107598006022b8000600200007fe23003800be0065
:1075a8002801be00ee0b07004f05be004f04be00c9
:1075b8000080fa00000006000800fa00889fbe005c
:1075c8008a9fbe00d1c6b3000004e00023003d003e
:1075d8000040ea000004fb00814f50000a0034001c
:1075e80042062000110009000204d800a90020006a
:1075f800110009008900d800e9004000c308dd0037
:10760800aab0210021003700ea4f500010003400d2
:10761800a2002000110009000204d800010178002e
:10762800690040004300dd00a1b021000080400057
:107638004311dd00828040003102be002103be00fc
:107648005001be004000be00c50b070038003700df
:107658004344dd00a0b02100320037000004fb00e5
:10766800814f500023003400420620001100090019
:107678000204d800a9002000110009008900d800e0
:10768800e9004000c308dd00aaa5210081004500eb
:107698003102be002103be008b0920008a85450007
:1076a8003b00be002b01be00ad0b07000002be0070
:1076b8000203be0084bf9f0095bf9f00a6bf9f0026
:1076c800b7bf9f00110009000904d8000104780021
:1076d8004344dd00080545003a02be002a03be0007
:1076e8000fb897009fb897002fb99700bfb99700b8
:1076f800d5ff3700ea4f500008003400a2002000f0
:10770800110009000204d800010178006900400056
:107718004300dd00a1a52100c4ff37004344dd007c
:10772800a0a52100080440003800be002801be00c2
:107738004f05be004f04be000080fa00000006009e
:10774800d0019000028151004240a900030034009a
:1077580010017800014978000208e800010078006b
:10776800000006002f04b000889fbe008a9fbe005c
:107778008c9fbe008e1f780000067800e19f9f0056
:1077880082af9f006000b8006011b80080a79f001a
:1077980091a79f00a2a79f00b3a79f008006eb00b8
:1077a800a3053700ef9897008100e800e19f9f004c
:1077b80051c2b300814f500003003a006f999700ff
:1077c8000007eb0011003700bc0090000000fb0030
:1077d8000168a300070032000d01780080007800de
:1077e8000c007800d6ff07000000e00005003a0012
:1077f8008f0537008c00780012090700e10f400060
:107808008b0532008d06e8008905370002007800f4
:10781800b2407800d3c2b30083cf50000c003200ce
:1078280007003c00edc1510083cf50000a00320030
:10783800ebc1410083cf50000d003a00080037002b
:1078480003c3b30083cf500009003a000600370095
:107858000e30a000edff37000e00a000ebff370050
:107868000e10a000e9ff37000e20a000e7ff370048
:107878000e18a300010032000e00a1000e38a3006c
:10788800010032000e20a1000101fb000203b1003b
:10789800e90f51000e003e00800078000001eb0067
:1078a80092b79f006a11b9003100fb000003b100d4
:1078b80002014000010078009101fb000303b100c0
:1078c800e98f5100f7ff360092b79f000a00370092
:1078d8008001eb0093b79f00a2c2b30082cf500093
:1078e80005003a000faa9700c402780084af9f00f1
:1078f80095b79f000000e800e1c2b30090cf1000e8
:1079080017003a000ee0a000e4c05000d0cf1000ed
:1079180003003200800078008001eb000900370086
:107928008fab9700c700780087af9f00d1af9f004b
:107938000000e800000178000d0037006a1ab9005d
:1079480084014100010078003101fb000203b1000d
:10795800e90f5100f9ff3600d3af9f00f5ff37005c
:107968000ec0a0000001eb00d2af9f00f1ff37006e
:10797800820178003340780003017800c1c6b30063
:10798800814f50002b003200e39f9f0014003c0001
:10799800e8c05000814f50002400320009003c002c
:1079a800ecc05000814f50002e003200ebc0400068
:1079b800814f5000980032000004e0002105320099
:1079c800b400370061c6b300814f50001f00320079
:1079d800e3c04000814f5000ae003a00130037006a
:1079e80031c7b300814f50002200320007003c002d
:1079f800e4c05000814f5000170032008140e80079
:107a0800814f5000a3003a001600370051c7b30059
:107a1800814f5000a4003200e3c04000814f500065
:107a28009c003a00a0779f0010003700a0779f00c5
:107a38009f003700000120000e48a300010032001b
:107a4800000028000e077000c9ff3700a0779f00cc
:107a58000ea0a00096003700a0779f000e60a0003f
:107a680093003700a0779f000e50a0000e70a00072
:107a78008f003700a0779f008fa9970043007800f8
:107a880083af9f00000478000000e00001003a0086
:107a980068de2100880078000000eb000100370054
:107aa8000000e800614178000204e000fcff3a00b1
:107ab800800478005faa97000400e0000300320009
:107ac800890f520001003100840478008001eb0026
:107ad8009fb29700898f52000100360089815200b9
:107ae80068036700d6af9f002c003a0003077800b0
:107af800110037003c0090000068a3000700320026
:107b08000d017800010220000c0078000cff07002e
:107b18000000e00006003a00060037008c007800fc
:107b28000002200047080700e10f40000100320072
:107b38008d06e8000e07e9000e00e000edff3a00b0
:107b48008081eb00150037003c0090000068a3001e
:107b58000900320008007800b000fb00000478003b
:107b68000d0178000c007800f5fe07000000e00029
:107b780008003a000a003700880078003100fb004e
:107b8800010478008c0078002e080700e10f4000ff
:107b9800030032008d06e800010037000307780073
:107ba800090078008004e9000000e000e6ff3a00e0
:107bb8008e017800dfab97000700e0009c043200dc
:107bc80003077800110037003c0090000068a3000c
:107bd800070032000d017800010220000c00780037
:107be800d7fe07000000e00006003a000600370054
:107bf8008c0078000002200012080700e10f400006
:107c0800010032008d06e8000e07e9000e00e000d2
:107c1800edff3a00860437008fa8970041007800ee
:107c280081af9f006102b900612bb90094af9f003a
:107c3800a5af9f00b6af9f00c7af9f004822de00e8
:107c48004828dd0004027000a4779f000e48a300b6
:107c5800090032000404e00007003200e14f42004e
:107c680005003200b4779f00afd09700c1779f001e
:107c780029002000030037002fd19700b2779f001a
:107c88001900200023fb2f008f8141000304e80026
:107c980088ff3700a0779f0028fb2f000f044400bf
:107ca8001900200083ff3700a0779f000e0cb30057
:107cb8000070200000006700640232000ec8a300b4
:107cc8000200320064002000d4af9f000e48a300d9
:107cd800090032000faa97004401be004400be000c
:107ce80084af9f0090af9f00a1af9f00b2af9f00ed
:107cf800c3af9f000a0037008faa97004500be0057
:107d080085af9f007e0907000002be000203be0087
:107d180094af9f00a5af9f00b6af9f00c7af9f006d
:107d28006022b8006033b8001fa89700afa897007a
:107d38003fa99700cfa99700c30807000000e000fb
:107d48000a003d001fa89700afa897003fa9970019
:107d5800cfa9970003f0a20090af9f00a1af9f00aa
:107d6800b2af9f00c3af9f003e00b3000000eb001e
:107d7800b09f9f006022b8006033b8001fa897002a
:107d8800afa897003fa99700cfa99700120907004d
:107d98000000e0003400320064fb2f000f024200b4
:107da8001fa89700afa897003fa99700cfa99700f1
:107db800ce0907003f9897000000e9006302b90068
:107dc800a2002000110009000202d800b09f9f0005
:107dd8000000e00002003d000000e900b09f9f00a5
:107de8003f9c97000840ea00f3fd07001faa970090
:107df800afaa97003fab9700cfab9700d809070011
:107e08000002be000203be0084a79f0095a79f0042
:107e1800a6a79f00b7a79f006022b8000600200011
:107e280007ff2300880807000000e00002003d006b
:107e38000804e9000b0037006022b80006002000a3
:107e4800470224000fa097009fa097002fa197003a
:107e5800bfa19700810807000000e000020035007c
:107e68000804e800b89f9f00dfaa9700f88f520027
:107e78000f003c000540780072fd07000002be00bc
:107e88000203be001fa89700afa897003fa997005c
:107e9800cfa99700ef0707000002be000203be004b
:107ea80094af9f00a5af9f00b6af9f00c7af9f00dc
:107eb8003f9c9700e90f540015003c006022b80071
:107ec8006033b8001fa89700afa897003fa9970094
:107ed800cfa99700c00807000000e0003200320078
:107ee8001fa89700afa897003fa99700cfa99700b0
:107ef80022090700e00f5000e08f5800e00f5900fa
:107f0800e08f590028003a00e10f540026003400a1
:107f18000400200005002e00b6e02200170124000e
:107f28000fa097009fa097002fa19700bfa19700cf
:107f3800450807000000e00002003d0073045400fb
:107f48000100370072045400b89f9f006f709700bb
:107f580099fd07000002be000203be0084a79f002f
:107f680095a79f00a6a79f00b7a79f001fa89700e7
:107f7800afa897003fa99700cfa997003c08070032
:107f8800fe0807000205be000004be006000b8003d
:107f98006011b80090af9f00a1af9f00b2af9f00e3
:107fa800c3af9f00170037001fa89700afa897001e
:107fb8003fa99700cfa99700f00807000205be0067
:107fc8000004be001e0907000002be000203be0036
:107fd8001fa89700afa897003fa99700cfa99700bf
:107fe800d40907000002be000203be0094af9f0040
:107ff800a5af9f00b6af9f00c7af9f000000eb0082
:10800800b09f9f0065df210014c0b300080037004f
:108018003500be003501be000040e10001c8e100a6
:1080280002d0e10003d8e100030039000442e8006f
:10803800f44f5200f6ff3a00a4779f003f9897004c
:108048009fb29700008052005fab970086005000f7
:108058000400fb000080500090b79f000600e0007d
:10806800020032000000e90090b79f00630067003b
:10807800030032009fb397008703e90097b79f007a
:108088000e28a30050003200610167000e18a300fb
:108098000f0032003c0090000068a3000600320088
:1080a800b10220000200e000010032008180e800f7
:1080b8000d0178000d003700b00220000200e0003a
:1080c800010032000080e8008c0078000e003700c4
:1080d8000200e000330032003c0090000068a3007a
:1080e800070032000d017800010220000c00780022
:1080f80093fd07000000e00006003a002900370061
:108108008c00780000022000ce060700e10f400036
:10811800240032008d06e800220037003c00900061
:108128000068a3000f0032000d0178000103200051
:108138000c007800f4b79f0085bf9f00d6b79f005a
:10814800e7b79f007efd07007fb297008fba9700c0
:108158005fb39700efb397000000e0000e003a000d
:108168000e0037008c00780000032000f4b79f0051
:1081780085bf9f00d6b79f00e7b79f00b1060700ed
:108188007fb297008fba97005fb39700efb397005d
:10819800e10f4000010032008d06e8008904e90083
:1081a800030037000802be000a03be009fb4970010
:1081b8000900e000d9ff3c0099b79f000605be0002
:1081c8000404be00670037000e38a3001e003a0002
:1081d800c8a79f00d9a79f00eaa79f00fba79f00f9
:1081e8009fb49700110037003c0090000068a3007e
:1081f800070032000d017800010220000c00780011
:108208004ffd07000000e00006003a0006003700b6
:108218008c007800000220008a060700e10f400069
:10822800010032008d06e8008904e9000900e00039
:10823800edff3c0099b79f004fa49700dfa497007b
:108248006fa59700ffa59700610167000e18a300ae
:108258000e0032003c0090000068a30005003200c8
:10826800b10220000200e000250032008180e80011
:1082780023003700b00220000200e00001003200b5
:108288000080e8008c007800320037000200e0002f
:10829800340032003c0090000068a3000300320064
:1082a8000d01780001022000160037008c007800cc
:1082b80000022000270037003c0190008100fb00ed
:1082c800e0de21000268a30013003200c308dd00cd
:1082d800010040003002be002003be000800be00be
:1082e8000a01be00b4090700a40020000500200010
:1082f8006033b800b7090700010320008080400000
:108308000d0178000c0078000dfd07000000e0006a
:1083180013003a0013003700c308dd0001004000d5
:108328003002be002003be000800be000a01be00e5
:10833800a1090700a4002000050020006033b80050
:10834800a409070002032000000141008c00780006
:10835800020078003b060700e10f400001003200f0
:108368008d06e8002f7097008040e900a1779f00f4
:108378000004e000d0ff3a00130037003c009000f2
:108388000068a300070032000d01780001032000f7
:108398000c007800eafc07000000e00006003a0044
:1083a800060037008c00780000032000250607002f
:1083b800e10f4000010032008d06e8003f98970069
:1083c8000000e900b09f9f003f9897000000e00080
:1083d800eaff3c00dfa89700f28f5000030034004a
:1083e80020c1b300a0779f00020037002fd9970063
:1083f800a2779f002f7097008000fb00dfa99700ed
:1084080081805100d1af9f000004e00010003200cd
:108418003c0090000068a300070032000d017800be
:10842800e10220000c007800c5fc07000000e00015
:1084380006003a00060037008c007800e0022000b1
:1084480000060700e10f4000010032008d06e80039
:108458002f70970058fc07000002be000203be0000
:108468001fa89700afa897003fa99700cfa997002a
:108478003b080700c1070700330037003c019000a4
:10848800e1de21000000fb000268a30013003200b7
:108498004300dd00008040003002be002003be0023
:1084a8000800be000a01be0043090700a40020001e
:1084b800050020006033b800460907000003b0003b
:1084c8000d017800800078000c0078009cfc070003
:1084d8000000e00011003a00110037004300dd0001
:1084e800008040003002be002003be000800be002d
:1084f8000a01be0030090700a40020000500200082
:108508006033b800330907000003b0008c0078001e
:10851800cc050700e10f4000010032008d06e8009d
:108528002f7297000400fb004300dd00e1de21000c
:10853800008040003002be002003be000800be00dc
:108548000a01be00230907000205be000004be00a0
:10855800af7097000140e900a0779f000104e00098
:10856800c6ff3a0098af9f00a9af9f00baaf9f001f
:10857800cbaf9f00dfac9700110037003c009000a4
:108588000068a300070032000d01780001032000f5
:108598000c0078006afc07000000e00006003a00c2
:1085a800060037008c00780000032000a5050700ae
:1085b800e10f4000010032008d06e8008904e9005f
:1085c8000900e000edff3a001fac9700afac970040
:1085d8003fad9700cfad97000e38a30014023200cc
:1085e8009fb097000100e00011023400d8af9f004f
:1085f800e9af9f00faaf9f008bb79f008104780016
:108608003c0090000068a300070032000d017800cc
:10861800010220000c00780049fc07000000e0007f
:1086280006003a00060037008c007800000220009f
:1086380084050700e10f4000010032008d06e800c4
:108648008904e900eeff3a00f90137000e007800ce
:10865800000cb20021003a000e00e00005003d00c9
:108668008faa97004505be004504be0085af9f0050
:108678000d0037000e48a300060032000fab97002c
:108688004604be0086af9f004fcdde008a05780005
:10869800050037008fab97004704780087af9f002d
:1086a800cfc4de00614db900e00f5400e08f5c00dc
:1086b800e00f5d00e08f5d001b003d003e00b30051
:1086c8006000b8006011b8000804500089845800a0
:1086d8000a0559008b855900130037000e00e00089
:1086e80005003d000fa897004005be004004be00ed
:1086f80080af9f000c0037000e48a3000500320031
:108708008fa897004104be006055b80081af9f0054
:10871800050037000fa997004204780082af9f0038
:108728008004eb006055b800dfa997000300e00063
:1087380009003a0014002000d4af9f00e00f540055
:10874800e08f5c00e00f5d00e08f5d00020032000a
:108758008002eb00d5af9f000e037800060cb20034
:1087680096af9f0000042000800f53002c003200b9
:1087780003003c000600e000080032003c0037001f
:10878800000820009fab9700808f53001000320034
:10879800000c2000808f530035003a0065df21006f
:1087a80014c0b3003500be003501be000040e10032
:1087b80001c8e10002d0e10003d8e1002b00390034
:1087c8000442e800f44f5200f6ff3a002700370051
:1087d80014c0b30000012000010020006011b8009f
:1087e8000040e10001c8e10002d0e10003d8e10047
:1087f8001e003900450020000000d0008180d20012
:108808000281d2008381d2008502e900faff3a0092
:108818000442e800f04f5200f1ff3a00130037001d
:1088280014c0b30080002000010020006011b800cf
:108838000040e10001c8e10002d0e10003d8e100f6
:108848000a003900360020000000d0008180d200e4
:108858000281d2008381d2000603e900faff3a00c0
:108868000442e800f54f5200f1ff3a00a4779f0058
:10887800af7397000700fb00dfa89700810f500037
:1088880002003d00a1779f00040037005fa9970010
:10889800800f510001003d00d0af9f009fb19700ad
:1088a8000300e000040032006300670002003200a9
:1088b8008301e90093b79f000ee8a3000900320086
:1088c8001fb29700dfaa9700850f520003003400fb
:1088d8000502520094b79f00020037000003eb0026
:1088e80096b79f00af7397000700fb008000eb006e
:1088f800c1a79f001fb19700800f510002003400ec
:1089080000005100c0a79f000e28a30044003200b9
:10891800610167000e18a3000f0032003c009000b0
