:020000040000fa
:080000000c20040000000000c8
:020000040000fa
:1000080004180000081800000c1800001018000060
:1000180014180000bc180000bc180000bc18000030
:10002800181800001c1800002018000024180000f0
:10003800bc180000281800002c1800003018000018
:1000480034180000381800003c1800004018000060
:100058004418000048180000bc180000bc18000034
:100068004c180000501800005418000058180000e0
:100078005c180000bc180000bc180000bc18000088
:10008800bc18000060180000641800006818000020
:100098006c18000070180000741800007818000030
:1000a8007c18000080180000bc180000bc18000074
:1000b800bc18000084180000881800008c18000084
:1000c800bc18000090180000bc180000bc18000004
:1000d800bc18000094180000bc180000bc180000f0
:1000e800bc180000981800009c180000bc180000fc
:1000f800bc180000bc180000bc180000bc180000a8
:10010800bc180000bc180000bc180000bc18000097
:10011800bc180000bc180000a0180000bc180000a3
:10012800bc180000a4180000a8180000ac180000b3
:10013800bc180000bc180000bc180000bc18000067
:10014800b0180000bc180000bc180000bc18000063
:10015800bc180000b4180000bc180000bc1800004f
:10016800bc180000bc180000bc180000bc18000037
:10017800bc180000bc180000b8180000bc1800002b
:10018800bc180000bc180000bc180000bc18000017
:10019800bc180000bc180000bc180000bc18000007
:1001a800bc180000bc180000bc180000bc180000f7
:1001b800bc180000bc180000bc180000bc180000e7
:1001c800bc180000bc180000bc180000bc180000d7
:1001d800bc180000bc180000bc180000bc180000c7
:1001e800bc180000bc180000bc180000bc180000b7
:0801f800bc180000bc18000057
:020000040000fa
:04020800dc200000f6
:020000040000fa
:04020c00dc200000f2
:020000040000fa
:04021000dc200000ee
:020000040000fa
:04021400dc200000ea
:020000040000fa
:04021800dc200000e6
:020000040000fa
:04021c00dc200000e2
:020000040000fa
:04022000dc200000de
:020000040000fa
:04022400dc200000da
:020000040000fa
:04022800dc200000d6
:020000040000fa
:04022c00dc200000d2
:020000040000fa
:04023000dc200000ce
:020000040000fa
:04023400dc200000ca
:020000040000fa
:04023800dc200000c6
:020000040000fa
:04023c00dc200000c2
:020000040000fa
:04024000dc200000be
:020000040000fa
:04024400dc200000ba
:020000040000fa
:04024800dc200000b6
:020000040000fa
:04024c00dc200000b2
:020000040000fa
:04025000dc200000ae
:020000040000fa
:04025400dc200000aa
:020000040000fa
:04025800dc200000a6
:020000040000fa
:04025c00dc200000a2
:020000040000fa
:04026000dc2000009e
:020000040000fa
:04026400dc2000009a
:020000040000fa
:04026800dc20000096
:020000040000fa
:04026c00dc20000092
:020000040000fa
:04027000dc2000008e
:020000040000fa
:04027400dc2000008a
:020000040000fa
:04027800dc20000086
:020000040000fa
:04027c00dc20000082
:020000040000fa
:04028000dc2000007e
:020000040000fa
:04028400dc2000007a
:020000040000fa
:04028800dc20000076
:020000040000fa
:04028c00dc20000072
:020000040000fa
:04029000dc2000006e
:020000040000fa
:04029400dc2000006a
:020000040000fa
:04029800dc20000066
:020000040000fa
:04029c00dc20000062
:020000040000fa
:0402a000dc2000005e
:020000040000fa
:0402a400dc2000005a
:020000040000fa
:0402a800dc20000056
:020000040000fa
:0402ac00dc20000052
:020000040000fa
:0402b000dc2000004e
:020000040000fa
:0402b400dc2000004a
:020000040000fa
:0402b800dc20000046
:020000040000fa
:0402bc00dc20000042
:020000040000fa
:0402c000dc2000003e
:020000040000fa
:0402c400dc2000003a
:020000040000fa
:0402c800dc20000036
:020000040000fa
:0402cc00dc20000032
:020000040000fa
:0402d000dc2000002e
:020000040000fa
:0402d400dc2000002a
:020000040000fa
:0402d800dc20000026
:020000040000fa
:0402dc00dc20000022
:020000040000fa
:0402e000dc2000001e
:020000040000fa
:0402e400dc2000001a
:020000040000fa
:0402e800dc20000016
:020000040000fa
:0402ec00dc20000012
:020000040000fa
:0402f000dc2000000e
:020000040000fa
:0402f400dc2000000a
:020000040000fa
:0402f800dc20000006
:020000040000fa
:0402fc00dc20000002
:020000040000fa
:04030000dc200000fd
:020000040000fa
:04030400dc200000f9
:020000040000fa
:04030800dc200000f5
:020000040000fa
:04030c00dc200000f1
:020000040000fa
:04031000dc200000ed
:020000040000fa
:04031400dc200000e9
:020000040000fa
:04031800dc200000e5
:020000040000fa
:04031c00dc200000e1
:020000040000fa
:04032000dc200000dd
:020000040000fa
:04032400dc200000d9
:020000040000fa
:04032800dc200000d5
:020000040000fa
:04032c00dc200000d1
:020000040000fa
:04033000dc200000cd
:020000040000fa
:04033400dc200000c9
:020000040000fa
:04033800dc200000c5
:020000040000fa
:04033c00dc200000c1
:020000040000fa
:04034000dc200000bd
:020000040000fa
:04034400dc200000b9
:020000040000fa
:04034800dc200000b5
:020000040000fa
:04034c00dc200000b1
:020000040000fa
:04035000dc200000ad
:020000040000fa
:04035400dc200000a9
:020000040000fa
:04035800dc200000a5
:020000040000fa
:04035c00dc200000a1
:020000040000fa
:04036000dc2000009d
:020000040000fa
:04036400dc20000099
:020000040000fa
:04036800dc20000095
:020000040000fa
:04036c00dc20000091
:020000040000fa
:04037000dc2000008d
:020000040000fa
:04037400dc20000089
:020000040000fa
:04037800dc20000085
:020000040000fa
:04037c00dc20000081
:020000040000fa
:04038000dc2000007d
:020000040000fa
:103000000c20040000000000dc2004000000000090
:10301000dc20040000000000dc20040000000000b0
:10302000dc20040000000000dc20040000000000a0
:10303000dc20040000000000dc2004000000000090
:10304000dc200400000000009c5e04000000000082
:10305000dc20040000000000dc2004000000000070
:10306000bc5f0400000000000684040000000000b3
:10307000dc20040000000000dc2004000000000050
:10308000dc20040000000000dc2004000000000040
:103090000c61040000000000dc20040000000000bf
:1030a000dc20040000000000dc2004000000000020
:1030b000dc20040000000000dc2004000000000010
:1030c000dc20040000000000dc2004000000000000
:1030d000dc20040000000000dc20040000000000f0
:1030e000dc2004000000000010600400000000006c
:1030f0000461040000000000dc2004000000000067
:10310000dc20040000000000dc20040000000000bf
:10311000dc20040000000000dc20040000000000af
:10312000dc20040000000000dc200400000000009f
:10313000dc20040000000000dc200400000000008f
:10314000f45f040000000000dc2004000000000028
:10315000dc20040000000000dc200400000000006f
:10316000dc20040000000000dc200400000000005f
:10317000a249040000000000dc2004000000000060
:020000040000fa
:103180000000fa007632070060cb21008040eb009f
:103190000148780080cb210081c0b300014878004d
:1031a00070cb21008040eb000148780000582200dd
:1031b0000100200090e58800a1e588000080fa0069
:1031c00000000600be00fa00889fbe008a9fbe0075
:1031d000a7c8bf000004e0001f023a0001c4b3000a
:1031e00080a2210099320700004f78001e4078002d
:1031f0000004e000c80132001e80fb0081a2210013
:103200000041eb0082707800608420005001be0015
:103210004000be00848b2000009abe000292be00d7
:103220000046800011468000e00f5000e08f5800fb
:1032300008003200c028ef00c228ef006a004700f3
:1032400022012000018c2c003d0807006a00470085
:10325000dd18070080a22100104078000080fb00ec
:103260006101b900f0fc2f00f1ff2f0002004000c7
:10327000838048003204200003002000820f5000a9
:10328000838f5800f1013e000060010043003700c9
:103290005d003700ef013700ee013700ed01370028
:1032a000ec013700eb013700ea013700e901370094
:1032b000e8013700e7013700e6013700e501370094
:1032c000e4013700e3013700e2013700e101370094
:1032d000e0013700df01370089013700dd013700e9
:1032e000dc013700db013700da013700d901370094
:1032f000d8013700d7013700d6013700d501370094
:10330000d4013700d3013700d2013700d101370093
:103310004b003700cf013700ce013700cd01370019
:10332000cc013700cb013700ca013700c901370093
:10333000c8013700c7013700c6013700c501370093
:10334000c4013700c3013700c20137004f00370006
:10335000400137006c003700570137008800370004
:10336000bc01370058003700ba013700b9013700f7
:10337000b8013700b7013700b601370070003700d9
:103380000a0137001d013700b2013700b1013700d3
:103390002e013700af013700bc00370012340700a0
:1033a000104798001b34070020479800243407007a
:1033b000304798003e4090008001fb002e40900076
:1033c0000001fb001e4090008000fb0080a6210051
:1033d000831f7800821f7800811f7800218d2c00c8
:1033e000811f780018090700e887570080a6210090
:1033f00008080700004078008040780080a621007f
:10340000433207009401370080a621006178210033
:10341000811f7800d18d2c00811f78000a090700d8
:10342000e487570080a62100fa07070000407800d3
:103430008040780080a621003532070086013700e1
:103440001e407800e24f500002003600a0a221008a
:1034500037190700b142800080a62100811f780043
:10346000218e2c00811f7800f7080700e4875700a1
:1034700080a62100e7070700004078008040780020
:1034800080a6210022320700730137002ac8bf003e
:103490008000fb0080a62100811f7800718e2c0027
:1034a000811f7800e8080700e487570080a6210004
:1034b000d8070700004078008040780080a62100ef
:1034c0001332070064013700804180009141800081
:1034d00082a62100809fbe00c08e2c00801f780035
:1034e00002007800d8080700e687570080a6210070
:1034f000c8070700004078008040780080a62100bf
:10350000033207005401370080a62100e1032c009c
:10351000811f7800218f2c00811f7800ca080700c6
:10352000e487570080a62100ba0707000040780012
:103530008040780080a62100f53107004601370061
:10354000104280002142800082a62100809fbe00a0
:10355000708f2c00801f780002007800ba080700e6
:10356000e687570080a62100aa07070000407800e0
:103570008040780080a62100e53107003601370041
:103580001e407800e24f50001f0036002bc8bf00dd
:103590000004e00017003a006a00470052012000d2
:1035a000d18f2c00660707006a0047000618070045
:1035b00010c0b3002be8b70080a221000080e80013
:1035c0003407070060418800714188006041800035
:1035d0007141800082a62100809fbe0020912c00b6
:1035e000801f78000200780097080700e6875700e0
:1035f0001600370080a621006200200081912c0077
:103600004f070700110037002bc8bf00e14f5000e3
:103610000a003a00604180007141800082a62100ca
:10362000809fbe0020912c00801f7800020078004f
:1036300085080700e68757000400370080a62100b0
:1036400082002000e1912c003d0707006a0047003e
:1036500081a62100811f780061922c00811f7800d3
:1036600079080700e48757006a004700d61707006b
:1036700080a621006707070000407800804078009e
:1036800080a62100a2310700f30037001e40780019
:10369000e34f50002700360080a221000080e800a0
:1036a0004917070064842000009abe000292be0001
:1036b000608420005001be004000be00e484200071
:1036c000009abe000292be00608420003002be005c
:1036d0002003be00008820005001be004000be0054
:1036e0000000420081804a0002014b0083814b00b0
:1036f00084872000009abe000292be000021ef00e5
:10370000608420005001be004000be006a024700f5
:10371000809fbe00829fbe00d0922c00801f780048
:103720000400780048080700ea8757006a0047004d
:10373000a5170700e08420003002be002003be0071
:10374000000880006104b8006055b8006084200063
:103750005001be004000be000000440081804c00cb
:1037600002014d0083814d0088a62100849fbe0088
:10377000869fbe00809fbe00829fbe00f0932c00fb
:10378000801f7800080078002f080700f287570094
:1037900080a621001f0707000040780080407800c5
:1037a00080a621005a310700ab0037001e40780088
:1037b000e34f50000300360080a221000080e800a3
:1037c0006f18070080a62100616e2100811f78001c
:1037d000b1942c00811f78001b080700e487570074
:1037e00080a621000b070700004078008040780089
:1037f00080a6210046310700970037001e40780060
:10380000e34f50000300360080a221000080e80052
:103810007018070080a62100a16f2100811f780089
:1038200001952c00811f780007080700e4875700e6
:1038300080a62100f706070000407800804078004d
:1038400080a6210032310700830037000000fe000f
:1038500081003700b2418000c3418000d041800028
:10386000e1418000541680004d22de00614262007a
:103870000482fb00e102120084a62100829fbe00a8
:10388000809fbe00851f780050952c00801f780017
:1038900004007800ec070700ec87570080a62100a1
:1038a000dc060700004078008040780080a62100f8
:1038b000173107006800370080a221000080e8006f
:1038c00074060700200798003107980080a62100a1
:1038d00041c6b30001487800b1320700030420005c
:1038e00092a621002e009000be0090005e320700dc
:1038f00011c4b30080a6210005310700560037002f
:1039000000002000110020000046880011468800b9
:103910000000000050003700004680001146800083
:10392000e00f5000e08f580022003200f00f20001e
:10393000400798009a320700004680001146800038
:10394000ce01900082a62100473207004e00900071
:103950006101b9000046800011468000020040006d
:103960008380480000468800114688000246800097
:10397000134680001042800021428000800f5100d9
:10398000818f590002003600c028ef00c228ef00e6
:1039900080c0eb0080a62100dd300700608420009d
:1039a0005001be004000be00848b2000009abe0083
:1039b0000292be00608420003004be002005be00dc
:1039c000808b20005001be004000be000002540069
:1039d00081825c0002035d0083835d00000028009b
:1039e000010020006011b8000020e10001a8e10002
:1039f00002b0e10003b8e1001700360080a6210004
:103a0000616e2100811f780001962c00811f7800d3
:103a10008d070700e487570080a621007d06070078
:103a2000004078008040780080a62100b830070070
:103a3000608420005001be004000be00848b200046
:103a4000009abe000292be00030037000000000092
:103a50000100370000000000113107004f05be00d3
:0c3a60004f04be000080fa0000000600c9
:020000040000fa
:103a6c00cc1c000032000000000000008e0800009a
:103a7c001800000000000000001e000030000000d4
:103a8c0000000000321c00009a0000000000000042
:103a9c00a60800001200000000000000cc08000086
:103aac000400000000000000281a00004001000083
:103abc0000000000b80800000c000000000000002e
:103acc00d008000002000000000000006e0800009a
:103adc002000000000000000d208000002000000de
:103aec000200000001000000d6080000f20f0000e8
:103afc0000000000000800006e0000000000000044
:103b0c00c4080000080000000200000008000100ca
:103b1c000034c40055c40000241d00000a0000003d
:103b2c0000000000d40800000200000000000000ab
:103b3c002e1d000006000000000000003a1d0000d1
:103b4c000200000000000000681b0000ca0000001a
:103b5c000200000030313200333435003637380083
:103b6c0039414200434445004600300031323300b5
:103b7c00343536003738390061626300646566009d
:103b8c0000286e00756c6c0029000000010000001c
:103b9c000000000000000a0000000000000000000f
:103bac00006400000000000000000000e8030000ba
:103bbc0000000000000010002700000000000000c2
:103bcc0000a08600010000000000000040420f0031
:103bdc00000000000000800096980000000000002b
:103bec000000e100f50500000000000000ca9a008a
:103bfc003b00000000000000e40b54000200000039
:103c0c000000e80076481700000000000010a50036
:103c1c00d4e8000000000000a0724e00180900005b
:103c2c00000040007a10f3005a0000000080c6002b
:103c3c00a47e8d000300000000c16f00f2862300fb
:103c4c00000000008a5d78004563010000006400fc
:103c5c00a7b3b600e00d000000e889000423c700fc
:103c6c008a000000fe1c000026000000020000007c
:103c7c00351d000000351d00090000000002000089
:103c8c00371d000000371d000e020100000000006f
:103c9c00000000000000000006020200000000000e
:103cac00fe1c0000341d0000060000000000000097
:103cbc00c8180000600100000200000000000000b5
:103ccc0000000000f03f0000000000000000240095
:103cdc0040000000000000000059400000000000ff
:103cec00000040008f400000000000000088c3006e
:103cfc0040000000000000006af8400000000000d6
:103d0c00008084002e41000000000000d0126300ef
:103d1c004100000000008400d79741000000000023
:103d2c000065cd00cd410000000020005fa0020026
:103d3c0042408c00b5781d00af154400ea8ca00001
:103d4c0039593e002946a5005cc3f10029633d00aa
:103d5c00489a64007ec50e001b514a0044f3c20011
:103d6c00e4e4e900634c3d00c7ddd600ba2e7700d1
:103d7c004e5ffb00f051ef00fc8a5000c759290040
:103d8c00090f6b009f527d00c3942500ad49b20012
:103d9c00545a6200d7d71800e77469009c7500006c
:103dac00883ce400377e0000000000000000f000ba
:103dbc003f9a99009999990099b93f007b14ae00ec
:103dcc0047e17a00843ffc00a9f1d2004d6250001b
:103ddc003f2d43001cebe200361a3f00f168e30074
:103dec0088b5f800e43e8d00edb5a000f7c6b00034
:103dfc003e48af00bc9af200d77a3e003a8c3000b5
:103e0c00e28e7900453e9500d626e8000b2e110077
:103e1c003ebbbd00d7d9df007cdb3d0023429200c6
:103e2c000ca19c00c73ba000c2ebfe004b48b400a9
:103e3c00399c5700772726006ca137001fb8d40097
:103e4c004a7aee008d352600a6acaa0004b679009d
:103e5c00339d35008f1de9001566310023614d003f
:103e6c0017acf800522f6f000e998400d94b40000c
:103e7c002d3005008ee42e00ff2b2b00acf74e00ee
:103e8c0015927e0068165900f3f8c2001f6ea5004b
:103e9c00010000003c1d00000200000002000000b8
:083eac0001000000000000000d
:020000040000fa
:103eb4000000fa0040248000620060000000e0007e
:103ec4002d003a007144800000022000808f5000d1
:103ed4000d003a0080468000e10f500017003200c8
:103ee40081468000b0042000808f5000150032000d
:103ef4008146800060092000808f50001300360046
:103f0400d028ef001800370080468000e10f5000f1
:103f1400100032008146800020032000808f500072
:103f24000e00320081468000603b2000808f5000ec
:103f34000c003600d028ef000b0037000000000012
:103f440009003700000000000700370000000000ef
:103f540005003700000000000300370000000000e7
:103f64000100370000000000804680000000e800e7
:103f74008046880001003700000000000080fa003d
:043f84000000060033
:020000040000fa
:103f8800f03fb1000180b10006003500ee030900e2
:103f980000000000403fb1000180b100fbff3d0080
:103fa8001000b000203fb00002003500008009007a
:083fb8000000000000000600fb
:020000040000fa
:104000004a6100006e2000002039000020320000cc
:08401000303100003700000010
:020000040000fa
:104018000fe321000e7f22000e018800000000003f
:10402800000020000000e000020032000001200033
:104038002002880014000700a50007000000e00027
:1040480003003a0060d3210001002000020037007d
:104058000000200001002000810f700001003200e4
:1040680014000700000020000000e00002003200f9
:104078000000020000000000e462020000000000ee
:104088000040da000000fe004440a90080932000b0
:104098000000e0000300320000002000a0018800ba
:1040a8004440a800000006008a1f78008b1f780093
:1040b8000000060091018800800478000000eb00f1
:1040c8001a003700e284440032a0b4009905ba000f
:1040d800e284440032a0b4009906ba00e2844400a5
:1040e80032a0b4000006eb00476fde00fd07b20007
:1040f800636ce10003003a00ebff07000000eb00ef
:104108000a003700606ce10004003a00005deb0033
:104118008b05e900fdff3e00040037006168e100ff
:10412800010032000086eb000b00070019c7ba0037
:104138001905ba000e04e00003003a000a00e00086
:10414800e0ff3a0000000600fe07b2009e0188006a
:104158008a047800f5ff3700395dba008b05e9005d
:104168000c003200295dba008b05e9000800320016
:104178000c00e00003003a00e284440032a0b400de
:10418800f5ff370019ddba008b05e900faff3a00a0
:104198008904e800e184440032a0b400000006006d
:1041a8000000000000000000000000000000000007
:1041b8000040da000000fe001004b10007003500de
:1041c8009001b100040034007000b1000300350014
:1041d8009001b10001003c0010000500000005003e
:1041e8006900e100040035006d00e10003003400bf
:1041f8000002b100010032000000050010000500b7
:10420800800078001106b100030035009101b1006b
:1042180001003c000050a100000006000a00fa005e
:10422800e20f50001f003e00e0e98000e10f50005f
:10423800060032008023200045232000232320008d
:10424800042320000000e00004003a00802220003f
:1042580045222000232220000422200006002800f6
:104268009403630002003a0007087800140a7300f8
:1042780013a8a30001003a0013a0a00002007800d0
:10428800050037001388a300feff32003102fb004f
:10429800840a78000000e9000000e000f9ff3a0015
:1042a8000800370033002000b3bf9f00c0bf9f0045
:1042b800d1bf9f00e2bf9f006a805700bb0c070078
:1042c8006fb99700020078000080fa00000006002d
:1042d8000000050003f0a200889fbe008a9fbe0070
:1042e8008c1f780009010700100133006450e100b9
:1042f8004f0032006420e1005200320003826c005b
:1043080007003b000905d0000306d000820f5400c7
:104318000c065d00020039000200320089017800b5
:10432800030678008582550004003d000003fd0067
:104338008103fd008502ea008b854200840f72002c
:1043480002003b0060001000e08018006011b80017
:104358000005eb007a28e1000a0039000600780021
:10436800c75ddd00f707b200878075002d003700b4
:10437800828171000a017800610560008180d100a6
:104388000080d3008502e900f9ff3b0006044000e5
:104398008784480002003b0060041400e0841c008d
:1043a8000988a300070032008a81710082817100a8
:1043b800610164008904d1000884d3008b05e800fa
:1043c800170037000978a30013003a000b00e0003b
:1043d800130034008b05e9000804440089844c006c
:1043e8000a4474000978a3000d003a000b00e000ad
:1043f800070034008b05e9000804440089844c0058
:1044080001003a000b0020000978a300f7ff3200f2
:104418000001eb0002003700828171000a01780078
:104428007f0007000cf0a70001f0a000c8003700cb
:104438006420e10002003a00838f6c00c80033005a
:104448000801be000200be00c1003700889fbe0000
:104458008a9fbe008c1f7800ac000700b3003300b1
:1044680003866c006450e1002e0032006420e100f5
:10447800330032006150e1002f0032006120e1007a
:104488003100320085855500eb07b0000900200097
:1044980008042000050037000804440089844c0003
:1044a8000a0031000603430087834b0000015300d4
:1044b80081815b00f8ff33000203be000800a00002
:1044c8000804440089844c00f6ff3900c639dd0031
:1044d8008301730001003200130020008904d10019
:1044e8000884d3000998a300050032000800a7003b
:1044f8000300a0008904d1000884d3008b05e800dc
:104508008904d1000884d3000001eb000281d200a5
:104518004300070001f0a1000cf0a70001f0a00083
:104528008b0037006420e1008d0032000801be00d6
:104538000200be00f7ff37006120e100880032006a
:104548006000b800f3ff37000000200001f82700e2
:10455800f0ff3700839f68000100e00002003d0083
:1045680060001000e08018000300e00002003d0039
:1045780060011100e0811900b20007004f00e0005f
:1045880002003b0060001000e080180000000600f8
:1045980014002000e6013700f4ff2f00e401370083
:1045a8000001be00440007000470a70003f0a1004a
:1045b80003f8a30013003a006509b10010003200a7
:1045c800090035006928e1000200350001002800d3
:1045d8000000050000004000818048008502e900d5
:1045e800fcff3a0000000600f88f42000500350085
:1045f8008100d1000080d3008502e800fcff3a006a
:10460800000006008000eb00000005004f89de0076
:1046180082017800e10137006011b800ef0137002e
:1046280081002000618055000b003d000b00200038
:1046380061fe2f000100e1001d003400828171003d
:10464800610164008904d1000884d3000000e800f7
:10465800faff3a0071002000610064000300700056
:10466800020060000900320061044400e0844c004c
:104678000988a500050032008b05e8006808e100fc
:1046880002003a008904d1000884d300f20f200008
:104698000258e10005003d00c75ddd00f907b200e2
:1046a8008980750008007800000006000bf82700d4
:1046b8008b00780000000500c70ade00f107b20091
:1046c800f50fb20008003200e1cf420002003200cc
:1046d8000170a00024000500810f70000100320065
:1046e8000408050044000500810f700002003a002c
:1046f800140005008502e9000000400081c0480060
:10470800fcff3b000170a000240005000004be006f
:10471800e9ff07000003be000405be000200be005a
:10472800e5ff0700844f7500000006000200be0088
:104738006450e100050036006420e1000200360004
:104748000968a30001003a000800be000160a0004b
:104758004f0678004f05be004f04be00000006005b
:10476800f0ff2f00f1ff2700f9ff3700889fbe00f8
:104778008a9fbe008c1f7800e4ff0700ebff330020
:1047880003866c006450e100240032006420e100dc
:10479800270032006150e100220032006120e10070
:1047a800210032008b854200eb07b1000134b800cc
:1047b800003ab8000804420089844a00013ab80067
:1047c8000030b8008880400009014a000400330026
:1047d8000000400081804800020149008b05e90083
:1047e800c909dd00830170000100320013002000b8
:1047f800c814de004814dd004709de001200b200cc
:10480800c808de000884700085ff070001f0a100d9
:104818000cf0a70001f0a000cdff37006120e100f7
:10482800cfff32000801be000200be00f7ff3700cc
:104838006150e100fcff3a00c9ff37000001eb00be
:10484800950137006022b800060220000000d00061
:104858008180d2000482d2008582d2000000a000ac
:104868000202520083825a00030031000202420011
:1048780083824a000000a1000603e900f3ff3a0022
:1048880000000600889fbe008a9fbe0030044200d8
:10489800b0844a0030054b0090854b006000b100a1
:1048a8000898be000a90be000440e10005c8e10077
:1048b80006d0e10007d8e10002003100680040009e
:1048c8001008e8004f05be004f04be0000000600b7
:1048d800889fbe008a9fbe003004be002005be002f
:1048e8000418540005985c0006185d0007985d00e0
:1048f800110020000440e10005c8e10006d0e100f5
:1049080007d8e100010039008000eb001088100092
:104918004f05be004f04be00000006001200fa005a
:10492800889fbe008a9fbe008c9fbe00e0b79f0094
:10493800f1b79f0082bf9f0093bf9f000605be008e
:104948000404be000000eb00d0b79f00c0b79f0072
:10495800b0b79f00a0b79f0090b79f000006eb007c
:104968005fb19700cfb09700820141003fb0970038
:104978000200e00004003d00370007007e80570079
:10498800c0ff070003003700330007007e80570090
:10499800cfff0700dfb697000d00e0000c003500e0
:1049a8006fb29700ffb297000fbb97009fbb9700ad
:1049b80010002000010020006011b8000002720001
:1049c8008182720002037300838373001b00070057
:1049d8000c06e80001042000810f5600e0ff3a00b1
:1049e8000d00e00004003d000802be000a03be00fe
:1049f8007e805700a3ff07005fa897000000e00033
:104a080005003a001fb29700afb297003fb3970076
:104a1800cfb39700090007006fb09700ffb0970069
:104a28000fb997009fb997004f06be004f05be000b
:104a38004f04be000080fa000000060001000700d5
:104a480000000600a4b79f00b5b79f00c6b79f0037
:104a5800d7b79f00000006004f09de008281710071
:104a6800b3b79f004f01de00818040008280700054
:104a7800a1b79f008fb097004f09de0000004000eb
:104a88000200700090b79f007fa897004f01de00da
:104a9800818040008280700081b79f000d00070070
:104aa8004f3ade000000400004007000f0af9f00a5
:104ab800080007000402420085824a0006034b00f2
:104ac80087834b00dfff07000802be000a03be0011
:104ad800000006002fb29700bfb297004fb39700af
:104ae800dfb3970000000600881f78001800200038
:104af800881f780089ff07008f87e9004f04780036
:104b080000000600801feb0084ff07008f87e90084
:104b180000000600889fbe008a9fbe00e00f50007c
:104b2800e08f5800e00f5900e08f59000c003d005d
:104b38006044b8006055b8000000540081805c00f3
:104b480002015d0083815d00180020001500070048
:104b580008003d00180007000004eb0005003700be
:104b68000004eb000f00070002003d0012000700e0
:104b780018002000dcff07000800e00006003200f3
:104b88006022b8006033b8000000520081805a00eb
:104b980002015b0083815b004f05be004f04be002d
:104ba80000000600e00f5200e08f5a00e00f5b00a3
:104bb800e08f5b00000006006044b8006055b80054
:104bc8000402540085825c0006035d0087835d0053
:104bd80000000600889fbe008a9fbe008c1f7800d8
:104be800e00f5000e08f5800e00f5900e08f5900a7
:104bf8000d003d006044b8006055b8000000540046
:104c080081805c0002015d0083815d001c00200042
:104c18000820e10009a8e1000ab0e1000bb8e100b2
:104c28000d003d00080037000006eb00e00f5200c1
:104c3800e08f5a00e00f5b00e08f5b0006003d004c
:104c48006044b8006055b8000402540085825c00d6
:104c580006035d0087835d00aaff07000c00e000e3
:104c6800060032006022b8006033b800000052002d
:104c780081805a0002015b0083815b004f06780047
:104c88004f05be004f04be0000000600889fbe000e
:104c98008a9fbe008c1f78000006eb00e00f5000d2
:104ca800e08f5800e00f5900e08f590007003d00e1
:104cb8006044b8006055b8000000540081805c0072
:104cc80002015d0083815d001c002000e00f52009e
:104cd800e08f5a00e00f5b00e08f5b0007003d00ab
:104ce8006044b8006055b8000402540085825c0036
:104cf80006035d0087835d000c00a200cf0007005b
:104d08000c00e000060032006022b8006033b800f2
:104d18000000520081805a0002015b0083815b0021
:104d28004f0678004f05be004f04be000000060085
:104d3800889fbe008a9fbe00841f780073fe07000c
:104d48004f00780011003300f0ff2f00838f6c00b4
:104d580006003b00040565000a00a70008003700ac
:104d680009f0a6001000200008003700820f540048
:104d7800838f5c00030039001000200001003e0012
:104d88000000200009f0a7000000ea004f05be005f
:104d98004f04be000000e00000000600881f7800f5
:104da800030478000300e00007003d0060001000e5
:104db800e080180060011900e081190002003b0042
:104dc80001f02d00030037000400070008f0a700d9
:104dd80001f0a0004f04780000000600889fbe0084
:104de8008a9fbe0000827000040271000482710074
:104df800260032000004be000200be006011b800a8
:104e08006b092000950220000182cf000a003900ba
:104e18000541b1000082cf00070039000541b1000b
:104e28000982cf00040039000541b1000882cf0093
:104e3800010039000541b10005425200120032005c
:104e48000a003b0082817100610164008100d10089
:104e58000080d3008984d3000884d3008b05e80040
:104e68000442e800f7ff3a0007003700080444004e
:104e780089844c0000004800818048008b05e900c7
:104e88000442e900f9ff3a00e5fd07004f05be00be
:104e98004f04be0000000600889fbe008a9fbe0027
:104ea8008c9fbe00820578000004be0002fe070049
:104eb8000800be006420e1000700390002003a0043
:104ec800f1ff2700f0ff2f000160a0001202200070
:104ed800a2468800550037006120e10003003a002f
:104ee8000b00a70001f823005000370001f0a100d3
:104ef8000200210093642400a5fd07000800be00fd
:104f080004003500b2fd2000930c24008e00070039
:104f18000004be000005eb000b00a6004f0dde00ec
:104f280001f0a1000004be0032982f0023ea2300fc
:104f38000efe07000001eb0003f023000b00a700a2
:104f480003f82300e4fc07005e0007000000a70048
:104f58000a00a200adfd07000b00e00003003200cc
:104f68000200200003f02300dafc070001f0a20091
:104f78000006be000200200093042400fbfd070089
:104f88000801be00d4fc0700809fbe000c00be00d4
:104f980022a22a00d3a72300f4fd07004f01be0078
:104fa800cdfc07000004be0001f0a10002002000b3
:104fb8000398230076fd07000800be00190035009d
:104fc8000001be00e9fd07000006be00b2c52900c9
:104fd800e3622300e5fd070022222b00f3942b0057
:104fe800bdfc07000c01be00e0fd0700e2732800cd
:104ff80083c02300b8fc07000c01be00dbfd0700de
:1050080042aa2a00a3e22b00b3fc07000c01be0051
:10501800d6fd07000801be00d4fd07000801be0048
:10502800adfc07000a00a70001f0a2004f06be0071
:105038004f05be004f04be0000000600889fbe005a
:105048008a9fbe008c9fbe000404b8000506b80005
:105058008904460060854e000606b8000a05460029
:10506800e0854e000706b8008b054600040eb80020
:10507800890446000a854e00e0854d00050eb800fb
:105088000a0546008b854e00060eb8008b054600c3
:105098000416b8000a0546008b854e000516b800b0
:1050a8008b054600041eb8008b0546000800be00ac
:1050b8000a01be004f06be004f05be004f04be00e9
:1050c800000006000001be007bfd07000470a70079
:1050d80003f0a1006509b100160032000d0035008b
:1050e8006828e10006003500f0ff2f00f1ff2700d7
:1050f8000300e00013003b00010028000000050049
:1051080000004000818048008502e900fcff3a0069
:1051180008003700f88f420002003c008000eb00d6
:10512800000005008100d1000080d3008502e8005e
:10513800fcff3a000300e00002003b0060001000a2
:10514800e08018000000060004002000000037007e
:10515800889fbe008a9fbe008c1f78004f26dd0006
:105168006afd070071fd33006120e1004300320051
:105178006250e10041003e003e0039006420e10039
:105188003c003200058255000f003b000402e80095
:1051980038003a00800f5300818f5b0035003400df
:1051a8000800be0003f0a10001f0a60003f0a00073
:1051b8000cf0a70048fc070065fd37000603430014
:1051c80087834b000c4646000005530081855b0031
:1051d800020033000a03be000c00a0000402e9002c
:1051e800f6ff3b00850578000602430087824b00e6
:1051f80004003a006000b80009f0a70001f0a00020
:1052080053fd37000002520081825a000704e00073
:10521800040033000603430087834b008b05e90035
:10522800faff3700090578000604be000203be0035
:105238006011b800fafc0700e00f5200e08f5a0036
:105248000700350002003c000c08a30004003200ef
:105258000601be0003f0a0000cf0a7001efc07002a
:105268000a85680001f0a1000af0a70001f0a0007b
:1052780037fd37000800be0035fd3700100220005a
:105288000cf0a600a046880035fd3700889fbe00b8
:105298008a1f7800304478008004780001c2b30087
:1052a800814f5400fbff3200e94f5400f9ff3200f0
:1052b800d0c2b300804f540003003a00394478004c
:1052c8001ac0b300050037000045eb00b0c2b300b8
:1052d800804f540001003a00394478006000b8005b
:1052e8000a003700a200200003002000eb0a070094
:1052f80002cdb300024144000281fb008001eb00b3
:105308000200400083804800394478000881fb008f
:105318000203b100e90f5100f2ff36000a04e00071
:105328000200320060001000e08018004f0578008d
:105338004f04be000000060080017800020037001c
:10534800b15978000201e9000200e000fcff3a00d0
:1053580000000600800178000200370081597800bb
:105368000201e9000200e000fcff3a00000006002c
:105378008000eb0080e9880091e9880011c0b30043
:10538800e0d221000148780000000600e0d22100a8
:105398001004e00002003a0010002000f4ff0700ab
:1053a800d2e62400631c240080e9800091e9800093
:1053b800ba0a0700920323000300200000014100fd
:1053c8008181490082e9880093e988000300780018
:1053d80000f0a10000000600b041780031c1510082
:1053e80002003a000304e000fbff3a000200fb0061
:1053f8000000060000017800b141780003597800e8
:105408000304e000fcff3a0000000600800078007a
:105418003104e000feff3a000080ea00008040000e
:10542800000006000a003700b04178000304e000dd
:10543800030032000201e900b1cf5100040032003c
:105448008381fb001480fb000080510000000600ef
:10545800010278000200e000f3ff3a0000000500b6
:1054680080017800060037000201e900b1427800a7
:1054780085597800030278000504e0000600320030
:10548800030278000200e000f7ff3a00020037004c
:10549800005aeb000201e9000200e000fcff3a00bc
:1054a80000000600889fbe000004be000800e0005f
:1054b80003003a00d8e980000800e0001300320039
:1054c8000800be00da070700000444001804e000e2
:1054d80004003a000000eb00d0e988000004eb006b
:1054e8000a0037000800be00be070700000044009d
:1054f800d0e988001004e000020032000058eb00f8
:10550800010037000000eb00d0e9880008007800af
:105518004f04be0000000600e6874700889fbe00d3
:105528008a9fbe008c9fbe008e1f7800810678007f
:10553800820478008000eb00a14688000d00e0009e
:1055480001003200800e780000057800ba4078002b
:105558000a0478000100fb0081bf9f0020fb0700c0
:105568008fb897000000e000f8ff3a00d0c2b300ff
:1055780080cf500003003a00b84078001ec0b30046
:10558800050037000047eb00b0c2b30080cf5000e1
:1055980001003a00b840780000c3b30080cf500043
:1055a80012003a00b84078000900e000020032001a
:1055b800f08f540058003a0080c7b30080cf5000e5
:1055c8000300320080c5b30080cf500003003a00ca
:1055d800b8407800090120004f0037000900e000ba
:1055e8004d003a00890020004b0037000046eb00d0
:1055f8000900e00002003a000046eb00a900200084
:105608006055b8000101fb000200780081bf9f00cf
:10561800f2b79f00e8fa07008fb897007fb19700ac
:105628000000e0000500320002007800f4fa0700ec
:1056380091ccb30001424000050037000203b100dd
:10564800e90f51001e003e0004cdb30004c2400023
:105658000400fb00890f500019003d000402fb0004
:10566800cfa2de006149b9000a00be00f4b79f006e
:1056780085bf9f00090a07007fb297008fba97007d
:1056880004024000858248000800e800840f5500a5
:10569800858f5d000500360021022000a1468800a4
:1056a8000004780010c0b300060037009840780066
:1056b800000478000405be001cc0b300d1ff370009
:1056c8000040eb000c04e000030032000d00e00095
:1056d80001003200880ee900e14f50000500320059
:1056e8000e04e0000500320060051500e0851d008d
:1056f800020037000085eb008085eb000a00be0041
:105708004f0778004f06be004f05be004f04be008d
:105718006f00b100000006001cc0b300b8ff3700de
:10572800889fbe008a9fbe008c9fbe0080057800bf
:1057380081047800820678000000eb00a04688000b
:105748000b0678000c0578000a0678003c447800bf
:105758000800fb00a2fa07000000e000f9ff3a0089
:10576800d0c2b300804f54000300320000c0e900eb
:10577800804f540002003a000a05e8000100370093
:10578800004478000d017800890078000a0078004c
:1057980061ff07000900e00007003200990f55007b
:1057a80024003a008b0c780022003700e00f5000ec
:1057b800e08f58000f003a00b2c2b300824f540085
:1057c80004003a00e00f5000e08f580015003d003b
:1057d80008003700d2c2b300824f540011003a00cb
:1057e8000200200003002800820f5000838f580019
:1057f8000a00360020022000a0468800f0ff2f0093
:10580800f1ff2700d2c2b300824f540005003a00ce
:10581800000020000100280002003700600010008e
:10582800e08018004f06be004f05be004f04be00c2
:1058380000000600998f5500dfff3a00dbff3700b4
:105848000c00fa00889fbe0000047800f0ff2700d3
:10585800d0bf9f008004eb0099bf9f0088bf9f00c6
:10586800a8bf9f00200c2000b0bf9f007881570080
:10587800cfb0970070805700cf0007000fb897008f
:10588800094878008fb89700088050004f04be0080
:105898000080fa00000006000800fa00889fbe0099
:1058a8008a9fbe000084fb00d1c6b300814f500020
:1058b800340036004b062000110009000b84d80084
:1058c80081057800720040004300dd0089972100bf
:1058d800008044006022b8000600200007fe230074
:1058e8005001be004000be00f50807000002be00df
:1058f8000203be0084bf9f0095bf9f00a6bf9f0004
:10590800b7bf9f00aa002000110009008a85d800af
:1059180080057800e9854500c35ddd008b8544007e
:105928003b02be002b03be000fb897009fb897003c
:105938002fb99700bfb99700e10807000002be0021
:105948000203be0084bf9f0095bf9f00a6bf9f00b3
:10595800b7bf9f00110009000a84d800010478002d
:105968004344dd00888444003902be002903be0098
:105978000fb897009fb897002fb99700bfb9970045
:105988001d003700ea4f500013003600aa0020001f
:10599800110009000a84d800010578006904400054
:1059a8004344dd0089972100088444006022b80040
:1059b8000600200007fe23003800be002801be00b4
:1059c800bf0807004355dd008a8444003902be0041
:1059d8002903be00080037004344dd0080972100fa
:1059e800080440006022b8000600200007fe2300db
:1059f8003800be002801be00b10807004f05be00f0
:105a08004f04be000080fa00000006000800fa00fb
:105a1800889fbe008a9fbe00d1c6b3000004e00084
:105a280023003d000040ea000004fb00814f5000c5
:105a38000a00340042062000110009000204d800c0
:105a4800a9002000110009008900d800e9004000e1
:105a5800c308dd008a97210021003700ea4f500073
:105a680010003400a2002000110009000204d80030
:105a780001017800690040004300dd0081972100a2
:105a8800008040004311dd00828040003102be00ea
:105a98002103be005001be004000be008808070078
:105aa800380037004344dd0080972100320037007a
:105ab8000004fb00814f5000230034004206200000
:105ac800110009000204d800a900200011000900f3
:105ad8008900d800e9004000c308dd008a8c210055
:105ae800810045003102be002103be008b09200061
:105af8008a8545003b00be002b01be0070080700e8
:105b08000002be000203be0084bf9f0095bf9f0035
:105b1800a6bf9f00b7bf9f00110009000904d80065
:105b2800010478004344dd00080545003a02be0040
:105b38002a03be000fb897009fb897002fb99700a7
:105b4800bfb99700d5ff3700ea4f5000080034006e
:105b5800a2002000110009000204d8000101780009
:105b6800690040004300dd00818c2100c4ff37003c
:105b78004344dd00808c2100080440003800be004a
:105b88002801be004f05be004f04be000080fa0089
:105b980000000600d0019000028151004240a90097
:105ba8000300340010017800014978000208e80079
:105bb80001007800000006002f04b000889fbe0096
:105bc8008a9fbe008c9fbe008e1f7800000678005a
:105bd800f1a79f0082af9f006000b8006011b80075
:105be800f09f9f0081a79f0092a79f00a3a79f00f7
:105bf8008006eb00ac053700ffa097008100e800a5
:105c0800f1a79f0051c2b300814f500003003a0032
:105c18007fa197000007eb0011003700bc0090003f
:105c28000000fb000168a300070032000d017800a6
:105c3800800078000c007800d6ff07000000e00024
:105c480005003a00980537008c007800a205070087
:105c5800e10f4000940532008d06e80092053700f8
:105c680002007800b2407800d3c2b30083cf50005e
:105c78000c00320007003c00edc1510083cf5000fa
:105c88000a003200ebc1410083cf50000d003a00fa
:105c98000800370003c3b30083cf500009003a005f
:105ca800060037000e30a000edff37000e00a00000
:105cb800ebff37000e10a000e9ff37000e20a00010
:105cc800e7ff37000e18a300010032000e00a10004
:105cd8000e38a300010032000e20a1000101fb00d4
:105ce8000203b100e90f51000e003e008000780069
:105cf8000001eb0092b79f006a11b9003100fb0068
:105d08000003b10002014000010078009101fb008e
:105d18000303b100e98f5100f7ff360092b79f00e7
:105d28000a0037008001eb0093b79f00a2c2b300be
:105d380082cf500005003a000faa9700c4027800ed
:105d480084af9f0095b79f000000e800e1c2b30050
:105d580090cf100016003a000ee0a000e4c05000fa
:105d6800d0cf100003003200800078008001eb00e3
:105d7800080037008fab9700c700780087af9f00f7
:105d8800d1af9f000000e8000c0037006a1ab90084
:105d980084014100010078003101fb000203b100d9
:105da800e90f5100f9ff3600d3af9f000300370019
:105db8000ec0a0000001eb00d2af9f0000017800e8
:105dc80082007800314078000101780093c6b30062
:105dd800834f50003000320016003c00e6c15100ed
:105de800834f5000a90032000a003c00f7c151005f
:105df800834f50002b003200f1a79f0081c5b300ec
:105e0800814f5000340032000004e0002b053200be
:105e1800be003700f1a79f0041c6b300814f500074
:105e28001e00320081c0e800814f5000b7003a00e0
:105e38002200370003c7b300834f5000250032000b
:105e480008003c00e4c15100834f500015003200a7
:105e5800f1a79f00f1c6b300814f5000ab003a0094
:105e680019003700f1a79f0051c7b300814f5000b8
:105e7800ab003200e3c04000814f50000400320004
:105e8800e5c05000814f5000a0003a0016003700ce
:105e9800a0779f0012003700f1a79f00a0779f000e
:105ea800a1003700000120000e48a30001003200c5
:105eb800000028000e077000c1ff3700a0779f0080
:105ec8000ea0a00098003700a0779f000e60a000e9
:105ed80095003700f1a79f00a0779f000e50a00003
:105ee8000e70a00090003700a0779f008fa9970040
:105ef8004300780083af9f00000478000000e000b2
:105f080001003a00a8b82100880078000000eb00e2
:105f1800010037000000e800614178000204e00059
:105f2800fcff3a00800478005faa97000400e000b4
:105f380003003200890f5200010031008404780008
:105f48008001eb009fb29700898f52000100360054
:105f58008981520068036700d6af9f002c003a0081
:105f680003077800110037003c0090000068a30088
:105f7800070032000d017800010220000c007800b3
:105f880004ff07000000e00006003a0006003700a2
:105f98008c00780000022000cf040700e10f4000c9
:105fa800010032008d06e8000e07e9000e00e0004f
:105fb800edff3a008081eb00150037003c009000af
:105fc8000068a3000900320008007800b000fb0058
:105fd800000478000d0178000c007800edfe070041
:105fe8000000e00008003a000a0037008800780046
:105ff8003100fb00010478008c007800b60407002b
:10600800e10f4000030032008d06e8000100370070
:1060180003077800090078008004e9000000e00028
:10602800e6ff3a008e017800dfab97000700e0003a
:106038009d04320003077800110037003c009000ef
:106048000068a300070032000d017800010220005b
:106058000c007800cffe07000000e00006003a00c0
:10606800060037008c007800000220009a04070020
:10607800e10f4000010032008d06e8000e07e9003c
:106088000e00e000edff3a0087043700f1a79f00fb
:106098008fa897004100780081af9f006102b90086
:1060a800612bb90094af9f00a5af9f00b6af9f00ca
:1060b800c7af9f004822de004828dd0004027000b8
:1060c800a4779f000e48a300090032000404e000f2
:1060d80007003200e14f420005003200b4779f000c
:1060e800afd09700c1779f00290020000300370038
:1060f8002fd19700b2779f001900200023fb2f00b3
:106108008f8141000304e80087ff3700a0779f00d4
:1061180028fb2f000f0444001900200082ff3700dd
:10612800a0779f000e0cb3000070200000006700ed
:10613800640232000ec8a30002003200640020008e
:10614800d4af9f000e48a300090032000faa9700a1
:106158004401be004400be0084af9f0090af9f0082
:10616800a1af9f00b2af9f00c3af9f000a003700e6
:106178008faa97004500be0085af9f00380607002c
:106188000002be000203be0094af9f00a5af9f00af
:10619800b6af9f00c7af9f006022b8006033b80059
:1061a8001fa89700afa897003fa99700cfa997000d
:1061b8007d0507000000e0000a003d001fa89700c9
:1061c800afa897003fa99700cfa9970003f0a200b6
:1061d80090af9f00a1af9f00b2af9f00c3af9f00d9
:1061e8003e00b3000000eb00b09f9f006022b800a3
:1061f8006033b8001fa89700afa897003fa9970081
:10620800cfa99700cc0507000000e0003400320059
:1062180064fb2f000f0242001fa89700afa8970049
:106228003fa99700cfa99700880607003f989700d5
:106238000000e9006302b900a20020001100090073
:106248000202d800b09f9f000000e00002003d005d
:106258000000e900b09f9f003f9c97000840ea00bb
:10626800eafd07001faa9700afaa97003fab970067
:10627800cfab9700920607000002be000203be00e3
:10628800f49f9f0085a79f0096a79f00a7a79f0040
:106298006022b8000600200007ff2300420507001f
:1062a8000000e00002003d000804e9000b00370090
:1062b8006022b80006002000470224007f9897005b
:1062c8008fa097001fa19700afa197003b0507007b
:1062d8000000e000020035000804e800b89f9f00b5
:1062e800dfaa9700f88f52000f003c0005407800a5
:1062f80069fd07000002be000203be001fa8970048
:10630800afa897003fa99700cfa99700a904070055
:106318000002be000203be0094af9f00a5af9f001d
:10632800b6af9f00c7af9f003f9c9700e90f54008e
:1063380015003c006022b8006033b8001fa8970021
:10634800afa897003fa99700cfa997007a05070043
:106358000000e000320032001fa89700afa89700a5
:106368003fa99700cfa99700dc050700e00f500070
:10637800e08f5800e00f5900e08f590028003a00dc
:10638800e10f5400260034000400200005002e0010
:10639800b6e02200170124007f9897008fa097008d
:1063a8001fa19700afa19700ff0407000000e000bd
:1063b80002003d00730454000100370072045400c9
:1063c800b89f9f006f70970090fd07000002be0005
:1063d8000203be00f49f9f0085a79f0096a79f0019
:1063e800a7a79f001fa89700afa897003fa99700ed
:1063f800cfa99700f6040700b80507000205be00fc
:106408000004be006000b8006011b80090af9f00a3
:10641800a1af9f00b2af9f00c3af9f001700370026
:106428001fa89700afa897003fa99700cfa997008a
:10643800aa0507000205be000004be00d805070033
:106448000002be000203be001fa89700afa8970075
:106458003fa99700cfa997008e0607000002be004b
:106468000203be0094af9f00a5af9f00b6af9f0088
:10647800c7af9f000000eb00b09f9f00a5b92100a7
:1064880014c0b300080037003500be003501be0057
:106498000040e10001c8e10002d0e10003d8e100ba
:1064a800030039000442e800f44f5200f6ff3a00b6
:1064b800a4779f003f9897009fb2970000805200f2
:1064c8005fab9700860050000400fb00008050007e
:1064d80090b79f000600e000020032000000e900cb
:1064e80090b79f0063006700030032009fb39700d6
:1064f8008703e90097b79f000e28a30050003200d9
:10650800610167000e18a3000f0032003c009000e4
:106518000068a30006003200b10220000200e0007b
:10652800010032008180e8000d0178000d0037007d
:10653800b00220000200e000010032000080e80004
:106548008c0078000e0037000200e00033003200b3
:106558003c0090000068a300070032000d0178009d
:10656800010220000c0078008afd07000000e0000e
:1065780006003a00290037008c007800000220004d
:1065880055030700e10f4000240032008d06e800a3
:10659800220037003c0090000068a3000f00320082
:1065a8000d017800010320000c007800f4b79f006b
:1065b80085bf9f00d6b79f00e7b79f0075fd07000e
:1065c8007fb297008fba97005fb39700efb3970039
:1065d8000000e0000e003a000e0037008c00780042
:1065e80000032000f4b79f0085bf9f00d6b79f0027
:1065f800e7b79f00380307007fb297008fba97006c
:106608005fb39700efb39700e10f4000010032003d
:106618008d06e8008904e900030037000802be007f
:106628000a03be009fb497000900e000d9ff3c00b0
:1066380099b79f000605be000404be006700370036
:106648000e38a3001e003a00b8a79f00c9a79f00f4
:10665800daa79f00eba79f009fb4970011003700af
:106668003c0090000068a300070032000d0178008c
:10667800010220000c00780046fd07000000e00041
:1066880006003a00060037008c007800000220005f
:1066980011030700e10f4000010032008d06e800f9
:1066a8008904e9000900e000edff3c0099b79f006c
:1066b8003fa49700cfa497005fa59700efa5970088
:1066c800610167000e18a3000e0032003c00900024
:1066d8000068a30005003200b10220000200e000bb
:1066e800250032008180e80023003700b002200036
:1066f8000200e000010032000080e8008c00780011
:10670800320037000200e000340032003c00900004
:106718000068a300030032000d0178000102200088
:10672800160037008c007800000220002700370090
:106738003c0190008100fb0020b921000268a30001
:1067480013003200c308dd00010040003002be0023
:106758002003be000800be000a01be00e2f80700e0
:10676800a4002000050020006033b800e5f8070009
:1067780001032000808040000d0178000c007800a3
:1067880004fd07000000e00013003a001300370082
:10679800c308dd00010040003002be002003be0037
:1067a8000800be000a01be00cff80700a4002000c0
:1067b800050020006033b800d2f80700020320006b
:1067c800000141008c00780002007800c202070036
:1067d800e10f4000010032008d06e8002f7097009d
:1067e8008040e900a1779f000004e000d0ff3a0054
:1067f800130037003c0090000068a3000700320037
:106808000d017800010320000c007800e1fc07006e
:106818000000e00006003a00060037008c0078000f
:1068280000032000ac020700e10f40000100320025
:106838008d06e8003f9897000000e900b09f9f0090
:106848003f9897000000e000eaff3c00dfa89700af
:10685800f28f50000300340020c1b300a0779f00de
:10686800020037002fd99700a2779f002f7097005a
:106878008000fb00dfa9970081805100d1af9f0005
:106888000004e000100032003c0090000068a30003
:10689800070032000d017800e10220000c007800aa
:1068a800bcfc07000000e00006003a0006003700c4
:1068b8008c007800e002200087020700e10f40000a
:1068c800010032008d06e8002f7097004ffc07008a
:1068d8000002be000203be001fa89700afa89700e1
:1068e8003fa99700cfa99700f50407007b0407008c
:1068f800330037003c01900021b921000000fb0063
:106908000268a300130032004300dd00008040004d
:106918003002be002003be000800be000a01be000f
:1069280071f80700a4002000050020006033b800bb
:1069380074f807000003b0000d01780080007800ab
:106948000c00780093fc07000000e00011003a00fa
:10695800110037004300dd00008040003002be0017
:106968002003be000800be000a01be005ef8070052
:10697800a4002000050020006033b80061f807007b
:106988000003b0008c00780053020700e10f4000bc
:10699800010032008d06e8002f7297000400fb000a
:1069a8004300dd0021b92100008040003002be0014
:1069b8002003be000800be000a01be0051f807000f
:1069c8000205be000004be00af7097000140e90058
:1069d800a0779f000104e000c6ff3a0098af9f002f
:1069e800a9af9f00baaf9f00cbaf9f00dfac970065
:1069f800110037003c0090000068a3000700320037
:106a08000d017800010320000c00780061fc0700ec
:106a18000000e00006003a00060037008c0078000d
:106a2800000320002c020700e10f400001003200a3
:106a38008d06e8008904e9000900e000edff3a004e
:106a48001fac9700afac97003fad9700cfad970054
:106a58000e38a300140232009fb097000100e00036
:106a680011023400d8af9f00e9af9f00faaf9f0032
:106a78008bb79f00810478003c0090000068a30059
:106a8800070032000d017800010220000c00780098
:106a980040fc07000000e00006003a00060037004e
:106aa8008c007800000220000b020700e10f400074
:106ab800010032008d06e8008904e900eeff3a0083
:106ac800f90137000e007800000cb20021003a00ee
:106ad8000e00e00005003d008faa97004505be00a6
:106ae8004504be0085af9f000d0037000e48a30087
:106af800060032000fab97004604be0086af9f0029
:106b08004fcdde008a057800050037008fab97006f
:106b18004704780087af9f00cfc4de00614db900fd
:106b2800e00f5400e08f5c00e00f5d00e08f5d0037
:106b38001b003d003e00b3006000b8006011b800c3
:106b480008045000898458000a0559008b855900ab
:106b5800130037000e00e00005003d000fa8970065
:106b68004005be004004be0080af9f000c00370007
:106b78000e48a300050032008fa897004104be000c
:106b88006055b80081af9f00050037000fa9970036
:106b98004204780082af9f008004eb006055b80083
:106ba800dfa997000300e00009003a001400200064
:106bb800d4af9f00e00f5400e08f5c00e00f5d0051
:106bc800e08f5d00020032008002eb00d5af9f002d
:106bd8000e037800060cb20096af9f000004200058
:106be800800f53002c00320003003c000600e00038
:106bf800080032003c003700000820009fab9700d7
:106c0800808f530010003200000c2000808f53004a
:106c180035003a00a5b9210014c0b3003500be0004
:106c28003501be000040e10001c8e10002d0e100ea
:106c380003d8e1002b0039000442e800f44f520069
:106c4800f6ff3a002700370014c0b3000001200007
:106c5800010020006011b8000040e10001c8e10017
:106c680002d0e10003d8e1001e00390045002000f1
:106c78000000d0008180d2000281d2008381d2003e
:106c88008502e900faff3a000442e800f04f52009a
:106c9800f1ff3a001300370014c0b3008000200051
:106ca800010020006011b8000040e10001c8e100c7
:106cb80002d0e10003d8e1000a00390036002000c4
:106cc8000000d0008180d2000281d2008381d200ee
:106cd8000603e900faff3a000442e800f54f5200c3
:106ce800f1ff3a00a4779f00af7397000700fb00fd
:106cf800dfa89700810f500002003d00a1779f0098
:106d0800040037005fa99700800f510001003d0083
:106d1800d0af9f009fb197000300e000040032004d
:106d280063006700020032008301e90093b79f0007
:106d38000ee8a300090032001fb29700dfaa9700ef
:106d4800850f5200030034000502520094b79f00db
:106d5800020037000003eb0096b79f00af7397005f
:106d68000700fb008000eb00b1a79f001fb1970050
:106d7800800f51000200340000005100b0a79f00ae
:106d88000e28a30044003200610167000e18a3001a
:106d98000f0032003c0090000068a300060032009b
:106da800b10220000200e000010032008180e8000a
:106db8000d0178000d003700b00220000200e0004d
:106dc800010032000080e8008c0078000e003700d7
:106dd8000200e000100032003c0090000068a300b0
:106de800070032000d017800010220000c00780035
:106df80068fb07000000e00006003a0006003700c4
:106e08008c0078000002200033010700e10f4000e9
:106e1800010032008d06e800bfa197000300e000e2
:106e28006200320098b79f00a9b79f00bab79f00c9
:106e3800cbb79f00830478003c0090000068a30053
:106e4800070032000d017800010320000c007800d3
:106e580050fb07000000e00006003a00060037007b
:106e68008c007800000320001b010700e10f4000a0
:106e7800010032008d06e8008904e900eeff3a00bf
:106e8800b9a79f001fb49700afb497003fb597000c
:106e9800cfb5970045003700bfa297000500e00076
:106ea8001e0032000e38a3001c003a0098b79f005d
:106eb800a9b79f00bab79f00cbb79f008504780099
:106ec8003c0090000068a300070032000d01780024
:106ed800010220000c0078002efb07000000e000f3
:106ee80006003a00060037008c00780000022000f7
:106ef800f9000700e10f4000010032008d06e800ac
:106f08008904e900eeff3a00b9a79f001fb4970073
:106f1800afb497003fb59700cfb597006101670000
:106f28000e18a3000f0032003c0090000068a30078
:106f380006003200b10220000200e0000100320029
:106f48008180e8000d0178000d003700b0022000b4
:106f58000200e000010032000080e8008c007800a8
:106f68000e0037000200e000100032003c009000e4
:106f78000068a300070032000d017800010220001c
:106f88000c00780003fb07000000e00006003a0050
:106f9800060037008c00780000022000ce000700b1
:106fa800e10f4000010032008d06e800dfa89700dd
:106fb8000100e9004201dd00d29f9f006301b90092
:106fc80002027800c49f9f004300dd0021b9210020
:106fd80081004000e19f9f0098b79f00a9b79f00dc
:106fe800bab79f00cbb79f0094003700dfa897007f
:106ff8008100e900d1af9f00000420001fa997007d
:10700800800f51006400320003003c000200e000e1
:10701800080032006f003700000820009fa9970081
:10702800808f510048003200000c2000808f5100f2
:1070380068003a000e00e0001a003d006f9a9700c1
:107048003404be002405be000802be000a03be00c8
:107058001fb09700afb097003fb19700cfb197002e
:10706800a1f60700a0779f000000fb00cf80de009c
:107078006109b9000802be000a03be0003f7070051
:107088001fb29700afb297003fb39700cfb39700f6
:107098000002520081825a0002035b0083835b0076
:1070a800170037000e48a3001a0032001fb29700dd
:1070b800afb297006f9b97003604be002605be004e
:1070c8000801be000400be00f4b79f0085bf9f0002
:1070d800dcf50700a0779f000000fb00cf80de00f2
:1070e8000801be006d0307007fb297008fba9700b2
:1070f8000000520081805a000002be006033b800d0
:1071080094b79f00a5b79f00b6b79f00c7b79f0069
:1071180009003700ef9a9700150178001fb3970010
:10712800110009000283d800a20020001100090004
:107138000280d800a1779f00af7397000743b00083
:10714800a7779f002300370090b721000e58a300af
:107158000100320080b621001fb29700afb297003d
:107168003fb39700cfb39700df9897008100e900fd
:10717800050033008703d1000683d3008582d3003e
:107188000482d300f9ff37006f02620060427a0080
:10719800a4779f000f0037001fb09700afb097008b
:1071a8003fb19700cfb197004f9a97000402e900ca
:1071b800050033008301d1000281d3008180d30010
:1071c8000080d300f9ff3700674060000043b0003b
:1071d800a0779f00bc009000af7297000500fb00ed
:1071e8000168a300070032000d01780080007800d4
:1071f8000c00780067fa07000000e00005003a007c
:10720800050037008c00780033000700e10f4000cc
:10721800010032008d06e8005f9b9700640353006d
:10722800d69f9f00cf9b9700e3835300c79f9f0083
:107238006f98970068005000e09f9f00dfa89700b4
:107248000100e00069ff3a000e38a3001600320082
:107258003fa197000200e000130034000207780005
:107268003c0090000068a300070032000d01780080
:10727800010220000c00780046fa07000000e00038
:1072880006003a00060037008c0078000002200053
:1072980011000700e10f4000010032008d06e800f0
:1072a8000e07e900eeff3a00ffa1970013407800af
:1072b800a0779f000004e0004ffa3a000d00780024
:1072c8004f0778004f06be004f05be004f04be00b2
:1072d8002f04b10000000600889fbe00010478005a
:1072e800b80090008084eb000118a3003a00320037
:1072f800180190000198a30002003a000200e00083
:1073080035003a000190a00031049800800478000c
:10731800f90fb2000200e00002003a0028009000d5
:10732800000c7800ea8f540005003a000178a300a9
:1073380003003a0088007800d0002000e6ff07002c
:1073480018009000d8009000810f50000b00320008
:107358000000e80010049800180078000948780038
:10736800000ce80011c0b30040d3210001487800a8
:10737800ea8f540018003a000500370088007800aa
:10738800094078004a00070080047800120037009e
:10739800380090000088a3000f0032001801900008
:1073a800a8009000480090009cf307009800900007
:1073b800810f500004003200380090000003b30031
:1073c800300498008084eb000000eb001004980063
:1073d80028009000000c7800090078004f04be00d7
:1073e80000000600889fbe008a1f7800010578000b
:1073f800800478000004eb00010037000804e8006e
:10740800b94078000104e000050032008100fb006b
:107418000a007800190007000000e000f7ff3200ba
:10742800080078004f0578004f04be0000000600f1
:10743800889fbe008a1f78000105780080047800c4
:107448000004eb00010037000804e800b9407800a8
:107458000104e000050032008100fb000a0078000a
:10746800060007000000e000f7ff3a000800780077
:107478004f0578004f04be00000006000001eb0035
:107488006103b8006112b8008601420066427a00c2
:10749800814f5200040032000201e8000404e000b9
:1074a800f7ff3a008001eb000300780000000600b7
:1074b8000200fa00889fbe00a0ff9f000104780028
:1074c800380090000068a30033003a00e200600032
:1074d80005003a000003b300300498001104980036
:1074e8000080eb002e003700d80490000900e0006f
:1074f80006003a0012002000e6805700480090007d
:1075080046f307001904980023003700a8009000ec
:107518000100e00008003a0071d32100210498001e
:10752800010c7800210020005104980011049800f3
:107538000030a0003004980018019000a8009000c6
:107548004800900035f30700280090008080eb0089
:1075580011049800aff8970001487800000ce80083
:107568002ff89700ea4f50000b003a0038009000bf
:107578000088a3000800320018019000a8009000bd
:107588004800900025f307000000eb001004980065
:10759800a8009000010c7800aff897000100fb00ec
:1075a8004f04be000080fa000000060000c0da00a8
:1075b800000006002800fa00889fbe008a9fbe00cf
:1075c8008c9fbe0007067800878669000c003b0088
:1075d800030478008704780008f0a10009f0a100ee
:1075e800840f5000858f5800860f5900890f5c0062
:1075f800030033000cf0a20001003a000cf0a100d7
:10760800fe0007006400e1005f00320078014700d7
:107618006408e100610032006c014700748557007e
:107628003200be001201be003a04be001a05be00b8
:107638001e039000be0a90008503530006003d001b
:107648000004fd008104fd000205fd008305fd0026
:107658008703ea00050378000df8a3000400320050
:1076680060041400e0841c0060051d00e0851d0016
:107678006022b8007d0320000d38e1008006eb0091
:107688000b0039004433dd00f300b20083017300be
:1076980039003700848272000d027800e106640028
:1076a8008b85d1000a85d3008984d3000884d30050
:1076b8008703e900f7ff3b00080040008980480085
:1076c8000a0149008b81490004003b00600010005a
:1076d800e080180060011900e08119000358a30038
:1076e800090032008d82720084827200610260009b
:1076f8008301d1000281d3008180d3000080d300b0
:107708000603e8001b0037000348a30017003a00ef
:107718000600e000170034000603e9000d00a3008e
:107728000000480081804800020149008381490027
:107738000348a3000f003a000600e00009003400e7
:107748000603e9000000400081804800020149006a
:107758008381490001003a000003eb000348a300bd
:10776800f5ff32006022b800020037008482720000
:10777800618266007500070003f0a1000cf0a70005
:1077880003f0a000b1003700640147006408e1007d
:1077980002003a000df8a300a9003a003200be002a
:1077a8001201be00a90037008f1fd100c1010700d8
:1077b8008f87e9000000e00000000600809feb00d2
:1077c800bc0107008f87e9000000e0000000060008
:1077d8002800fa00889fbe008a9fbe008c9fbe00ca
:1077e80003866b00850007006400e1004400320056
:1077f8006408e1004a0032006100e10046003200fe
:107808006108e10049003200ec0647006000b8005a
:107818003d02be003d03be00f48657006011b8006b
:107828003d04be003d05be007d0320000b0037006f
:107838000000a0008d06e900130032000402420097
:1078480085824a0006034b0087834b0000004000f6
:1078580081804800020149008381490008025200e2
:1078680089825a000a035b008b835b00f0ff3b00b0
:107878000802420089824a000a034b008b834b00ae
:107888008d06e900edff3a0084827200868272005c
:10789800f707b2008782720001003200150020004d
:1078a8001e0490003e0b900006035400e63fb00013
:1078b8000368a300070032000000a7000500a0002d
:1078c8008301d1000281d3008180d3000080d300de
:1078d8000603e8008301d1000281d3008180d30030
:1078e8000080d3000002eb000482d20017000700da
:1078f80003f0a1000cf0a70003f0a000530037002c
:10790800640247006408e1004d0032003400be0004
:107918003401be00f6ff37006108e100480032007c
:107928006011b8006000b800f1ff370003ff2700be
:1079380002002000fbff3700801feb005d010700fd
:107948008f87e9000000e000000006001800200012
:1079580057002000080453000d003d0006002000d9
:1079680097fc2f000740e1001e003400848272005b
:10797800610260008301d1000281d3008180d300bd
:107988000080d3000804e800f8ff3a004700200010
:107998006104600005047400040464000d003200f2
:1079a80061004000e080480060014900e081490032
:1079b80003b8a500070032000603e8006538e100b7
:1079c80004003a008301d1000281d3008180d300f2
:1079d8000080d300f87f20000830e1000300350064
:1079e800080378006000b8006011b8004433dd0077
:1079f800f300b2008301730000000600680447002a
:107a08000294be000094be00fc0447008694be00a9
:107a18008494be00090078006f0107000800780010
:107a28006d01070099007800814f70000b003b0042
:107a38000800be00480107004f00b10003003700ee
:107a4800f3ff2700f2ff2f006110b9004f06be00b8
:107a58004f05be004f04be000080fa00000006007b
:107a68008103780014f307000001be006000b8002d
:107a78000478a30013003a006220e10015003e00dc
:107a88000d0039008301d1000281d3008180d30029
:107a98008301d1000281d3008180d3008301d1000a
:107aa8000281d3008180d3000538b000c42add00ec
:107ab800f300b2008381720007f0a70003f0a00072
:107ac80000000600f3ff2700f2ff2f006110b90045
:107ad800fbff370003ff2700f7ff37001400fa0009
:107ae800889fbe008a9fbe008c9fbe000004be0017
:107af8000205be00680047000a90be000890be005c
:107b0800350107000070a7000bf0a1000bf8a300d7
:107b180020003a009e0990000e099000fe00900097
:107b28006e0090009e029000344320008482520030
:107b3800c6ff32000a003c00b4fc2f000428e10014
:107b4800140034008301d1000281d3008180d30066
:107b58000080d3008502e800faff3a00bbff370037
:107b6800b40020000428e10007003c0000004000a9
:107b78008180480002014900838149008502e900ab
:107b8800faff3a00b1ff3700030028000200200086
:107b9800010037006011b8006000b800abff370083
:107ba800889fbe0000827000040271000482710088
:107bb8002400320036432000c50020008383cf0014
:107bc8000a0039000541b1008283cf00070039005f
:107bd8000541b1008183cf00040039000541b1009f
:107be8008083cf00010039000541b10085c35300ef
:107bf8006022b800120032000a003b008482720042
:107c0800610260008301d1000281d3008180d3002a
:107c18000080d3000603e8008743e800f7ff3a0036
:107c28000700370000004000818048000201490039
:107c3800838149000603e9008743e900f9ff3a0018
:107c480042ff07004f04be00000006001400fa00bf
:107c5800889fbe008a9fbe008c9fbe0004067800e5
:107c68000004be000205be00680047000a90be007e
:107c78000890be00d80007006200e1000800be00be
:107c88000a01be00040020000b003a001e0290000a
:107c9800e43fb1006e009000fe0090000e099000d5
:107ca8009e099000f300b20005fe23008581710053
:107cb8000bf0a70003f0a000040e780063ff370064
:107cc8002800fa00889fbe008a9fbe008c9fbe00d5
:107cd80003866b0049ff07000028a30064003a00f0
:107ce8000128a30067003a000008a30062003a00d8
:107cf8000108a30065003a001e009000be0890002d
:107d080081064000ed3fb100f4805700ee0190007d
:107d1800111ab8008e099000311bb8009e09900016
:107d2800311cb800511db800f48557004600070003
:107d3800fe0190003a0007008b85e8003e0007002e
:107d48008e09900040000700ee0190003400070003
:107d58008b85e800380007008e0990004000070076
:107d68009e0990001b18b800890440000a85480045
:107d7800fe019000340007008b85e80038000700fa
:107d8800ee019000300007008e0990001b18b80023
:107d9800890440000a8548000a98a30008003a00b0
:107da8000402420085824a0006034b0087834b0089
:107db80008044c0089844c000a054d008d06e90032
:107dc80084827200850273004c3add0085027200dd
:107dd8000100320015002000443ade001400b20011
:107de8004538de00cb45dd000b007000c540de00e5
:107df800cb4ddd008b8070004549de00cb55dd00a2
:107e08000b017100c551de000d037800cffe07009d
:107e180003f0a1000cf0a70003f0a0000bff37004f
:107e28001b18b8008502400006834800e0834b0019
:107e380060044c00070037001b18b8000603400018
:107e480087834800faff37001b18b80087034000f3
:107e580008844800e0844c0060054d0000000600de
:107e68001b18b8000804400089844800faff37004e
:107e78000108a300f2fe3a005800be005801be00f7
:107e8800e3ff37000008a300edfe3a00090478007c
:107e9800f9ff370007f0a200c6fd3700020ab90053
:107ea800001bb9000200b8008100420081004300b5
:107eb80000000600889fbe008a9fbe008c9fbe00ff
:107ec8000404be000605be00809fbe00829fbe005f
:107ed8002f000700040678000800be000a01be0053
:107ee8002b000700840678004f03be004f02be0037
:107ef8008d4f76007fb0970013003300f0ff2f00fe
:107f08008b8f6b0006003b000d0666000c00a70077
:107f18000a00370007f0a600100020000a0037000a
:107f2800880f5200898f5a008a0f5b008b8f5b0085
:107f3800030039001000200001003e00000020006e
:107f480007f0a7000000ea004f06be004f05be007c
:107f58004f04be0000000600e48240001078a30031
:107f680007003200640240001178a3003400be000c
:107f78001401be00040032000330a7000000060010
:107f88003500be001501be000330a0000000060049
:107f980005ff270005826100070032000428e10080
:107fa80001003200240005000600070001003a0025
:107fb800440005000408050002000700f9ff3a0024
:107fc800140005006f826100810270008502710053
:107fd8008502720000000600800078005002be0092
:107fe8005003be004439de00f700b200f37f2000e2
:107ff80003016100090032000218e10016003a008e
:1080080085017200830173008381730000082000da
:1080180015003a0040002000130037008501720067
:10802800830173008381730005003a0004a8be0031
:1080380006a8be00100020000b0037000201e9006e
:108048000402420085824a0006034b0087834b00e6
:108058000748a300f9ff32000740a00004a8be00ab
:1080680006a8be002000200080009800920098001a
:0480780000000600fe
:020000040000fa
:10807c004a6100006e200000203900002032000010
:10808c003031000037000000323100003a3200007d
:10809c00363a000030370000004c00004f4700001b
:1080ac00204200004154000020660000756c000066
:1080bc006c790000206300006861000072670000aa
:1080cc0065640000004c00004f4700002042000097
:1080dc0041540000206300006861000072670000da
:1080ec00696e0000670000004c4f00004720000044
:1080fc004c6f000077200000766f00006c7400005d
:10810c0061670000650000004c4f00004720000034
:10811c00414400004a0000004c4f00004720000082
:10812c00540000004c4f0000472000007278000003
:10813c006c2000006f76000065720000666c000019
:10814c006f770000004c00004f47000020720000c9
:10815c00786e0000206f00007665000072660000eb
:10816c006c6f00007720000025780000004c0000a8
:10817c004f4700002057000054460000004c000000
:10818c004f470000203c00002d2d0000202800004f
:10819c006c6500006e20000025690000292000009d
:1081ac0025730000004100004f4b0000004e000002
:1081bc0046610000696c0000004300006f6e000017
:1081cc006e650000637400006564000000430000ed
:1081dc006f6e00006e65000063740000696f000034
:1081ec006e200000456e0000640000005743000044
:1081fc00004c00004f4700002052000058000000c7
:10820c004c4f0000472000002d2d00002d2d0000ac
:10821c002d2d00002d2d00002d2d00002d2d0000ea
:10822c002d0000004c4f000047200000426f000062
:10823c006f740000204f00004b0000004c4f0000fa
:10824c0047200000496e000069740000524e000087
:10825c003430000032300000004c00004f4700006a
:10826c00204900006e690000745200004e3400007a
:10827c003032000030200000666900006e6900009a
:10828c007368000065640000004c00004f4700005c
:10829c002056000020730000656e00007400000082
:1082ac00560000004c4f000047200000524e0000ca
:1082bc00343000003230000020760000657200007f
:1082cc00736900006f6e0000202500007300000031
:1082dc004d4300004850000020420000544c000068
:1082ec0045200000763100002e310000302e0000b9
:1082fc003039000020300000362f000030390000eb
:10830c002f32000030310000340000004d430000db
:10831c004850000020420000544c00004520000052
:10832c00763100002e320000302000003132000087
:10833c002f300000392f00003230000031340000a3
:10834c00004c00004f470000205200004e3400004b
:10835c0030320000302000006e65000065640000c3
:10836c0073200000757000006772000061640000eb
:10837c00652000003d3d00003d3d00003d3d0000fe
:10838c003d3d00003d3d00003d3d00003d3d0000f9
:10839c003d3d00003d3d00003d3d00003d3d0000e9
:1083ac003d3d00003d3d00003d3d00003d3d0000d9
:1083bc003d3d00003d0000004c4f000047200000f8
:1083cc0025730000004300004d440000004c0000e9
:1083dc004f470000205500007067000072610000dc
:1083ec0064650000204f00004b2000002d2d000084
