:020000040000fa
:080000000c20040000000000c8
:020000040000fa
:1000080004180000081800000c1800001018000060
:1000180014180000bc180000bc180000bc18000030
:10002800181800001c1800002018000024180000f0
:10003800bc180000281800002c1800003018000018
:1000480034180000381800003c1800004018000060
:100058004418000048180000bc180000bc18000034
:100068004c180000501800005418000058180000e0
:100078005c180000bc180000bc180000bc18000088
:10008800bc18000060180000641800006818000020
:100098006c18000070180000741800007818000030
:1000a8007c18000080180000bc180000bc18000074
:1000b800bc18000084180000881800008c18000084
:1000c800bc18000090180000bc180000bc18000004
:1000d800bc18000094180000bc180000bc180000f0
:1000e800bc180000981800009c180000bc180000fc
:1000f800bc180000bc180000bc180000bc180000a8
:10010800bc180000bc180000bc180000bc18000097
:10011800bc180000bc180000a0180000bc180000a3
:10012800bc180000a4180000a8180000ac180000b3
:10013800bc180000bc180000bc180000bc18000067
:10014800b0180000bc180000bc180000bc18000063
:10015800bc180000b4180000bc180000bc1800004f
:10016800bc180000bc180000bc180000bc18000037
:10017800bc180000bc180000b8180000bc1800002b
:10018800bc180000bc180000bc180000bc18000017
:10019800bc180000bc180000bc180000bc18000007
:1001a800bc180000bc180000bc180000bc180000f7
:1001b800bc180000bc180000bc180000bc180000e7
:1001c800bc180000bc180000bc180000bc180000d7
:1001d800bc180000bc180000bc180000bc180000c7
:1001e800bc180000bc180000bc180000bc180000b7
:0801f800bc180000bc18000057
:020000040000fa
:103000000c20040000000000e42d0400000000007b
:10301000e42d040000000000e42d04000000000086
:10302000e42d040000000000e42d04000000000076
:10303000e42d040000000000e42d04000000000066
:10304000e42d040000000000aa200400000000009d
:10305000e42d040000000000e42d04000000000046
:1030600002220400000000005c9104000000000047
:10307000e42d040000000000e42d04000000000026
:10308000e42d040000000000e42d04000000000016
:103090004e23040000000000e42d040000000000a6
:1030a000e42d040000000000e42d040000000000f6
:1030b000e42d040000000000e42d040000000000e6
:1030c000e42d040000000000e42d040000000000d6
:1030d000e42d040000000000e42d040000000000c6
:1030e000e42d04000000000056220400000000004f
:1030f0004623040000000000e42d0400000000004e
:10310000e42d040000000000e42d04000000000095
:10311000e42d040000000000e42d04000000000085
:10312000e42d040000000000e42d04000000000075
:10313000e42d040000000000e42d04000000000065
:103140003a22040000000000e42d0400000000000a
:10315000e42d040000000000e42d04000000000045
:10316000e42d040000000000e42d04000000000035
:103170008061040000000000e42d04000000000055
:020000040000fa
:103180000000fa005f2d07000080fa000000060032
:103190000e00fa006000b800008fbe0000002000a2
:1031a000010420002007980031079800c200200089
:1031b000a1102e00204b2100da0c0700204b21002b
:1031c000702507002e009000be0090003e014000d8
:1031d000ae8148000200be004007980051079800e9
:1031e0006c00470013002000000178004e009000a2
:1031f000de009000840007004e489000e14f400040
:10320000030032004e019000de019000028fbe00ec
:103210002e019000be01900000102000010020004f
:10322000800f5100818f590003003a001e00be003c
:103230000080fa00000006002e009000be00900002
:103240008100d1000080d30020079800310798004a
:10325000dcff37000000fa00000a20000100200017
:103260003f030700c322a800000a2000010020003d
:103270003b030700c322a900000a20000100200030
:10328000370307000080fa00000006000000fa0083
:10329000000a20000100200031030700c322a8001b
:1032a0000080fa00000006000200fa00004f7800db
:1032b0001e00fb0040128800000000000012800089
:1032c000610060000000e000fcff3200401280005e
:1032d000004f78001e4078000080fa0000000600d1
:1032e0000000fa007201200061112e00204b210025
:1032f0008c0c0700204b210022250700d5ff07007a
:10330000b0cab300e8ff0700e0ff07000064200038
:1033100001002000120307000080fa0000000600f0
:103320000000fa0002012000d1122e00204b2100e3
:103330007c0c0700204b210012250700c5ff070069
:1033400060c6b300d8ff070090c9b300d6ff0700de
:10335000ceff0700006420000100200000030700ea
:103360000080fa00000006000e00fa003007980006
:10337000410798005207980063079800670007000c
:103380006600470010079800b2ff070020c0b30096
:10339000c5ff07001e0090000080e8001040780084
:1033a000c1ff07001e0090000000e80010407800f8
:1033b000bdff07001e00900010407800baff070014
:1033c0000000eb00000f7800070037001e007800b7
:1033d000de0090000080400010407800b2ff07003f
:1033e000404798001e0fe8009e0078006e00900095
:1033f000808f5000f5ff3900a4ff07005b00070035
:103400000080fa00000006000e00fa003007980065
:103410004107980052079800630798000000eb00ee
:10342000000f7800660047001007980089ff07002a
:1034300030c0b3009cff07001e0090000080e80031
:103440001040780098ff07001e0090000000e80080
:103450001040780094ff07001e0090001040780094
:1034600091ff07000000eb00000f78000900370013
:103470000040eb008cff0700404798001e007800da
:10348000de00900000804000ce40900001487800af
:103490001e0fe8006e0090009e007800808f5000a4
:1034a000f3ff350079ff0700300007000080fa00c5
:1034b000000006000600fa00100798002107980097
:1034c00064ff070000c9b30077ff07000040eb006e
:1034d00075ff0700004f78000040eb0072ff070007
:1034e000004f78000040eb006fff0700004f7800ae
:1034f0000040eb006cff07009e00900080487800c1
:103500000040eb0068ff0700ae00900080487800a4
:103510005eff07000080fa00000006000200fa00cb
:103520004cff070060c0b3005fff070057ff0700b4
:10353000200007000080fb00000f78009e0078004c
:10354000628060000000e00006003a006201200096
:10355000d1132e00204b2100f20b0700204b21003d
:10356000882407000080fa00000006000200fa002c
:103570000000eb00000f7800050037000064200019
:10358000010020007602070010002000000f7800e4
:10359000080007000080fb00610060000040780028
:1035a0000004e000f5ff3a001e0078000080fa00f9
:1035b000000006000200fa0026ff070050c0b3001a
:1035c00039ff07000040eb0037ff0700004f78008d
:1035d0002eff07001e4078000080fa000000060061
:1035e0000200fa001bff070050c3b3002eff0700c4
:1035f0000040eb002cff0700004f780023ff07007e
:103600001e4078000080fa00000006000200fa0068
:1036100010ff070030c3b30023ff07000040eb009a
:1036200021ff0700004f780018ff07001e407800b8
:103630000080fa00000006000400fa00004f780045
:103640001147980022479800b4ff070001ff0700c8
:1036500010c0b30014ff07001e40780012ff0700df
:103660001e40900010ff07002e4090000eff070044
:1036700006ff0700bdff07000080fa0000000600fb
:103680000400fa00cbff0700004f7800d4ff0700ca
:1036900010479800ddff070020479800c0c6b30020
:1036a000004f78002e4190009e4090001e40780010
:1036b000e1ff07000080fa00000006000400fa00a5
:1036c000bcff0700004f7800c5ff070010479800b7
:1036d000ceff0700204798000040eb00004f780025
:1036e0002e4190009e4090001e407800d2ff0700bf
:1036f0000080fa00000006000600fa00100798009b
:103700002107980085ff07000e8fe800d1fe070013
:1037100080cdb300e4fe07001e80e8001040780072
:10372000e1fe07001e00e80010407800defe070002
:103730001e00780010407800dbfe0700d3fe070073
:103740008aff07000080fa00000006000600fa0069
:10375000100798002107980070ff07000e8fe800ff
:10376000bcfe070000c2b300cffe07001e80e800c9
:1037700010407800ccfe07001e00e80010407800e2
:10378000c9fe07001e00780010407800c6fe070042
:10379000befe070075ff07000080fa00000006006b
:1037a0000000fa0071ff0700c4ff07005bff07007d
:1037b000a8fe070000c6b300bbfe0700b3fe07006b
:1037c0006aff07000080fa00000006000000fa000f
:1037d00078ff07000080fb006100600000f0a70098
:1037e0000000ea000000e9004f00de000080fa005f
:1037f000000006000200fa00000a2000010020007c
:10380000d7010700c302a800000a20000100200021
:10381000d3010700c302a900000a20000100200014
:10382000cf010700f0c8b300004f78001e407800b9
:103830009dfe07000040eb009bfe0700104798002c
:10384000000a200001002000c5010700c302a800f3
:103850001e4090000080fa00000006000000fa0000
:10386000000a200001002000bd010700c302a800db
:10387000000a200001002000b9010700c302a900ce
:10388000000a200001002000b501070000102700f9
:1038900021002000b201070000c2b30082fe070031
:1038a00070c2b30080fe0700000a20000100200063
:1038b000ab010700c302a8000080fa000000060068
:1038c0000000fa00000a200001002000a401070007
:1038d000c302a800000a200001002000a001070088
:1038e000c302a900000a2000010020009c0107007b
:1038f00000102700210020009901070010c2b3002a
:1039000069fe070080c0b30067fe0700000a2000c0
:103910000100200092010700c302a8000080fa0005
:10392000000006000000fa00000a2000010020004c
:103930008b010700c302a800000a2000010020003c
:1039400087010700c302a900000a2000010020002f
:1039500083010700001027002100200080010700dc
:1039600030c2b30050fe070080c0b3004efe070017
:10397000000a20000100200079010700c302a8000e
:103980000080fa00000006000800fa00881f780096
:10399000000a20000100200071010700c302a800f6
:1039a000000a2000010020006d010700c302a900e9
:1039b000000a2000010020006901070080ceb3004a
:1039c00039fe07000e84e8000040eb0036fe0700d9
:1039d000004c78000e80e8000004e8000040eb0096
:1039e00031fe0700004c7800640447000040eb0003
:1039f0002dfe0700004c7800640047000004e8003a
:103a00000040eb0028fe0700004c780066044700e9
:103a10000040eb0024fe0700004c780066004700e1
:103a20000004e8000040eb001ffe0700004c780097
:103a30009e009000000220000001780011000900a3
:103a40008200d80010079800ae009000000220000d
:103a500000017800110009008200d80020079800ba
:103a6000be00900000022000000178001100090053
:103a70008200d800300798009e0090002e00900031
:103a8000808040003e009000008f40001e007800c3
:103a90000000e00001003d001e0fea00a00f200022
:103aa0009e007800808f500002003400a00f20009c
:103ab000000f7800000a2000010020002801070004
:103ac000c302a8001e0078004f0478000080fa00ae
:043ad00000000600ec
:020000040000fa
:103ad4000000fa0080478000904788000080fa00c8
:103ae400000006000e00fa00100798002107980055
:103af4003407980045079800560798006707980010
:103b0400804780008000e800200320000001780046
:103b1400110009008280d8008000fd00000f7800a9
:103b24009e00780090478000808f500002003a0089
:103b34000000eb001400370080478000c200dd0065
:103b4400408c2100008040001e029000ae029000d4
:103b54000488be0080478000c19821004300dd0036
:103b6400008040003e029000ce0290005e03900070
:103b7400ee0390000498be000690be001e0078007c
:103b840080478800100020000080fa000000060032
:103b94000400fa00000f7800110798009147800094
:103ba40080478000808f500002003a000000eb0044
:103bb4001900370090478000c200dd00408c2100ce
:103bc400008040001000be001e0178000089be0085
:103bd400904780004300dd00c19821000080400030
:103be4005001be004000be001e029000009abe00bc
:103bf4000292be00904780008000e800200320006d
:103c040000017800110009008280d8008000fd00c6
:103c140090478800100020000080fa000000060091
:103c24000800fa0030079800501680006800600011
:103c34000000e000020032000000eb004300370007
:103c4400d402a9000001200001002000c3000700e5
:103c54006000b80010079800210798000000eb00ee
:103c6400000f780012003700d402a8000000000002
:103c74001e009000ae0090000001400081814800c9
:103c8400501680004300de00614060000080fb00ad
:103c94008000eb0000007100818071001007980023
:103ca40021079800d402a900000000001e0fe800bc
:103cb4001e007800f70f5000ebff3400d402a80078
:103cc4000001200001002000a40007001e01900054
:103cd400ae01900062478800734788001e0190007f
:103ce400ae01900000002000010e200002027800c6
:103cf400030178008001780001007800030262006b
:103d0400000061008000eb00c000dd000000200026
:103d14000001be006120b8000001710081817100c2
:103d2400e00f5100e08f5900030032006000b8003a
:103d340010079800210798003e0090001e01900093
:103d4400ae0190000288be00100020000080fa003e
:103d5400000006001000fa0000402200410f20007d
:103d6400809fbe00e00b2e00801f7800204b2100b6
:103d7400460a0700e6875700204b210080220700ef
:103d84001c0007000100370000000000e8004700a5
:103d9400640047007eff07000000e000faff3200e5
:103da4002e009000be0090004e020700cf80de007f
:103db400008fbe004e009000de0090006e01900067
:103dc400fe0190001e02be00849fbe00809fbe00c4
:103dd400829fbe00000d2e00801f7800204b210022
:103de4002a0a0700ee875700204b210064220700af
:103df400e6ff37000000fa0062012000d10d2e001a
:103e0400204b2100c6090700204b21005c2207003b
:103e1400c842a900d002a900c862a800d402a80020
:103e240000642000010020004c000700cc42a800e0
:103e3400006420000100200048000700cc42a900d3
:103e44000064200001002000440007000080fa0004
:103e5400000006000000fa0072012000310f2e005d
:103e6400204b2100ae090700204b2100442207000b
:103e7400cc42a800006420000100200037000700a5
:083e84000080fa0000000600b6
:020000040000fa
:103e8c000000fa0040248000620060000000e000a6
:103e9c002d003a000145800000022000808f500068
:103eac000d003a00c0478000e10f500017003200af
:103ebc00c1478000b0042000808f500015003200f4
:103ecc00c147800060092000808f5000130036002d
:103edc00f828ef0018003700c0478000e10f5000b1
:103eec0010003200c147800020032000808f50005a
:103efc000e003200c1478000603b2000808f5000d4
:103f0c000c003600f828ef000b0037000000000012
:103f1c000900370000000000070037000000000017
:103f2c00050037000000000003003700000000000f
:103f3c000100370000000000c04780000000e800ce
:103f4c00c047880001003700000000000080fa0024
:043f5c00000006005b
:020000040000fa
:103f6000f03fb1000180b10006003500ee0309000a
:103f700000000000403fb1000180b100fbff3d00a8
:103f80001000b000203fb0000200350000800900a2
:083f9000000000000000060023
:020000040000fa
:1040000046650000622000003131000020320000cf
:08401000303200003100000015
:020000040000fa
:104018000f2322000e7f22000e01880000000000fe
:10402800000020000000e000020032000001200033
:10403800200288000c00070000d2280001002000a0
:1040480011000700000020000000e000020032001c
:104058000000020000000000ee2302000000000043
:104068000040da000000fe004440a90020a820001b
:104078000000e0000300320000002000a0018800da
:104088004440a800000006009101880080007800e4
:104098000000eb0015003700e280400032a0b400b9
:1040a8009101ba00e280400032a0b4009102ba0047
:1040b800e280400032a0b4000002eb00472bde0093
:1040c800f507b200602ce10004003a000059eb004b
:1040d8008301e900fdff3e00040037006128e1008c
:1040e800010032000082eb00040007001101ba0051
:1040f8000200e000e8ff3a00000006003159ba006b
:104108008301e9000c0032002159ba008301e9005b
:10411800080032000400e00003003a00e28040009a
:1041280032a0b400f5ff370011d9ba008301e900c5
:10413800faff3a008100e800e180400032a0b400b4
:104148000000060000000000000000003600f80033
:10415800809fbe00829fbe00849fbe00869fbe00d7
:10416800889fbe003400f80000002000a0018800ed
:104178000400fa008460a900100880000000e8002c
:104188006102b8006033b800608020005001be00b2
:104198004000be000000420081804a0002014b003e
:1041a80083814b0064802000009abe000292be000a
:1041b800a04780008000eb000001be00000028003e
:1041c800010020004e070700000078000000e90009
:1041d8001008880080002000b047880064c8bf002d
:1041e8000004e0007c0032000e0078008bfe07001f
:1041f8000000e0006f0032009828ef00b047800010
:104208000000e00009003a00608020005001be0074
:104218004000be001e04be000203be000002be0035
:104228000800be002efe07006500370082448000ab
:10423800934480001e00be000200400083804800b6
:10424800804488009144880094c8bf000040e8007a
:1042580094e8b700608020003002be002003be0052
:10426800808820005001be004000be000020e10010
:1042780001a8e10002b0e10003b8e10050003900f4
:10428800844480009544800094c8bf000080fb00ef
:104298008000eb000001be000400be00fe0707001e
:1042a800008fbe00b04780008000eb000001be0018
:1042b8000000280001002000110707000002be00ce
:1042c8004fabde0086037800808820005001be00d6
:1042d8004000be000000420081804a0002014b00fd
:1042e80083814b0084882000009abe000292be00a1
:1042f800808820003002be002003be0060802000bd
:104308005001be004000be000020e10001a8e1000d
:1043180002b0e10003b8e1001a0031007201200088
:1043280031c02d00204b21007c080700204b2100c4
:1043380012210700b04780008000eb000001be009a
:104348000000280001002000ed0607000002be0062
:104358004fabde0086037800608020005001be006d
:104368004000be000000420081804a0002014b006c
:1043780083814b0084882000009abe000292be0010
:1043880008003700808820005001be004000be00b1
:104398001e04be000203be000002be000800be00ec
:1043a800cffd07009028ef009228ef009468ef00f7
:1043b80003003700c04480000000e800c0448800c3
:1043c800c144800020032000808f50000200360086
:1043d80087fe07009828ef000080fa003400f900f3
:1043e8004f04be004f03be004f02be004f01be0087
:1043f8004f00be003600f900004006003600f80005
:10440800809fbe00829fbe00849fbe00869fbe0024
:104418003400f80000002000a00188000000fa0025
:1044280084e0a9003000200019380700400020006f
:104438001738070062002000a1c12d00204b210081
:1044480036080700204b2100cc2007000080fa0026
:104458003400f9004f03be004f02be004f01be00fa
:104468004f00be003600f90000400600801f7800ab
:104478003400f80000002000a00188000000fa00c5
:104488008bc0a90023e6a80027e6a80010c0b30047
:1044980024e8b7000080fa003400f9004f007800e3
:1044a800004006003600f800809fbe00829fbe00d4
:1044b800849fbe00869fbe000400fa0095c8bf0016
:1044c8000040e80095e8b7009011800062006000a5
:1044d8000000e000010032003222a90090118000a3
:1044e800640060000000e000010032003242a900d0
:1044f80090118000680060000000e0005400320065
:104508003262a90053003700b0118000204798009c
:104518002e409000ea4f5000060032002e409000d6
:10452800ed4f5000030032002e4090000004e000e0
:1045380023003a00f04080000000e0001e00340034
:1045480001418000f3408000a28f20004006200037
:104558000088b90000007800030040000000410016
:104568008040eb000148780000418000000fe8001f
:104578001e007800fd0f5000020034000000eb0020
:10458800000f7800104180009e007800808f500056
:1045980007003a001201200001c22d00204b210023
:1045a800de070700204b21007420070002003700b7
:1045b8009e007800014188001e28ef002500370082
:1045c80001418000f44080002e419000a38f20001c
:1045d800400620000088b900000078000400400070
:1045e8000080410002487800f04080000000e800a8
:1045f800f0408800f140800030062000808f500095
:104608001400340001418000f04080008001e9007e
:10461800a28f2000400620000088b9000000780022
:1046280003004000000041008040eb000148780092
:104638001201200011c32d00204b2100b7070700ed
:10464800204b21004d2007001e28ef0001003700f5
:104658000000000090118000610060000000e00090
:10466800a9ff3a0087c0a9000080fa004f03be00e6
:104678004f02be004f01be004f00be003600f900d9
:10468800004006000000fa0087e0a9000080fa0058
:10469800004006003600f800809fbe00829fbe00e2
:1046a800849fbe00869fbe000000fa0082002000a2
:1046b80021c42d00204b210098070700204b210022
:1046c8002e2007000080fa004f03be004f02be00f4
:1046d8004f01be004f00be003600f9000040060042
:1046e8001400fa00881f7800000f9800110f980036
:1046f80096c8bf000004e00004003200205b2400dc
:1047080011e02300008fbe0003003700508324000f
:1047180031e02300008fbe0000002500317c24001a
:1047280040079800510798000e0890009e089000d6
:10473800500607000200200003a02400ae05070071
:1047480060079800710798001e01be006e00900077
:10475800fe009000a80507004e019000de019000c1
:10476800a50507000240220043972400960607008b
:10477800200798003107980018c0b30002002000f5
:10478800c33024002e009000be009000ed05070005
:104798000000e00001003c000044eb000804e000d9
:1047a800030032006000b800200798003107980025
:1047b80002002000a34724002e009000be009000b5
:1047c80081060700e10507004f0478000080fa0021
:1047d800000006004200fa00889fbe008a9fbe00c3
:1047e80020c0b3003ee8b70035280700400020008d
:1047f800fd36070000a0260081012000d6fd070035
:10480800400020000d370700a06b210011c1b30044
:1048180001487800b06b210021c2b300014878003c
:10482800c06b210031c3b30001487800d06b210070
:1048380041c4b3000148780030002000ea36070080
:1048480000a0260081012000c3fd070030002000e1
:10485800fa36070002402200430f200000202c00f7
:1048680011002000c526070022012000a1c42d0048
:10487800204b210029070700204b2100bf1f0700fc
:1048880092002000c1c52d00204b210023070700fe
:10489800204b2100b91f070037fa0700d3fb070098
:1048a80031032000810f50000b003a001201200054
:1048b80051c62d00204b210018070700204b21006e
:1048c800ae1f070010c0b30096e8b700e1fb070071
:1048d80012fc0700f8fb070036240700c72707006b
:1048e8000100370000000000608020003002be0098
:1048f8002003be00240f9800350f9800460f98003b
:10490800570f980000a026008101200092fd0700a3
:10491800608020005001be004000be000001be00c3
:104928002e089000be0890000000510081805900b8
:10493800600f9800710f98006e089000fe089000b4
:10494800809fbe0060c72d00801f7800204b21008b
:10495800c60a0700e6875700204b2100871f07007b
:104968006e099000fe09900060662000010020009a
:10497800800f5100818f5900daff360010c0b30054
:104988002028070000a026008101200072fd0700f2
:1049980017fd07004dfc0700b01f07004247a9009c
:1049a80002402200430f200000202c0011002000ac
:1049b800b9260700001027002100200066fd070027
:1049c800f200200001c82d00204b2100d30607006b
:1049d800204b2100691f0700542107000017980089
:1049e8000e1090000000e00028003a00820120002c
:1049f800f1c82d00204b2100c8060700204b2100dc
:104a08005e1f0700b200200071ca2d00204b210054
:104a1800c2060700204b2100581f07002200200073
:104a280021cb2d0060562100bc06070011c0b30041
:104a380060562100fb1e07006a200700d71f0700e9
:104a480080007800e07b2100e3060700e81f0700ec
:104a5800e07b2100801f780040cb2d00801f78006c
:104a6800204b2100810a0700e4875700204b2100d2
:104a7800421f0700a1cc2d00e07b2100cf060700d4
:104a88000000e0000f003200100037008e12900086
:104a9800851f780080ce2d00801f7800204b2100d4
:104aa800720a0700e4875700204b2100331f0700d4
:104ab800581f070000402200410f200026fd070074
:104ac800bfff3700e0062000d0448800b1cf2d009a
:104ad800e07b2100b90607000000e00002003a0070
:104ae80080072000d044880061d12d00e07b2100a0
:104af800b20607000000e00002003a00b0072000fc
:104b0800d044880011d32d00e07b2100ab060700bc
:104b18000000e00002003a0050082000d04488005d
:104b2800c9e2a900cbe2a800cc250700eaf90700f2
:104b3800f9f90700210320008e80400010032000af
:104b48000e00400059fa07001e709000e14f500017
:104b58000a003a002e709000f64f500007003a0005
:104b6800d200200021d52d00204b21006b06070024
:104b7800204b2100011f0700110037002e70900004
:104b88008080fb001e7090000080fb00811f780071
:104b9800801f7800f0d52d00801f7800204b210061
:104ba800320a0700e6875700204b2100f31e070052
:104bb800300020000c360700400020000a360700ad
:104bc800202307000201200031d82d00204b2100ae
:104bd80052060700204b2100e81e0700bd210700f0
:104be800501680004900de00614060000080fb0034
:104bf800801f780030d92d00801f7800204b2100bd
:104c08001a0a0700e4875700204b2100db1e070023
:104c180050052000303b8800a00a2000303b880067
:104c280027a6a800303180000080a0000090a000d6
:104c38003031880000012000203188001010200049
:104c4800203188001010200020318800101020002a
:104c5800203188004cf90700104088002140880066
:104c68001040800021408000809fbe00f0d92d00b8
:104c7800801f7800204b2100fc090700e6875700b9
:104c8800204b2100bd1e07001240800023408000f9
:104c9800f0ff2f0001002000800f5100818f590084
:104ca8000a003e0082022000e1da2d00204b21009c
:104cb8001a060700204b2100b01e07000000200044
:104cc80011002000104088002140880011002000b9
:104cd80030002000323607002468ef0021fa070070
:104ce8000000e000060032009200200061dd2d0087
:104cf800204b210009060700204b21009f1e0700ba
:104d08000000eb00000f78000000eb00100798008f
:104d18006c28ef000000eb00611d070088270700e2
:104d2800f2002000f1dd2d00204b2100fb050700db
:104d3800204b2100911e07006000b8006011b800e8
:104d480020079800310798004207980053079800f9
:104d58006000b8006011b8006007980071079800fb
:104d6800020f9800130f9800604780007147800079
:104d780010179800608020005001be004000be005f
:104d8800201798009e1090002e1090008080400000
:104d98007041800080804000804180000080400099
:104da800301798003e139000861f7800e0de2d0033
:104db800801f7800204b2100ac090700e4875700ca
:104dc800204b21006d1e07003e109000e1050700f2
:104dd800cc1d07002b2107006000b8006011b80047
:104de8004017980051179800621798007317980099
:104df8000100370000000000d31f0700501d070006
:104e080030438000e20f500008003a006628ef00a7
:104e180042002000a1df2d0060562100bf050700d9
:104e280011c0b30060562100fe1d07005116800016
:104e380000202000008060000000e0000100320037
:104e4800922907001047800021478000e00f50009a
:104e5800e08f580009003200511680000020200021
:104e6800008060000000e00003003a00e228ef0044
:104e7800e428ef00010037005301370044c8bf00a1
:104e88000004e000480032004efa07000000e0008d
:104e980001003a004c013700304280004142800056
:104ea800809fbe00e0df2d00801f7800204b21008e
:104eb8006e090700e6875700204b21002f1e0700c8
:104ec8003242800043428000f0ff2f00f1072000ab
:104ed800800f5100818f590026003e00304280002b
:104ee80041428000020420000e014100130020000e
:104ef80043f907000ec090000080fb00801f780077
:104f080010e12d00801f7800204b21005709070071
:104f1800e4875700204b2100181e07000ec09000a0
:104f2800e14f4000040032003042800041428000de
:104f3800eff907000600370092002000d1e12d00ac
:104f4800204b210075050700204b21000b1e070090
:104f580032428000434280000000200011002000ff
:104f680002004000838048003042880041428800a7
:104f7800150137007201200061e22d00204b21004d
:104f880066050700204b2100fc1d07002d220700a5
:104f98004468ef0000002000110020001040880045
:104fa800214088005828ef00f41c07000040eb005f
:104fb80000779800810320008e8040004003200085
:104fc8000e004000f1fa07000000e0004700320040
:104fd8002e189000be189000c1fd0700604288009e
:104fe8007142880096c8bf000004e0000f0032003c
:104ff80063fa0700cf80de00804288009142880073
:105008008242800093428000a0428000b14280002a
:10501800800f5100818f59000400360080428000c3
:1050280091428000a0428800b1428800624280001c
:10503800734280002003200001002000800f5100ef
:10504800818f59000e003600624280007342800052
:10505800f02d220021002000800f5100818f59007f
:1050680007003e0010c0b300007798000000eb0076
:10507800000f78001000200060438800010037000e
:105088001e0fe800604380000000e0000f003200bf
:105098008042800091428000004178006042800098
:1050a80071428000fa230700864280009742800000
:1050b80064428000754280004e189000de1890000f
:1050c8006e199000fe199000c000070080022000b1
:1050d8009e007800808f500004003400c042800099
:1050e8000000e00001003a006c28ef00608020001a
:1050f8003004be002005be002e009000be009000c7
:105108004e019000de0190000002540081825c0094
:1051180002035d0083835d00000028003100200049
:105128006011b8000020e10001a8e10002b0e10030
:1051380003b8e10009003600ac23070060802000b6
:105148003002be002003be002407980035079800ef
:105158004607980057079800412607005116800017
:1051680000202000008060000000e00006003a00f7
:10517800604380000000e00003003a00410107009e
:105188000000eb00000f7800104280000000e000f3
:105198001c003200608020003004be002005be00e4
:1051a800e08020005001be004000be000002540014
:1051b80081825c0002035d0083835d0000002000a3
:1051c800510020006011b8000020e10001a8e100b2
:1051d80002b0e10003b8e1000a0036002201200015
:1051e800d1e32d00204b2100cc040700204b2100e7
:1051f800621d070011c0b300f0e42d00091d07006f
:10520800961e0700608020003004be002005be0006
:105218006e009000fe0090000e0990009e0990001c
:105228000002540081825c0002035d0083835d00fc
:1052380000002000210020006011b8000020e100db
:1052480001a8e10002b0e10003b8e100e9fe360080
:10525800f200200011e52d00204b2100af040700cb
:10526800204b2100451d070011c0b30000e62d00aa
:10527800ec1c0700791e0700022007006080200050
:105288003002be002003be0064079800750798002e
:10529800060f9800170f9800f0230700644280005b
:1052a80075428000501680004900de0061406000b1
:1052b8008083fb00501680004d00de0061406000d6
:1052c8000083fb00f242800003438000d04280004c
:1052d800e1428000849fbe00871f7800861f780007
:1052e800829fbe00809fbe0020e62d00801f7800b0
:1052f800204b21005d080700f2875700204b210052
:105308001e1d0700c342800010408000214080001d
:1053180062438000831f7800809fbe00821f780050
:1053280010e92d00801f7800204b21004f0807004e
:10533800ea875700204b2100101d07001e0090002f
:105348000000e0000b0034009e029000851f7800ea
:1053580060eb2d00801f7800204b210043080700d8
:10536800e4875700204b2100041d07000000eb00d4
:10537800100798005116800000202000008060006f
:105388000000e000040032006000b800d04188004e
:10539800e14188000a003700d0418000e1418000e7
:1053a8006011b800e50207000000e00004003a00c0
:1053b800f042800001438000d0418800e14188002c
:1053c8009e2007008cfe37008bfe37001400fa0081
:1053d8002007980031079800420798005307980063
:1053e8006407980075079800060f9800170f980033
:1053f8000e0890009e089000c801dd000200200001
:105408006e009000fe009000000071008180710025
:10541800008fbe0012408000234080000000200062
:1054280001082000800f5100818f590007003a00c1
:10543800d200200051ec2d00204b2100370407003a
:10544800204b2100cd1c070058003700a06b21001d
:1054580010407800f14f50000f003a00b06b210067
:105468009040780020c2b30080cf50000a003a0074
:10547800c06b21009040780030c3b30080cf50004b
:1054880005003a00d06b21009040780040c4b3007a
:1054980080cf5000060032003202200021ed2d009e
:1054a800204b21001d040700204b2100b31c0700de
:1054b800c04280000000e00022003a002e00900068
:1054c800be0090004e019000de0190004443800031
:1054d80055438000809fbe00829fbe00849fbe000f
:1054e80050ef2d00801f7800204b2100df070700b8
:1054f800ee875700204b2100a01c0700c142800006
:10550800e06b210000804000e4004700820020009a
:1055180002040700c042800068004000c0428800c2
:10552800c1428000e06b2100008040004200200062
:1055380081862000f9030700c04280006400400013
:10554800c0428800c1428000e06b2100008040001a
:10555800420020008e007800f0030700c04280005f
:1055680064004000c0428800c14280000010200052
:10557800808f50000d003a00faf7070010408000b5
:105588002140800003102000e26b210074f707001f
:1055980010408000214080000010b0000180b00061
:1055a80010408800214088005828ef000080fa0049
:1055b800000006000000fa00889fbe008a9fbe0017
:1055c800eb0307006101b900f0ff2f00010028007c
:1055d8000202780003017800800178000100780059
:1055e80003026200000061006101b800c011dd0023
:1055f800020020000200be006121b8000200700015
:1056080083807000e00f5000e08f580008003d00d4
:1056180061005000e080580002002000f3ff2f00d6
:10562800020070008380700061004000e080480044
:105638000004be004fcdde008a057800608020009f
:105648005001be004000be000002440081824c00b0
:1056580002034d0083834d00000028002100200034
:105668006011b8000000420081804a0002014b002e
:1056780083814b004f05be004f04be000080fa0036
:10568800000006002800fa00889fbe008a9fbe001e
:105698004201200041f12d00204b21009f0307000b
:1056a800204b2100351c07000000eb00000f78009c
:1056b80010c0b3004ae8b700104280000000e000c4
:1056c8000800320022002000f1e42d00605621007d
:1056d8009203070011c0b30060562100d11b0700d8
:1056e8005e1d0700300020005433070040002000f2
:1056f800523307000040eb00c2240700451c070096
:1057080018230700d2f90700aaff0700100798001e
:105718002107980032079800430798000000eb0023
:10572800500798000100370000000000608020004a
:105738005001be004000be00809fbe00829fbe0098
:1057480080f22d00801f7800204b210047070700ba
:10575800ea875700204b2100081c07007a1d070024
:105768001e0fe80051168000002020000080600015
:105778000000e00013003200081c07003000200081
:10578800193307000010270021002000f2f9070054
:1057980030002000293307000010270021002000d6
:1057a800edf90700300020000f3307000010270034
:1057b80021002000e8f90700300020001f3307000f
:1057c800ca00370010002000a04788000040fe00f3
:1057d8005e0090000000e800500798005e0090000e
:1057e800670060000000e0001b003a009c240700ee
:1057f800f04280000143800018c0b3003233230018
:1058080033052400cd0107000000e0000100350049
:105818000044eb000804e0000800320030002000db
:10582800f132070000202e0041002000caf90700cd
:105838003000200001330700070037004000200037
:10584800e932070000202e0041002000c2f90700bd
:1058580040002000f9320700608020003002be00be
:105868002003be001e009000ae0090003e01900094
:10587800ce0190000020e10001a8e10002b0e100a3
:1058880003b8e100a8ff360010c0b3005d2407008c
:1058980057f907008df80700c2002000a1f42d0079
:1058a800204b21001d030700204b2100b31b0700dc
:1058b800ba1b070000082000a0478800608020006d
:1058c8003002be002003be006407980075079800e8
:1058d800060f9800170f9800010037000040fe00df
:1058e8006e049000fe0490000e0d90009e0d900036
:1058f80000002800010020006011b80000024400e8
:1059080081824c0002034d0083834d00608020009b
:105918005001be004000be000020e10001a8e100e7
:1059280002b0e10003b8e100ecff3e0067f80700b1
:1059380000000000010220008e8040007c0047002b
:1059480092f807000000e000faff32006e089000ad
:10595800fe08900062fb07006042880071428800e0
:105968003e220700d0418000e14180006011b8006c
:10597800720107000000e00004003a00f0428000d5
:1059880001438000d0418800e14188009721070049
:10599800608020003002be002003be00240f980063
:1059a800350f9800460f9800570f980002003700ef
:1059b8000040fe00e41c07002e0c9000be0c900076
:1059c8004e0d9000de0d9000000028000100200020
:1059d8006011b8000002440081824c0002034d00af
:1059e80083834d00608020005001be004000be004f
:1059f8000020e10001a8e10002b0e10003b8e100e5
:105a0800ebff3e00624280007342800020032000ca
:105a180001002000800f5100818f590012003600cc
:105a28006242800073428000f02d22002100200095
:105a3800800f5100818f59000b003e0060428000aa
:105a480071428000809fbe0060f52d00801f7800a5
:105a5800204b210085060700e6875700204b2100d0
:105a6800461b070021003700604280007142800019
:105a7800809fbe0000f72d00801f7800204b21007a
:105a88007a060700e6875700204b21003b1b0700da
:105a9800eff807000040eb00da2307000040fe00a3
:105aa800608020005001be004000be00809fbe0004
:105ab800829fbe0090f82d00801f7800204b2100a7
:105ac8006a060700ea875700204b21002b1b0700b6
:105ad800501b0700b7fe0700100798002107980021
:105ae800320798004307980010ff370010c0b30032
:105af800c423070000082000a04788000e220700e2
:105b08004a68ef00df1d07004f05be004f04be00c6
:105b18000080fa00000006000600fa00000f780076
:105b280011079800220798001e007800210720001e
:105b3800810f50001800320021072000810f50000b
:105b48000a003c00e20f500015003200e20f50003e
:105b580003003c00e10f50000b0032001500370035
:105b6800e30f50000a0032001200370041072000fe
:105b7800810f50000c00320041072000810f5000b7
:105b88000b0035000b003700bf2b0700090037005a
:105b9800e32d07000700370000000000050037006c
:105ba800000000000300370000000000010037007b
:105bb8000000000010c0b3000080fa0000000600da
:105bc8000040da000000fe000a00fa00e20f500070
:105bd80020003e0010098100e10f5000060032004d
:105be80080232000452320002323200004232000b5
:105bf8000000e00004003a00802220004522200036
:105c08002322200004222000060028001403630039
:105c180003003a000608780000002800140a700003
:105c280013a8a30001003a0013a0a0000200780006
:105c3800050037001388a300feff32003102fb0085
:105c4800840a78000000e9000000e000f9ff3a004b
:105c58000800370033002000b3bf9f00c0bf9f007b
:105c6800d1bf9f00e2bf9f006a80570097100700ce
:105c78006fb99700020078000080fa000000060063
:105c880003f0a200889fbe008a9fbe008c1f780088
:105c9800350107003c0133006450e1004f00320039
:105ca8006420e1005200320003826c0007003b00d0
:105cb8000905d0000306d000820f54000c065d00d1
:105cc80002003900020032008901780003067800da
:105cd8008582550004003d000003fd008103fd009e
:105ce8008502ea008b854200840f720002003b00a7
:105cf80060001000e08018006011b8000005eb009b
:105d08007a28e1000a00390006007800c75ddd0046
:105d1800f707b200878075002d0037008281710077
:105d28000a017800610560008180d1000080d300fd
:105d38008502e900f9ff3b0006044000878448001b
:105d480002003b0060041400e0841c000988a300e2
:105d5800070032008a81710082817100610164004c
:105d68008904d1000884d3008b05e80017003700a8
:105d78000978a30013003a000b00e0001300340078
:105d88008b05e9000804440089844c000a44740027
:105d98000978a3000d003a000b00e000070034006a
:105da8008b05e9000804440089844c0001003a008e
:105db8000b0020000978a300f7ff32000001eb0078
:105dc80002003700828171000a017800ab000700e9
:105dd8000cf0a70001f0a000f40037006420e100f7
:105de80002003a00838f6c00f40033000801be0003
:105df8000200be00ed003700889fbe008a9fbe00eb
:105e08008c1f7800d8000700df00330003866c0081
:105e18006450e1002e0032006420e10033003200bb
:105e28006150e1002f0032006120e10031003200b2
:105e380085855500eb07b000090020000804200004
:105e4800050037000804440089844c000a0031002a
:105e58000603430087834b000001530081815b00e8
:105e6800f8ff33000203be000800a0000804440045
:105e780089844c00f6ff3900c639dd0083017300c0
:105e880001003200130020008904d1000884d300e7
:105e98000998a300050032000800a7000300a0002d
:105ea8008904d1000884d3008b05e8008904d10057
:105eb8000884d3000001eb000281d2006f000700c4
:105ec80001f0a1000cf0a70001f0a000b700370016
:105ed8006420e100b90032000801be000200be00e3
:105ee800f7ff37006120e100b40032006000b8001d
:105ef800f3ff37000000200001f82700f0ff37000b
:105f0800839f68000100e00002003d00600010006f
:105f1800e08018000300e00002003d00600111006d
:105f2800e0811900dc0007004f00e00002003b00a0
:105f380060001000e0801800000006001400200037
:105f48000e013700f4ff2f000c0137000001be00de
:105f5800700007000470a70003f0a10003f8a30075
:105f680013003a006509b10010003200090035003d
:105f78006928e10002003500010028000000050042
:105f880000004000818048008502e900fcff3a00db
:105f980000000600f88f4200050035008100d1009e
:105fa8000080d3008502e800fcff3a0000000600ec
:105fb8008000eb0000000500889fbe008a9fbe009d
:105fc8000082700004027100048271002600320011
:105fd8000004be000200be006011b8006b0920007a
:105fe800950220000182cf000a0039000541b10066
:105ff8000082cf00070039000541b1000982cf00b7
:10600800040039000541b1000882cf0001003900c1
:106018000541b10005425200120032000a003b005f
:1060280082817100610164008100d1000080d30089
:106038008984d3000884d3008b05e8000442e80073
:10604800f7ff3a00070037000804440089844c0031
:1060580000004800818048008b05e9000442e900ff
:10606800f9ff3a00050007004f05be004f04be00c7
:10607800000006006011b800cfff37008100200043
:10608800618055000b003d000b00200061fe2f00d1
:106098000100e1001d00340082817100610164008b
:1060a8008904d1000884d3000000e800faff3a0010
:1060b80071002000610064000300700002006000ad
:1060c8000900320061044400e0844c000988a500fe
:1060d800050032008b05e8006808e10002003a007c
:1060e8008904d1000884d300f20f20000258e1008f
:1060f80005003d00c75ddd00f907b2008980750025
:1061080008007800000006000bf827008b007800d4
:1061180000000500c70ade00f107b200f50fb20063
:1061280008003200e1cf4200020032000170a000f6
:1061380024000500810f70000100320004080500ea
:1061480044000500810f700002003a0014000500a9
:106158008502e9000000400081c04800fcff3b00c8
:106168000170a000240005000004be00e9ff07003c
:106178000003be000405be000200be00e5ff0700e4
:10618800844f7500000006000200be006450e10064
:10619800050036006420e100020036000968a3000b
:1061a80001003a000800be000160a0004f06780018
:1061b8004f05be004f04be0000000600f0ff2f0090
:1061c800f1ff2700f9ff3700889fbe008a9fbe00b5
:1061d8008c1f7800e4ff0700ebff330003866c0098
:1061e8006450e100240032006420e10027003200fe
:1061f8006150e100220032006120e10021003200fc
:106208008b854200eb07b1000134b800003ab800b2
:106218000804420089844a00013ab8000030b800f6
:106228008880400009014a00040033000000400053
:1062380081804800020149008b05e900c909dd0099
:10624800830170000100320013002000c814de0032
:106258004814dd004709de001200b200c808de005d
:106268000884700085ff070001f0a1000cf0a7006a
:1062780001f0a000cdff37006120e100cfff320020
:106288000801be000200be00f7ff37006150e100c0
:10629800fcff3a00c9ff37006022b8000602200060
:1062a8000000d0008180d2000482d2008582d20012
:1062b8000000a0000202520083825a00030031004d
:1062c8000202420083824a000000a1000603e9009e
:1062d800f3ff3a0000000600889fbe008a9fbe00b8
:1062e8008c1f78000006eb00e00f5000e08f58008c
:1062f800e00f5900e08f590007003d006044b800e6
:106308006055b8000000540081805c0002015d0007
:1063180083815d001c002000e00f5200e08f5a00ce
:10632800e00f5b00e08f5b0007003d006044b800b1
:106338006055b8000402540085825c0006035d00c5
:1063480087835d000c00a200270007000c00e00016
:10635800060032006022b8006033b8000000520026
:1063680081805a0002015b0083815b004f06780040
:106378004f05be004f04be0000000600889fbe0007
:106388008a9fbe00841f780077ff07004f007800bf
:1063980011003300f0ff2f00838f6c0006003b00d4
:1063a800040565000a00a7000800370009f0a600e8
:1063b8001000200008003700820f5400838f5c0013
:1063c800030039001000200001003e0000002000fa
:1063d80009f0a7000000ea004f05be004f04be0008
:1063e8000000e00000000600889fbe008a9fbe00f3
:1063f8008c9fbe000404b8000506b8008904460056
:1064080060854e000606b8000a054600e0854e0085
:106418000706b8008b054600040eb800890446003c
:106428000a854e00e0854d00050eb8000a054600b5
:106438008b854e00060eb8008b0546000416b80082
:106448000a0546008b854e000516b8008b054600e8
:10645800041eb8008b0546000800be000a01be00f5
:106468004f06be004f05be004f04be0000000600e8
:10647800889fbe008a1f7800304478008004780026
:1064880001c2b300814f5400fbff3200e94f5400b2
:10649800f9ff3200d0c2b300804f540003003a0025
:1064a800394478001ac0b300050037000045eb00f6
:1064b800b0c2b300804f540001003a00394478005c
:1064c8006000b8000a003700a20020000300200086
:1064d800ba10070002cdb300024144000281fb005c
:1064e8008001eb00020040008380480039447800b6
:1064f8000881fb000203b100e90f5100f2ff3600ea
:106508000a04e0000200320060001000e080180079
:106518004f0578004f04be00000006008001780097
:1065280002003700b15978000201e9000200e000da
:10653800fcff3a00000006008001780002003700e6
:10654800815978000201e9000200e000fcff3a00ee
:10655800000006008000eb00c0088900d10889000f
:1065680011c0b30060112200014878000000060045
:10657800601122001004e00002003a001000200020
:10658800f4ff0700d2e62400631c2400c008810041
:10659800d10881008910070092032300030020001e
:1065a8000001410081814900c2088900d30889009f
:1065b8000300780000f0a10000000600b041780058
:1065c80031c1510002003a000304e000fbff3a0029
:1065d8000200fb000000060000017800b1417800cd
:1065e800035978000304e000fcff3a0000000600ad
:1065f800800078003104e000feff3a000080ea00e5
:1066080000804000000006000a003700b041780012
:106618000304e000030032000201e900b1cf510099
:10662800040032008381fb001480fb0000805100cd
:1066380000000600010278000200e000f3ff3a00c3
:106648000000050080017800060037000201e9001b
:10665800b142780085597800030278000504e0000b
:1066680006003200030278000200e000f7ff3a005b
:1066780002003700005aeb000201e9000200e000c6
:10668800fcff3a00000006000c00fa00889fbe00dc
:1066980000047800f0ff2700d0bf9f008004eb00c3
:1066a80099bf9f0088bf9f00a8bf9f00200c2000b3
:1066b800b0bf9f0078815700cfb097007080570017
:1066c800100007000fb89700094878008fb89700a6
:1066d800088050004f04be000080fa000000060049
:1066e800d0019000028151004240a900030034000b
:1066f80010017800014978000208e80001007800dc
:10670800000006002f02b000889fbe008a9fbe00ce
:106718008c9fbe008e1f780080067800d1af9f0046
:1067280092b79f000007eb0044033700dfa89700eb
:106738008100e800d1af9f0051c2b300814f5000e3
:1067480003003a005fa897000006eb00110037002d
:10675800bd0090000000fb000168a30007003200a4
:106768000e017800800078000d007800dcff07003b
:106778000000e00005003a00300337008d00780083
:10678800500d0700e10f40002c0332000e07e8000f
:106798002a0337008000780030417800d3c2b30064
:1067a800834f51000c00320007003c00edc151003e
:1067b800834f51000a003200ebc14100834f510062
:1067c8000d003a000800370003c3b300834f51009f
:1067d80009003a00060037000c30a000edff370032
:1067e8000c00a000ebff37000c10a000e9ff3700f9
:1067f8000c20a000e7ff37000c18a30001003200ae
:106808000c00a1000c38a300010032000c20a100ec
:106818000200fb000003b100e90f50000c003e002d
:10682800010178000000eb006a00b900b201fb002a
:106838000303b10000804100820078009201fb0050
:106848000303b100e98f5100f7ff36000800370055
:106858000000eb00a3c2b300834f510004003a00cc
:106868001fb197004200780092b79f008100e800ae
:106878008001eb00a3b79f00e2c2b300914f110063
:106888000c003a000ce0a00064415100d14f110007
:106898000300320001017800030278000900370084
:1068a8001fb29700c402780094b79f00a5b79f0055
:1068b8008100e80001017800090037006a22b90068
:1068c8000482410082007800b201fb000303b1009a
:1068d800e98f5100f9ff3600a4b79f00f5ff370094
:1068e800b2407800d2af9f00c3c6b30083cf500038
:1068f800250032000f003c0032c6b30082cf5000a2
:10690800a000320004003c000104e000d002320084
:106918006b4151000f00370042c6b30082cf5000d0
:10692800170032006541410082cf5000b3003a00a1
:106938001300370032c7b30082cf50001f00320067
:1069480007003c006441510082cf5000140032001f
:106958000241e80082cf5000a8003a001300370037
:1069680052c7b30082cf5000ab00320063414100f0
:1069780082cf5000a1003a00a1d79f000d00370038
:10698800a1d79f00a6003700010120000c48a300f2
:1069980001003200010028000c867000d0ff37008b
:1069a800a1d79f000c60a0009d003700a1d79f00d1
:1069b8000c50a0000c70a00099003700a1d79f00d0
:1069c8009fb39700c700780097b79f00b1b79f00a3
:1069d8000100e00002003a00e9dd2100b9b79f009c
:1069e8003fb197008000eb00010037008100e8000c
:1069f800e2c178000304e000fcff3a00c1b79f0041
:106a08002fb597000a00e00005003200cfb59700c7
:106a18008b0f5500020031008a007800c1b79f0033
:106a2800cfb097000004eb00810f50000100360042
:106a380001045000680666002b003a001100370078
:106a48003d0090000068a300070032000e017800a6
:106a5800010220000d00780021ff07000000e0007f
:106a680006003a00060037008d007800000220007a
:106a7800940c0700e10f4000010032000e07e80007
:106a88000804e9000800e000edff3a000084eb008c
:106a9800150037003d0090000068a300090032008f
:106aa80008007800b000fb00000478000e017800b0
:106ab8000d0078000aff07000000e00008003a0017
:106ac8000f003700880078003100fb0001047800cf
:106ad8008d0078007b0c0700e10f400008003200b1
:106ae8000e07e80006003700acb79f0008067800dc
:106af8003fb49700cfb497005fb59700efb5970004
:106b0800090078008004e9000000e000e1ff3a0095
:106b1800b8b79f00c9b79f00dab79f00ebb79f00cf
:106b28000c0478002fb697000c00e00043023200f6
:106b3800110037003d0090000068a30007003200f4
:106b48000e017800010220000d007800e4fe070025
:106b58000000e00006003a00060037008d007800cb
:106b680000022000570c0700e10f4000010032002e
:106b78000e07e8000804e9000800e000edff3a000d
:106b88002e0237009fb297004504780095b79f0002
:106b9800cfc4de00614db9000802be000a03be0082
:106ba8004822de00c828dd0004827000a4d79f00b8
:106bb8000c48a300090032000404e000070032007a
:106bc800e14f420005003200b4d79f00c8d79f00ac
:106bd80022002000c2b79f0003003700b8d79f00eb
:106be80013002000c3b79f0024fd2f000f024200ae
:106bf8000402e800b4b79f0081ff3700a1d79f00c7
:106c080025fd2f0085824700b5b79f00160020009c
:106c1800c6b79f007aff3700a1d79f000c0cb300be
:106c28008c007800010cb20032003a000c00e00041
:106c380005003d009fb097004105be004104be001d
:106c480091b79f00080037000c48a3000b003200e2
:106c58001fb297004401be0094b79f000204be0013
:106c68004fcdde008a057800b8b79f00c9b79f00ee
:106c7800dab79f00ebb79f00090037009fb4970071
:106c8800c900780099b79f00610ab900612bb90063
:106c9800b4b79f00c5b79f00d6b79f00e7b79f005e
:106ca8003fb49700cfb497005fb59700efb5970052
:106cb800e00f5400e08f5c00e00f5d00e08f5d00a6
:106cc80022003d003c00b3006022b8006033b800e9
:106cd8000804520089845a000a055b008b855b0012
:106ce800b8b79f00c9b79f00dab79f00ebb79f00fe
:106cf800160037000c00e00004003d001fb49700a8
:106d08004803be004802be00050037000c48a30037
:106d1800050032001fb497004802be006033b80077
:106d280098b79f00050037009fb49700c900780006
:106d380099b79f00610ab8006033b800b4b79f00e4
:106d4800c5b79f00d6b79f00e7b79f00afb29700bf
:106d58000500e0000d003a0016002000a6b79f00cd
:106d68003fb49700cfb497005fb59700efb5970091
:106d7800e00f5400e08f5c00e00f5d00e08f5d00e5
:106d8800020032008004eb00a9b79f000c057800d0
:106d98000a0cb2008ab79f0001042000810f550039
:106da8003400320003003c000a00e0000800320012
:106db80048003700010820008fb59700818f5500e3
:106dc80014003200010c2000818f550041003a0068
:106dd800e2de210011c0b3003202be003203be0061
:106de8003fb49700cfb497005fb59700efb5970011
:106df8000440e10005c8e10006d0e10007d8e10041
:106e0800330039008140e800f4cf5000f2ff3a0027
:106e18002f00370011c0b300040120000500200036
:106e28006033b8003fb49700cfb497005fb59700c0
:106e3800efb597000440e10005c8e10006d0e10085
:106e480007d8e10022003900490020000402d000e0
:106e58008582d2000683d2008783d2008904e900a4
:106e6800faff3a008140e800f0cf5000edff3a0009
:106e78001700370011c0b30084002000050020006f
:106e88006033b8003fb49700cfb497005fb5970060
:106e9800efb597000440e10005c8e10006d0e10025
:106ea80007d8e1000a003900390020000402d000a8
:106eb8008582d2000683d2008783d2008904e90044
:106ec800faff3a008140e800f5cf5000edff3a00a4
:106ed800a1d79f002fd597008a00fb00afb5970078
:106ee8008b8f500002003d00abd79f000400370095
:106ef8002fb19700810f510001003d00a1b79f00fd
:106f08000000e00003003200e300660001003200e8
:106f18000000e9000ce8a30006003200afb19700ba
:106f2800830f5000020034000300500001003700b6
:106f38000000eb002fd297008400fb008002eb00da
:106f4800f5af9f00810f500002003400810050000f
:106f5800f1af9f000c28a3003c00320061016600dd
:106f68000c18a3000f0032003d0090000068a30039
:106f780006003200b10220000200e00001003200e9
:106f88008180e8000e0178000d003700b002200073
:106f98000200e000010032000080e8008d00780067
:106fa8000e0037000200e000100032003d009000a3
:106fb8000068a300070032000e01780001022000db
:106fc8000d007800c6fd07000000e00006003a004a
:106fd800060037008d00780000022000390b0700fa
:106fe800e10f4000010032000e07e8007fab970078
:106ff8000600e00052003200060478003d009000d0
:107008000068a300070032000e0178000103200089
:107018000d007800b2fd07000000e00006003a000d
:10702800060037008d00780000032000250b0700bc
:10703800e10f4000010032000e07e8000804e900f3
:10704800eeff3a00f8af9f003d003700ffab970016
:107058000700e000160032000c38a30014003a00c4
:10706800070478003d0090000068a3000700320084
:107078000e017800010220000d00780098fd07003d
:107088000000e00006003a00060037008d00780096
:10709800000220000b0b0700e10f40000100320046
:1070a8000e07e8000804e900eeff3a00f8af9f0079
:1070b800610166000c18a3000f0032003d0090002b
:1070c8000068a30006003200b10220000200e000c0
:1070d800010032008180e8000e0178000d003700c1
:1070e800b00220000200e000010032000080e80049
:1070f8008d0078000e0037000200e000100032001a
:107108003d0090000068a300070032000e017800df
:10711800010220000d00780071fd07000000e0006a
:1071280006003a00060037008d00780000022000b3
:10713800e40a0700e10f4000010032000e07e800f2
:107148002fb497000800e900c204dd00c9af9f0012
:107158006301b90002057800baaf9f004300dd0063
:1071680061de210081004000e1af9f0098003700f8
:10717800afb597008b05e900abb79f00000420006e
:107188008fb09700808f50006800320003003c00e9
:107198000100e000080032007300370000082000fa
:1071a8000fb19700800f51004c003200000c2000f6
:1071b800800f51006c003a000c00e0001e003d00fa
:1071c800efa997003304be002305be000802be00e5
:1071d8000a03be003fb09700cfb097005fb1970099
:1071e800efb19700140e0700a0d79f000000fb0026
:1071f800cf80de006109b9000802be000a03be00a4
:1072080035fc07003fb29700cfb297005fb39700f5
:10721800efb397000002520081825a0002035b001c
:1072280083835b00b4b79f00c5b79f00d6b79f00a4
:10723800e7b79f00250037000c48a3001a0032006a
:107248003fb29700cfb297006fab97003604be00ed
:107258002605be000801be000400be00f4b79f006a
:1072680085bf9f000cfc0700a0d79f000000fb0013
:10727800cf80de000801be00500d07007fb29700e6
:107288008fba97000002520081825a000404be009f
:107298006055b800b8b79f00c9b79f00dab79f001c
:1072a800ebb79f0009003700efac97001901780091
:1072b8003fb59700110009000285d800a200200000
:1072c800110009000280d800a1d79f00afd5970010
:1072d8000b43b000abd79f0023003700d0dc210060
:1072e8000c58a30001003200c0db21003fb2970018
:1072f800cfb297005fb39700efb39700cfa897007e
:107308008100e900050033008703d1000683d3001c
:107318008582d3000482d300f9ff37006f02620030
:1073280060427a00a4d79f000f0037003fb0970053
:10733800cfb097005fb19700efb197003faa9700d1
:107348000402e900050033008301d1000281d30063
:107358008180d3000080d300f9ff370067406000c8
:107368000043b000a0d79f00bd009000afd29700a7
:107378000500fb000168a300070032000e01780039
:10738800800078000d007800d5fc07000000e000c0
:1073980005003a00050037008d007800490a07000b
:1073a800e10f4000010032000e07e8004fab9700e4
:1073b80064035300c6af9f00bfab9700e38353003d
:1073c800b7af9f006fac970068045400e8af9f0008
:1073d800afb497000900e00065ff3a000c38a3003d
:1073e800160032007fad97000a00e0001300340059
:1073f8000a0478003d0090000068a30007003200ee
:107408000e017800010220000d007800b4fc07008e
:107418000000e00006003a00060037008d00780002
:1074280000022000270a0700e10f40000100320097
:107438000e07e8000804e900eeff3a00dfad970008
:107448001b407800a0d79f000004e000b7fc3a007a
:107458000e0078004f0778004f06be004f05be00ab
:107468004f04be002f02b100000006000c00fa0015
:10747800889fbe0000047800f0ff2700d0bf9f005f
:107488008004eb0099bf9f0088bf9f00a8bf9f00a2
:10749800200c2000b0bf9f0078815700cfb0970024
:1074a80070805700cf0007000fb897000948780090
:1074b8008fb89700088050004f04be000080fa0083
:1074c800000006000800fa00889fbe008a9fbe00e0
:1074d8000084fb00d1c6b300814f50003400360051
:1074e8004b062000110009000b84d80081057800a4
:1074f800720040004300dd00c9bc21000080440048
:107508006022b8000600200007fe23005001be00dc
:107518004000be00320c07000002be000203be009d
:1075280084bf9f0095bf9f00a6bf9f00b7bf9f0065
:10753800aa002000110009008a85d800800578007b
:10754800e9854500c35ddd008b8544003b02be0034
:107558002b03be000fb897009fb897002fb997006c
:10756800bfb997001e0c07000002be000203be0050
:1075780084bf9f0095bf9f00a6bf9f00b7bf9f0015
:10758800110009000a84d800010478004344dd0092
:10759800888444003902be002903be000fb8970052
:1075a8009fb897002fb99700bfb997001d00370003
:1075b800ea4f500013003600aa002000110009000d
:1075c8000a84d80001057800690440004344dd00be
:1075d800c9bc2100088444006022b80006002000cd
:1075e80007fe23003800be002801be00fc0b070080
:1075f8004355dd008a8444003902be002903be00d9
:10760800080037004344dd00c0bc210008044000e6
:107618006022b8000600200007fe23003800be00e4
:107628002801be00ee0b07004f05be004f04be0048
:107638000080fa00000006000800fa00889fbe00db
:107648008a9fbe00d1c6b3000004e00023003d00bd
:107658000040ea000004fb00814f50000a0034009b
:1076680042062000110009000204d800a9002000e9
:10767800110009008900d800e9004000c308dd00b6
:10768800cabc210021003700ea4f50001000340026
:10769800a2002000110009000204d80001017800ae
:1076a800690040004300dd00c1bc210000804000ab
:1076b8004311dd00828040003102be002103be007c
:1076c8005001be004000be00c50b0700380037005f
:1076d8004344dd00c0bc2100320037000004fb0039
:1076e800814f500023003400420620001100090099
:1076f8000204d800a9002000110009008900d80060
:10770800e9004000c308dd00cab12100810045003e
:107718003102be002103be008b0920008a85450086
:107728003b00be002b01be00ad0b07000002be00ef
:107738000203be0084bf9f0095bf9f00a6bf9f00a5
:10774800b7bf9f00110009000904d80001047800a0
:107758004344dd00080545003a02be002a03be0086
:107768000fb897009fb897002fb99700bfb9970037
:10777800d5ff3700ea4f500008003400a20020006f
:10778800110009000204d8000101780069004000d6
:107798004300dd00c1b12100c4ff37004344dd00d0
:1077a800c0b12100080440003800be002801be0016
:1077b8004f05be004f04be000080fa00000006001e
:1077c800d0019000028151004240a900030034001a
:1077d80010017800014978000208e80001007800eb
:1077e800000006002f04b000889fbe008a9fbe00dc
:1077f8008c9fbe008e1f780000067800e19f9f00d6
:1078080082af9f006000b8006011b80080a79f0099
:1078180091a79f00a2a79f00b3a79f008006eb0037
:10782800a3053700ef9897008100e800e19f9f00cb
:1078380051c2b300814f500003003a006f9997007e
:107848000007eb0011003700bc0090000000fb00af
:107858000168a300070032000d017800800078005d
:107868000c007800d6ff07000000e00005003a0091
:107878008f0537008c00780012090700e10f4000df
:107888008b0532008d06e800890537000200780074
:10789800b2407800d3c2b30083cf50000c0032004e
:1078a80007003c00edc1510083cf50000a003200b0
:1078b800ebc1410083cf50000d003a0008003700ab
:1078c80003c3b30083cf500009003a000600370015
:1078d8000e30a000edff37000e00a000ebff3700d0
:1078e8000e10a000e9ff37000e20a000e7ff3700c8
:1078f8000e18a300010032000e00a1000e38a300ec
:10790800010032000e20a1000101fb000203b100ba
:10791800e90f51000e003e00800078000001eb00e6
:1079280092b79f006a11b9003100fb000003b10053
:1079380002014000010078009101fb000303b1003f
:10794800e98f5100f7ff360092b79f000a00370011
:107958008001eb0093b79f00a2c2b30082cf500012
:1079680005003a000faa9700c402780084af9f0070
:1079780095b79f000000e800e1c2b30090cf100067
:1079880017003a000ee0a000e4c05000d0cf10006d
:1079980003003200800078008001eb000900370006
:1079a8008fab9700c700780087af9f00d1af9f00cb
:1079b8000000e800000178000d0037006a1ab900dd
:1079c80084014100010078003101fb000203b1008d
:1079d800e90f5100f9ff3600d3af9f00f5ff3700dc
:1079e8000ec0a0000001eb00d2af9f00f1ff3700ee
:1079f800820178003340780003017800c1c6b300e3
:107a0800814f50002b003200e39f9f0014003c0080
:107a1800e8c05000814f50002400320009003c00ab
:107a2800ecc05000814f50002e003200ebc04000e7
:107a3800814f5000980032000004e0002105320018
:107a4800b400370061c6b300814f50001f003200f8
:107a5800e3c04000814f5000ae003a0013003700e9
:107a680031c7b300814f50002200320007003c00ac
:107a7800e4c05000814f5000170032008140e800f8
:107a8800814f5000a3003a001600370051c7b300d9
:107a9800814f5000a4003200e3c04000814f5000e5
:107aa8009c003a00a0779f0010003700a0779f0045
:107ab8009f003700000120000e48a300010032009b
:107ac800000028000e077000c9ff3700a0779f004c
:107ad8000ea0a00096003700a0779f000e60a000bf
:107ae80093003700a0779f000e50a0000e70a000f2
:107af8008f003700a0779f008fa997004300780078
:107b080083af9f00000478000000e00001003a0005
:107b180088ea2100880078000000eb0001003700a7
:107b28000000e800614178000204e000fcff3a0030
:107b3800800478005faa97000400e0000300320088
:107b4800890f520001003100840478008001eb00a5
:107b58009fb29700898f5200010036008981520038
:107b680068036700d6af9f002c003a00030778002f
:107b7800110037003c0090000068a30007003200a5
:107b88000d017800010220000c0078000cff0700ae
:107b98000000e00006003a00060037008c0078007c
:107ba8000002200047080700e10f400001003200f2
:107bb8008d06e8000e07e9000e00e000edff3a0030
:107bc8008081eb00150037003c0090000068a3009e
:107bd8000900320008007800b000fb0000047800bb
:107be8000d0178000c007800f5fe07000000e000a9
:107bf80008003a000a003700880078003100fb00ce
:107c0800010478008c0078002e080700e10f40007e
:107c1800030032008d06e8000100370003077800f2
:107c2800090078008004e9000000e000e6ff3a005f
:107c38008e017800dfab97000700e0009c0432005b
:107c480003077800110037003c0090000068a3008b
:107c5800070032000d017800010220000c007800b6
:107c6800d7fe07000000e00006003a0006003700d3
:107c78008c0078000002200012080700e10f400085
:107c8800010032008d06e8000e07e9000e00e00052
:107c9800edff3a00860437008fa89700410078006e
:107ca80081af9f006102b900612bb90094af9f00ba
:107cb800a5af9f00b6af9f00c7af9f004822de0068
:107cc8004828dd0004027000a4779f000e48a30036
:107cd800090032000404e00007003200e14f4200ce
:107ce80005003200b4779f00afd09700c1779f009e
:107cf80029002000030037002fd19700b2779f009a
:107d08001900200023fb2f008f8141000304e800a5
:107d180088ff3700a0779f0028fb2f000f0444003e
:107d28001900200083ff3700a0779f000e0cb300d6
:107d38000070200000006700640232000ec8a30033
:107d48000200320064002000d4af9f000e48a30058
:107d5800090032000faa97004401be004400be008b
:107d680084af9f0090af9f00a1af9f00b2af9f006c
:107d7800c3af9f000a0037008faa97004500be00d6
:107d880085af9f007e0907000002be000203be0007
:107d980094af9f00a5af9f00b6af9f00c7af9f00ed
:107da8006022b8006033b8001fa89700afa89700fa
:107db8003fa99700cfa99700c30807000000e0007b
:107dc8000a003d001fa89700afa897003fa9970099
:107dd800cfa9970003f0a20090af9f00a1af9f002a
:107de800b2af9f00c3af9f003e00b3000000eb009e
:107df800b09f9f006022b8006033b8001fa89700aa
:107e0800afa897003fa99700cfa9970012090700cc
:107e18000000e0003400320064fb2f000f02420033
:107e28001fa89700afa897003fa99700cfa9970070
:107e3800ce0907003f9897000000e9006302b900e7
:107e4800a2002000110009000202d800b09f9f0084
:107e58000000e00002003d000000e900b09f9f0024
:107e68003f9c97000840ea00f3fd07001faa97000f
:107e7800afaa97003fab9700cfab9700d809070090
:107e88000002be000203be0084a79f0095a79f00c2
:107e9800a6a79f00b7a79f006022b8000600200091
:107ea80007ff2300880807000000e00002003d00eb
:107eb8000804e9000b0037006022b8000600200023
:107ec800470224000fa097009fa097002fa19700ba
:107ed800bfa19700810807000000e00002003500fc
:107ee8000804e800b89f9f00dfaa9700f88f5200a7
:107ef8000f003c000540780072fd07000002be003c
:107f08000203be001fa89700afa897003fa99700db
:107f1800cfa99700ef0707000002be000203be00ca
:107f280094af9f00a5af9f00b6af9f00c7af9f005b
:107f38003f9c9700e90f540015003c006022b800f0
:107f48006033b8001fa89700afa897003fa9970013
:107f5800cfa99700c00807000000e00032003200f7
:107f68001fa89700afa897003fa99700cfa997002f
:107f780022090700e00f5000e08f5800e00f590079
:107f8800e08f590028003a00e10f54002600340021
:107f98000400200005002e00b6e02200170124008e
:107fa8000fa097009fa097002fa19700bfa197004f
:107fb800450807000000e00002003d00730454007b
:107fc8000100370072045400b89f9f006f7097003b
:107fd80099fd07000002be000203be0084a79f00af
:107fe80095a79f00a6a79f00b7a79f001fa8970067
:107ff800afa897003fa99700cfa997003c080700b2
:10800800fe0807000205be000004be006000b800bc
:108018006011b80090af9f00a1af9f00b2af9f0062
:10802800c3af9f00170037001fa89700afa897009d
:108038003fa99700cfa99700f00807000205be00e6
:108048000004be001e0907000002be000203be00b5
:108058001fa89700afa897003fa99700cfa997003e
:10806800d40907000002be000203be0094af9f00bf
:10807800a5af9f00b6af9f00c7af9f000000eb0001
:10808800b09f9f0085eb210014c0b30008003700a3
:108098003500be003501be000040e10001c8e10026
:1080a80002d0e10003d8e100030039000442e800ef
:1080b800f44f5200f6ff3a00a4779f003f989700cc
:1080c8009fb29700008052005fab97008600500077
:1080d8000400fb000080500090b79f000600e000fd
:1080e800020032000000e90090b79f0063006700bb
:1080f800030032009fb397008703e90097b79f00fa
:108108000e28a30050003200610167000e18a3007a
:108118000f0032003c0090000068a3000600320007
:10812800b10220000200e000010032008180e80076
:108138000d0178000d003700b00220000200e000b9
:10814800010032000080e8008c0078000e00370043
:108158000200e000330032003c0090000068a300f9
:10816800070032000d017800010220000c007800a1
:1081780093fd07000000e00006003a0029003700e0
:108188008c00780000022000ce060700e10f4000b6
:10819800240032008d06e800220037003c009000e1
:1081a8000068a3000f0032000d01780001032000d1
:1081b8000c007800f4b79f0085bf9f00d6b79f00da
:1081c800e7b79f007efd07007fb297008fba970040
:1081d8005fb39700efb397000000e0000e003a008d
:1081e8000e0037008c00780000032000f4b79f00d1
:1081f80085bf9f00d6b79f00e7b79f00b10607006d
:108208007fb297008fba97005fb39700efb39700dc
:10821800e10f4000010032008d06e8008904e90002
:10822800030037000802be000a03be009fb497008f
:108238000900e000d9ff3c0099b79f000605be0081
:108248000404be00670037000e38a3001e003a0081
:10825800c8a79f00d9a79f00eaa79f00fba79f0078
:108268009fb49700110037003c0090000068a300fd
:10827800070032000d017800010220000c00780090
:108288004ffd07000000e00006003a000600370036
:108298008c007800000220008a060700e10f4000e9
:1082a800010032008d06e8008904e9000900e000b9
:1082b800edff3c0099b79f004fa49700dfa49700fb
:1082c8006fa59700ffa59700610167000e18a3002e
:1082d8000e0032003c0090000068a3000500320048
:1082e800b10220000200e000250032008180e80091
:1082f80023003700b00220000200e0000100320035
:108308000080e8008c007800320037000200e000ae
:10831800340032003c0090000068a30003003200e3
:108328000d01780001022000160037008c0078004b
:1083380000022000270037003c0190008100fb006c
:1083480000eb21000268a30013003200c308dd001f
:10835800010040003002be002003be000800be003d
:108368000a01be00b4090700a4002000050020008f
:108378006033b800b709070001032000808040007f
:108388000d0178000c0078000dfd07000000e000ea
:1083980013003a0013003700c308dd000100400055
:1083a8003002be002003be000800be000a01be0065
:1083b800a1090700a4002000050020006033b800d0
:1083c800a409070002032000000141008c00780086
:1083d800020078003b060700e10f40000100320070
:1083e8008d06e8002f7097008040e900a1779f0074
:1083f8000004e000d0ff3a00130037003c00900072
:108408000068a300070032000d0178000103200076
:108418000c007800eafc07000000e00006003a00c3
:10842800060037008c0078000003200025060700ae
:10843800e10f4000010032008d06e8003f989700e8
:108448000000e900b09f9f003f9897000000e000ff
:10845800eaff3c00dfa89700f28f500003003400c9
:1084680020c1b300a0779f00020037002fd99700e2
:10847800a2779f002f7097008000fb00dfa997006c
:1084880081805100d1af9f000004e000100032004d
:108498003c0090000068a300070032000d0178003e
:1084a800e10220000c007800c5fc07000000e00095
:1084b80006003a00060037008c007800e002200031
:1084c80000060700e10f4000010032008d06e800b9
:1084d8002f70970058fc07000002be000203be0080
:1084e8001fa89700afa897003fa99700cfa99700aa
:1084f8003b080700c1070700330037003c01900024
:1085080001eb21000000fb000268a3001300320009
:108518004300dd00008040003002be002003be00a2
:108528000800be000a01be0043090700a40020009d
:10853800050020006033b800460907000003b000ba
:108548000d017800800078000c0078009cfc070082
:108558000000e00011003a00110037004300dd0080
:10856800008040003002be002003be000800be00ac
:108578000a01be0030090700a40020000500200001
:108588006033b800330907000003b0008c0078009e
:10859800cc050700e10f4000010032008d06e8001d
:1085a8002f7297000400fb004300dd0001eb21005f
:1085b800008040003002be002003be000800be005c
:1085c8000a01be00230907000205be000004be0020
:1085d800af7097000140e900a0779f000104e00018
:1085e800c6ff3a0098af9f00a9af9f00baaf9f009f
:1085f800cbaf9f00dfac9700110037003c00900024
:108608000068a300070032000d0178000103200074
:108618000c0078006afc07000000e00006003a0041
:10862800060037008c00780000032000a50507002d
:10863800e10f4000010032008d06e8008904e900de
:108648000900e000edff3a001fac9700afac9700bf
:108658003fad9700cfad97000e38a300140232004b
:108668009fb097000100e00011023400d8af9f00ce
:10867800e9af9f00faaf9f008bb79f008104780095
:108688003c0090000068a300070032000d0178004c
:10869800010220000c00780049fc07000000e000ff
:1086a80006003a00060037008c007800000220001f
:1086b80084050700e10f4000010032008d06e80044
:1086c8008904e900eeff3a00f90137000e0078004e
:1086d800000cb20021003a000e00e00005003d0049
:1086e8008faa97004505be004504be0085af9f00d0
:1086f8000d0037000e48a300060032000fab9700ac
:108708004604be0086af9f004fcdde008a05780084
:10871800050037008fab97004704780087af9f00ac
:10872800cfc4de00614db900e00f5400e08f5c005b
:10873800e00f5d00e08f5d001b003d003e00b300d0
:108748006000b8006011b80008045000898458001f
:108758000a0559008b855900130037000e00e00008
:1087680005003d000fa897004005be004004be006c
:1087780080af9f000c0037000e48a30005003200b0
:108788008fa897004104be006055b80081af9f00d4
:10879800050037000fa997004204780082af9f00b8
:1087a8008004eb006055b800dfa997000300e000e3
:1087b80009003a0014002000d4af9f00e00f5400d5
:1087c800e08f5c00e00f5d00e08f5d00020032008a
:1087d8008002eb00d5af9f000e037800060cb200b4
:1087e80096af9f0000042000800f53002c00320039
:1087f80003003c000600e000080032003c0037009f
:10880800000820009fab9700808f530010003200b3
:10881800000c2000808f530035003a0085eb2100c2
:1088280014c0b3003500be003501be000040e100b1
:1088380001c8e10002d0e10003d8e1002b003900b3
:108848000442e800f44f5200f6ff3a0027003700d0
:1088580014c0b30000012000010020006011b8001e
:108868000040e10001c8e10002d0e10003d8e100c6
:108878001e003900450020000000d0008180d20091
:108888000281d2008381d2008502e900faff3a0012
:108898000442e800f04f5200f1ff3a00130037009d
:1088a80014c0b30080002000010020006011b8004f
:1088b8000040e10001c8e10002d0e10003d8e10076
:1088c8000a003900360020000000d0008180d20064
:1088d8000281d2008381d2000603e900faff3a0040
:1088e8000442e800f54f5200f1ff3a00a4779f00d8
:1088f800af7397000700fb00dfa89700810f5000b7
