:020000040000fa
:080000000c20040000000000c8
:020000040000fa
:1000080004180000081800000c1800001018000060
:1000180014180000bc180000bc180000bc18000030
:10002800181800001c1800002018000024180000f0
:10003800bc180000281800002c1800003018000018
:1000480034180000381800003c1800004018000060
:100058004418000048180000bc180000bc18000034
:100068004c180000501800005418000058180000e0
:100078005c180000bc180000bc180000bc18000088
:10008800bc18000060180000641800006818000020
:100098006c18000070180000741800007818000030
:1000a8007c18000080180000bc180000bc18000074
:1000b800bc18000084180000881800008c18000084
:1000c800bc18000090180000bc180000bc18000004
:1000d800bc18000094180000bc180000bc180000f0
:1000e800bc180000981800009c180000bc180000fc
:1000f800bc180000bc180000bc180000bc180000a8
:10010800bc180000bc180000bc180000bc18000097
:10011800bc180000bc180000a0180000bc180000a3
:10012800bc180000a4180000a8180000ac180000b3
:10013800bc180000bc180000bc180000bc18000067
:10014800b0180000bc180000bc180000bc18000063
:10015800bc180000b4180000bc180000bc1800004f
:10016800bc180000bc180000bc180000bc18000037
:10017800bc180000bc180000b8180000bc1800002b
:10018800bc180000bc180000bc180000bc18000017
:10019800bc180000bc180000bc180000bc18000007
:1001a800bc180000bc180000bc180000bc180000f7
:1001b800bc180000bc180000bc180000bc180000e7
:1001c800bc180000bc180000bc180000bc180000d7
:1001d800bc180000bc180000bc180000bc180000c7
:1001e800bc180000bc180000bc180000bc180000b7
:0801f800bc180000bc18000057
:020000040000fa
:103000000c200400000000007e31040000000000dd
:103010007e310400000000007e310400000000004a
:103020007e310400000000007e310400000000003a
:103030007e310400000000007e310400000000002a
:103040007e31040000000000a62004000000000003
:103050007e310400000000007e310400000000000a
:10306000c621040000000000301e04000000000023
:103070007e310400000000007e31040000000000ea
:103080007e310400000000007e31040000000000da
:1030900012230400000000007e3104000000000044
:1030a0007e310400000000007e31040000000000ba
:1030b0007e310400000000007e31040000000000aa
:1030c0007e310400000000007e310400000000009a
:1030d0007e310400000000007e310400000000008a
:1030e0007e310400000000001a22040000000000ed
:1030f0000a230400000000007e31040000000000ec
:103100007e310400000000007e3104000000000059
:103110007e310400000000007e3104000000000049
:103120007e310400000000007e3104000000000039
:103130007e310400000000007e3104000000000029
:10314000fe210400000000007e31040000000000a9
:103150007e310400000000007e3104000000000009
:103160007e310400000000007e31040000000000f9
:1031700018700400000000007e3104000000000010
:020000040000fa
:103180000000fa009840070060f021008040eb004a
:103190000148780080f0210081c0b3000148780028
:1031a00070f021008040eb000148780000582200b8
:1031b0000100200010f8880021f888000080fa0043
:1031c00000000600be00fa00889fbe008a9fbe0075
:1031d000abc8bf000004e0001f023a0001c4b30006
:1031e000c0a22100bb400700004f78001e407800bd
:1031f0000004e000c80132001e80fb00c1a22100d3
:103200000041eb0082707800c08420005001be00b5
:103210004000be00c48b2000009abe000292be0097
:103220002046800031468000e00f5000e08f5800bb
:1032300008003200c428ef00c628ef006a004700eb
:103240002201200041f02e008e1007006a00470086
:10325000742c0700c0a22100104078000080fb0001
:103260006101b900f0fc2f00f1ff2f0002004000c7
:10327000838048003204200003002000820f5000a9
:10328000838f5800f1013e000060010043003700c9
:103290005d003700ef013700ee013700ed01370028
:1032a000ec013700eb013700ea013700e901370094
:1032b000e8013700e7013700e6013700e501370094
:1032c000e4013700e3013700e2013700e101370094
:1032d000e0013700df01370089013700dd013700e9
:1032e000dc013700db013700da013700d901370094
:1032f000d8013700d7013700d6013700d501370094
:10330000d4013700d3013700d2013700d101370093
:103310004b003700cf013700ce013700cd01370019
:10332000cc013700cb013700ca013700c901370093
:10333000c8013700c7013700c6013700c501370093
:10334000c4013700c3013700c20137004f00370006
:10335000400137006c003700570137008800370004
:10336000bc01370058003700ba013700b9013700f7
:10337000b8013700b7013700b601370070003700d9
:103380000a0137001d013700b2013700b1013700d3
:103390002e013700af013700bc0037006042070044
:1033a00010479800694207002047980072420700c2
:1033b000304798003e4090008001fb002e40900076
:1033c0000001fb001e4090008000fb00c0a6210011
:1033d000831f7800821f7800811f780061f12e0022
:1033e000811f7800e2140700e8875700c0a621007b
:1033f000591007000040780080407800c0a62100e6
:103400006540070094013700c0a62100a178210083
:10341000811f780011f22e00811f7800d41407005c
:10342000e4875700c0a621004b1007000040780039
:1034300080407800c0a62100574007008601370071
:103440001e407800e24f500002003600e0a221004a
:10345000d12c0700e1428000c0a62100811f780026
:1034600061f22e00811f7800c1140700e487570025
:10347000c0a6210038100700004078008040780086
:10348000c0a6210044400700730137002ac8bf00ce
:103490008000fb00c0a62100811f7800b1f22e0041
:1034a000811f7800b2140700e4875700c0a62100ee
:1034b000291007000040780080407800c0a6210055
:1034c0003540070064013700b0418000c1418000f1
:1034d000c2a62100809fbe0000f32e00801f78004e
:1034e00002007800a2140700e6875700c0a621005a
:1034f000191007000040780080407800c0a6210025
:103500002540070054013700c0a6210001442e00c9
:10351000811f780061f32e00811f7800941407004a
:10352000e4875700c0a621000b1007000040780078
:1035300080407800c0a621001740070046013700f0
:103540004042800051428000c2a62100809fbe0000
:10355000b0f32e00801f780002007800841407006a
:10356000e6875700c0a62100fb0f07000040780047
:1035700080407800c0a621000740070036013700d0
:103580001e407800e24f50001f0036002ec8bf00da
:103590000004e00017003a006a00470052012000d2
:1035a00011f42e00b70f07006a0047009d2b07009b
:1035b00010c0b3002ee8b700c0a221000080e800d0
:1035c000850f07008041880091418800804180007c
:1035d00091418000c2a62100809fbe0060f52e00b0
:1035e000801f78000200780061140700e68757000a
:1035f00016003700c0a6210062002000c1f52e0091
:10360000a00f0700110037002ec8bf00e14f500087
:103610000a003a008041800091418000c2a621004a
:10362000809fbe0060f52e00801f780002007800a9
:103630004f140700e687570004003700c0a621009a
:103640008200200021f62e008e0f07006a0047003e
:10365000c1a62100811f7800a1f62e00811f7800ed
:1036600043140700e48757006a0047006d2b0700ea
:10367000c0a62100b80f0700004078008040780005
:10368000c0a62100c43f0700f30037001e407800a9
:10369000e34f500027003600c0a221000080e80060
:1036a000e02a0700c4842000009abe000292be00f7
:1036b000c08420005001be004000be0044852000b0
:1036c000009abe000292be00c08420003002be00fc
:1036d0002003be00408820005001be004000be0014
:1036e0000000420081804a0002014b0083814b00b0
:1036f000c4872000009abe000292be000021ef00a5
:10370000c08420005001be004000be006a02470095
:10371000809fbe00829fbe0010f72e00801f7800a1
:103720000400780012140700ea8757006a00470077
:103730003c2b0700408520003002be002003be0065
:10374000000880006104b8006055b800c084200003
:103750005001be004000be000000440081804c00cb
:1037600002014d0083814d00c8a62100849fbe0048
:10377000869fbe00809fbe00829fbe0030f82e0054
:10378000801f780008007800f9130700f2875700bf
:10379000c0a62100700f070000407800804078002c
:1037a000c0a621007c3f0700ab0037001e40780018
:1037b000e34f500003003600c0a221000080e80063
:1037c0000a2c0700c0a62100a16e2100811f7800ed
:1037d000f1f82e00811f7800e5130700e4875700f9
:1037e000c0a621005c0f07000040780080407800f0
:1037f000c0a62100683f0700970037001e407800f0
:10380000e34f500003003600c0a221000080e80012
:103810000b2c0700c0a62100e16f2100811f78005a
:1038200041f92e00811f7800d1130700e48757006b
:10383000c0a62100480f07000040780080407800b3
:10384000c0a62100543f0700830037000000fe009f
:1038500081003700e2418000f34180000042800097
:1038600011428000541680004d22de006142620049
:103870000482fb00e1021200c4a62100829fbe0068
:10388000809fbe00851f780090f92e00801f780071
:1038900004007800b6130700ec875700c0a621008b
:1038a0002d0f07000040780080407800c0a621005e
:1038b000393f070068003700c0a221000080e800ff
:1038c000c50e07002007980031079800c0a6210008
:1038d00041c6b30001487800ff4007000304200000
:1038e000d2a621002e009000be009000a340070049
:1038f00011c4b300c0a62100273f070056003700bf
:103900000000200011002000204688003146880079
:103910000000000050003700204680003146800043
:10392000e00f5000e08f580022003200f00f20001e
:1039300040079800e840070020468000314680009c
:10394000ce019000c2a621008c4007004e009000de
:103950006101b9002046800031468000020040002d
:103960008380480020468800314688002246800037
:10397000334680004042800051428000800f510059
:10398000818f590002003600c428ef00c628ef00de
:1039900080c0eb00c0a62100ff3e0700c0842000cd
:1039a0005001be004000be00c48b2000009abe0043
:1039b0000292be00c08420003004be002005be007c
:1039c000c08b20005001be004000be000002540029
:1039d00081825c0002035d0083835d00000028009b
:1039e000010020006011b8000020e10001a8e10002
:1039f00002b0e10003b8e10017003600c0a62100c4
:103a0000a16e2100811f780041fa2e00811f7800ed
:103a100057130700e4875700c0a62100ce0e070009
:103a20000040780080407800c0a62100da3e070000
:103a3000c08420005001be004000be00c48b2000a6
:103a4000009abe000292be00030037000000000092
:103a50000100370000000000333f07004f05be00a3
:0c3a60004f04be000080fa0000000600c9
:020000040000fa
:103a6c000400fa00100798000040eb00004f7800ab
:103a7c00110037001e80fb006a00b900800078003e
:103a8c0040f7210000804000900078001e0090005c
:103a9c00808f500007003a001e80fb006a00b900be
:103aac008000780040f72100008040008000eb008f
:103abc00010878001e4fe8001e4078000004e0006a
:103acc00ecff32000080fa00000006000800fa004b
:103adc001007980022079800330798000040eb006d
:103aec00004f7800210037001e80fb006a00b900ef
:103afc008000780040f72100008040001000780022
:103b0c000000e00018003a001e80fb006a00b900bb
:103b1c008000780040f72100008040009e0090005b
:103b2c00010878001e80fb006a00b9008000780054
:103b3c0060f72100008040002e019000be01900033
:103b4c000288be001e80fb006a00b900800078006d
:103b5c00a0f72100008140006000b8000089be0081
:103b6c0010c0b300050037001e4fe8001e4078005f
:103b7c000004e000dcff32000040eb000080fa00a3
:103b8c00000006000200fa00000f78001e0078000a
:103b9c00e10f500017003200e10f50000300390014
:103bac00e20f50002500320027003700a200200051
:103bbc008000eb0040f72100360e07004005800026
:103bcc000000a0000010a1000020a100400588000a
:103bdc008500a9000a21ef00007d200070088800f4
:103bec0000012a00900888009500a80010c0b300be
:103bfc0016003700a20020008000eb0040f72100e7
:103c0c00240e07002005800000c0a10000d0a100f8
:103c1c0000e0a000200588008460a9000021ef00ce
:103c2c0000002800100888002000280020088800c8
:103c3c009460a80010c0b300040037009500a900e0
:103c4c0010c0b300010037000040eb000080fa0008
:103c5c00000006003600f800809fbe00829fbe0068
:103c6c00849fbe00869fbe003400f8000000200038
:103c7c00a00188000200fa000040eb00004f780021
:103c8c00360037001e80fb006a00b9008000780007
:103c9c0040f7210000804000100078000000e00098
:103cac002d0032001e81fb006a10b9000000780064
:103cbc00e600400040f72100008040001000be00ec
:103ccc0061004000e08048006a11b9008201780070
:103cdc00a2f72100028141000089be001e80fb007a
:103cec006a00b90000007800e600400040f72100af
:103cfc00008040001001be001e80fb006a00b9006d
:103d0c00000078008080e80040f72100008040002f
:103d1c001000be00800f5100818f59000e003a0038
:103d2c001e80fb006a00b9008000780040f721007b
:103d3c000080400010007800000001001e80fb0095
:103d4c006a00b90080007800a0f7210000814000d3
:103d5c006000b8000089be001e4fe8001e407800cd
:103d6c000004e000c7ff32008500a9000080fa00c3
:103d7c003400f9004f03be004f02be004f01be00dd
:0c3d8c004f00be003600f90000400600a9
:020000040000fa
:103d98000200fa00000f78001e007800e30f5000c0
:103da80007003e00e20f5000090031000000e0006b
:103db80009003200e10f500003003200070037000d
:103dc800e40f500005003a00cd02a90003003700b7
:103dd800cce2a90001003700000000000080fa00d2
:103de800000006000200fa00000f78001e007800ac
:103df800e30f500007003e00e20f500009003100b9
:103e08000000e00009003200e10f5000030032001a
:103e180007003700e40f500005003a00cd02a80063
:103e280003003700cce2a8000100370000000000c2
:103e38000080fa00000006000200fa00000f780077
:103e48001e007800e30f500007003e00e20f50000c
:103e5800150031000000e00021003200e10f5000a1
:103e6800030032001f003700e40f50001d003a0025
:103e7800601680004800de00614060000004a20077
:103e8800614060000080fb00610060004800dd00c8
:103e980062168000f1ef2f008100610001007000c0
:103ea800601688000f003700601680004700de00ab
:103eb800614060000004a200614060000080fb00d7
:103ec800610060004700dd0062168000f1f72f00f6
:103ed8008100610001007000601688000100370051
:103ee800000000000080fa00000006000200fa004e
:103ef800000f78001e007800e30f500007003e0016
:103f0800e20f5000090031000000e0000900320013
:103f1800e10f50000300320007003700e40f5000a3
:103f280005003a00c902a90003003700c8e2a90049
:103f380001003700000000001e007800a9ff0700fc
:103f48000080fa00000006000600fa00100798003a
:103f5800210798000000eb00000f78000000eb003c
:103f6800000f78000b0037001e00900088ff070044
:103f780000a02600810120000c0007001e00900010
:103f880098ff070000a02600810120000700070015
:103f98001e0fe8002e0090009e007800808f5000d1
:0c3fa800f1ff39000080fa000000060064
:020000040000fa
:103fb400f03fb1000180b10006003500ee030900b6
:103fc40000000000403fb1000180b100fbff3d0054
:103fd4001000b000203fb00002003500008009004e
:083fe4000000000000000600cf
:020000040000fa
:104000004f630000742000002038000020320000c0
:0840100030310000390000000e
:020000040000fa
:104018000f0322000e7f22000e018800000000001e
:10402800000020000000e000020032000001200033
:10403800200288000c000700e0522900010020003f
:1040480011000700000020000000e000020032001c
:1040580000000200000000003427020000000000f9
:104068000040da000000fe004440a900c0ba200069
:104078000000e0000300320000002000a0018800da
:104088004440a800000006009101880080007800e4
:104098000000eb0015003700e280400032a0b400b9
:1040a8009101ba00e280400032a0b4009102ba0047
:1040b800e280400032a0b4000002eb00472bde0093
:1040c800f507b200602ce10004003a000059eb004b
:1040d8008301e900fdff3e00040037006128e1008c
:1040e800010032000082eb00040007001101ba0051
:1040f8000200e000e8ff3a00000006003159ba006b
:104108008301e9000c0032002159ba008301e9005b
:10411800080032000400e00003003a00e28040009a
:1041280032a0b400f5ff370011d9ba008301e900c5
:10413800faff3a008100e800e180400032a0b400b4
:10414800000006003600f800809fbe00829fbe0077
:10415800849fbe00869fbe00889fbe008a9fbe00c7
:104168003400f80000002000a0018800bc00fa001c
:104178008460a900100880000000e8006102b8000f
:104188006033b800c08420005001be004000be006b
:104198000000420081804a0002014b0083814b00ed
:1041a800c4842000009abe000292be00c084200091
:1041b8003004be002005be00404680008000eb00b1
:1041c8000001be000000280001002000320907009d
:1041d8004f89de00820178000203be000002be00a3
:1041e8000800be000a01be00970a0700009fbe0033
:1041f8000297be00404680008000eb000001be0030
:1042080000002800010020002309070000007800b2
:104218000000e900100888003e00be002e01be0024
:10422800e00f5000e08f5800e00f5900e08f590070
:104238000c003200404680008000eb000001be0008
:104248000000280001002000130907008000780002
:104258001e00780080805000100880000080400018
:1042680010088800c08420003002be002003be0071
:10427800c08720005001be004000be000020e100c1
:1042880001a8e10002b0e10003b8e1002300360014
:10429800408820005001be004000be00e00f5000e2
:1042a800e08f5800e00f5900e08f59001b003200e2
:1042b80000000000000880000000e000fdff320060
:1042c80001088000604480000080400000088800e9
:1042d800c08720003002be002003be0040882000b6
:1042e8005001be004000be000000420081804a002c
:1042f80002014b0083814b00c4872000009abe0056
:104308000292be00680047008200200051452e003e
:104318005a0c070068004700402807006081200009
:104328003002be002003be00100020000100200063
:104338006011b8000000420081804a0002014b0071
:1043480083814b0064812000009abe000292be0067
:104358000dc8bf000040e8000de8b7000080fa0073
:104368003400f9004f05be004f04be004f03be00e5
:104378004f02be004f01be004f00be003600f900dc
:10438800004006003600f800809fbe00829fbe00f5
:10439800849fbe00869fbe003400f8000000200005
:1043a800a0018800b400fa0084e0a90030002000d1
:1043b800a1fe0700400020009ffe070062002000c9
:1043c800d1452e000e0078002c0c07000e00780056
:1043d800122807000080fa003400f9004f03be00dd
:1043e8004f02be004f01be004f00be003600f9006c
:1043f80000400600801f78003400f800000020000c
:10440800a00188000000fa008bc0a90023e6a800dc
:1044180027e6a80010c0b3000ce8b7000080fa0037
:104428003400f9004f007800004006003600f8001c
:10443800809fbe00829fbe00849fbe00869fbe00f4
:10444800b800fa007ac8bf000040e8007ae8b70070
:1044580090118000620060000000e000010032005e
:104468003222a90090118000640060000000e00082
:10447800010032003242a9009011800068006000fb
:104488000000e000540032003262a90053003700f7
:10449800b0118000204798002e409000ea4f50004d
:1044a800060032002e409000ed4f5000030032000d
:1044b8002e4090000004e00023003a0030408000c5
:1044c8000000e0001e0034004140800033408000be
:1044d800a28d2000800720000088b9000000780025
:1044e80003004000000041008040eb0001487800d4
:1044f80040408000000fe8001e007800fd0f5000cb
:10450800020034000000eb00000f780050408000eb
:104518009e007800808f500007003a006300470033
:104528001201200031462e00d40b0700630047001b
:10453800ba270700020037009e0078004140880033
:104548000628ef00250037004140800034408000f5
:104558002e419000a38d2000800720000088b9001c
:104568000000780004004000008041000248780004
:10457800304080000000e800304088003140800072
:1045880070072000808f50001400340041408000e4
:10459800304080008001e900a28d200080072000c3
:1045a8000088b900000078000300400000004100c6
:1045b8008040eb00014878006300470012012000aa
:1045c80041472e00ad0b0700630047009327070003
:1045d8000628ef000100370000000000901180005d
:1045e800610060000000e000a9ff3a0087c0a90050
:1045f8000080fa004f03be004f02be004f01be000c
:104608004f00be003600f900004006000000fa0026
:1046180087e0a9000080fa00004006003600f80094
:10462800809fbe00829fbe00849fbe00869fbe0002
:10463800b400fa008200200051482e000e007800d5
:104648008e0b07000e007800742707000080fa0020
:104658004f03be004f02be004f01be004f00be0018
:104668003600f900004006002000fa00889fbe00ce
:10467800600f9800710f9800e0428000e30f50002f
:104688005b003a00704480000000e00025003a001a
:104698008f0b07006101b900f0ff27000100280017
:1046a8000202780003017800800178000100780098
:1046b80003026200000061006101b800c011dd0062
:1046c800020020000200be006121b8000200700054
:1046d80083807000e00f5000e08f580008003d0014
:1046e80061005000e080580002002800f3ff2f000e
:1046f800020070008380700061004000e080480084
:104708000000780070448800710b070001712200d6
:1047180001017800110009000200d8008000fd00a6
:1047280080448800c08420005001be004000be00c4
:1047380004002000550020006033b800420907003b
:104748002007980031079800704480006101b90083
:104758002e009000be0090000200400083804800b8
:10476800fe070700020020000370240088070700e6
:104778000001be002907070062e520009304240019
:104788004b080700020020000312240080070700de
:1047980040079800510798004e009000de009000f6
:1047a8007708070002002000a347240040080700fc
:1047b80002002000a34f2400180707000004be00d1
:1047c80080448000cf80de00e10707000001be00c2
:1047d8000800be00110707006007980071079800dd
:1047e8006e009000fe009000be0707002d00370005
:1047f8005083240031e02300000f9800110f980027
:1048080000002500317c2400200f9800310f98000b
:104818006e089000fe089000d007070002002000f4
:1048280003a024005a070700400f9800510f980072
:104838000e0990009e0990004e089000de08900036
:10484800530707002e099000be0990005007070083
:10485800024022004397240015080700008fbe007d
:1048680018c0b30002002000c33024001e00be00a0
:104878009a0707000000e00001003c000044eb003c
:104888000804e000020032006000b800008fbe009b
:1048980002002000a34724001e00be0004080700f1
:1048a800900707004f04be000080fa0000000600d1
:1048b800ba00fa00183d07000080fb00000f7800de
:1048c800203d07000080fb0010079800283d0700e6
:1048d8000080fb00200798009e007800618060003f
:1048e800004078000004e00006003200660047003f
:1048f80092002000d1482e00e00a07006600470019
:10490800c62607009e007800628060000000e00074
:1049180006003200660047008200200061492e0030
:10492800d60a070066004700bc2607009e007800ec
:10493800648060000000e000060032006600470066
:1049480082002000e1492e00cc0a070066004700db
:10495800b22607009e007800688060000000e00032
:10496800060032006600470082002000614a2e00df
:10497800c20a070066004700a82607009e007800c4
:10498800708060000000e00006003200660047000a
:1049980082002000e14a2e00b80a0700660047009e
:1049a8009e260700000220001e0060000000e000b4
:1049b8000600320066004700b2012000614b2e005d
:1049c800ae0a07006600470094260700000420008e
:1049d8001e0060000000e00007003200660047008b
:1049e80032012000114d2e00a40a0700660047007e
:1049f8008a260700060037006600470042012000ab
:104a0800414e2e009d0a07006600470083260700d6
:104a1800000820001e0060000000e00007003200cf
:104a28006600470032032000814f2e00930a0700da
:104a38006600470079260700060037006600470031
:104a480012042000b1522e008c0a070066004700ad
:104a5800722607001e009000610060000040780088
:104a68000004e0000700320066004700d202200080
:104a7800c1562e00810a0700660047006726070016
:104a880006003700660047003203200091592e00c7
:104a98007a0a070066004700602607001e0090009b
:104aa800620060000000e000060032006600470077
:104ab80072002000c15c2e00700a070066004700e3
:104ac800562607001e009000640060000000e00009
:104ad800060032006600470082002000315d2e008b
:104ae800660a0700660047004c2607001e00900073
:104af800680060000000e000060032006600470021
:104b080082002000b15d2e005c0a070066004700a5
:104b1800422607001e009000700060000000e000c0
:104b2800060032006600470082002000315e2e0039
:104b3800520a070066004700382607009e009000ca
:104b480000022000008060000000e0000600320043
:104b58006600470082002000b15e2e00470a070069
:104b6800660047002d2607009e00900000042000e4
:104b7800008060000000e000060032006600470088
:104b880002022000315f2e003c0a07006600470041
:104b9800222607009e009000000820000080600088
:104ba8000000e00006003200660047000202200014
:104bb80031612e00310a07006600470017260700fa
:104bc8002e00900061006000004078000004e000c2
:104bd80006003200660047008200200031632e0084
:104be800260a0700660047000c2607002e009000e2
:104bf800620060000000e000060032006600470026
:104c08008200200031632e001c0a0700660047005e
:104c1800022607002e009000640060000000e000fb
:104c280006003200660047008200200031632e0033
:104c3800120a070066004700f82507002e009000ba
:104c4800680060000000e0000600320066004700cf
:104c58008200200031632e00080a07006600470022
:104c6800ee2507002e009000700060000000e000b4
:104c7800070032006600470082012000b1632e0061
:104c8800fe09070066004700e42507000600370014
:104c9800660047007201200031652e00f709070001
:104ca80066004700dd250700ae00900000022000e6
:104cb800008060000000e000060032006600470047
:104cc80072002000a1662e00ec090700660047006c
:104cd800d2250700ae00900000042000008060008c
:104ce8000000e00006003200660047007200200065
:104cf80011672e00e109070066004700c725070075
:104d08000080fa0000000600cc00fa007800470096
:104d1800e202200081672e00d809070078004700ca
:104d2800be250700e2fe0700000020001100200059
:104d3800008fbe002f003700780147001e00be001c
:104d4800809fbe00606a2e00801f780002007800f5
:104d58000c0b0700e687570078004700af250700cf
:104d6800e40047006800470042002000c30907002c
:104d78006800470043002000000178001e00be00c4
:104d8800543b070068004700030120000001780039
:104d98001e00be00773b07003e4890000082fb00e3
:104da8002e4890008081fb001e4890000081fb0087
:104db8000e4890008080fb0078004700841f780030
:104dc800831f7800821f7800811f7800916b2e0066
:104dd800811f7800eb0a0700ea8757007800470030
:104de8008e25070000002000810020001e0f4000d3
:104df8005e974800f0ff2f00f10720001e01be005b
:104e0800800f5100818f5900cbff36006000b80039
:104e1800008fbe0004003700000020008100200041
:104e28001e0f40005e974800f0ff2f00f10720009a
:104e38001e01be00800f5100818f5900f6ff360019
:104e480030002000d2fb070040002000d0fb070004
:104e580000402200410f200054fc0700ffff3700ec
:104e6800d600fa00889fbe008a9fbe0020c0b3000b
:104e78002ae8b700648120006000b8006011b8001b
:104e8800009abe000292be00e48120006000b800d3
:104e98006011b800009abe000292be00c4842000cf
:104ea8006000b8006011b800009abe000292be000f
:104eb800c22e070040002000b5fb070000a0260016
:104ec8008101200039fc070040002000c5fb0700d5
:104ed80030002000aefb070000a026008101200062
:104ee80032fc070030002000befb07000240220011
:104ef800430f200000202c00110020008e2d0700f9
:104f0800100220000e00400022012000e16c2e005b
:104f18005a090700100220000e0040003f25070034
:104f2800100220000e00400092002000016e2e00aa
:104f380052090700100220000e0040003725070024
:104f48003a2b07006c2e07004e2507004247a900a0
:104f580002402200430f200000202c0011002000f6
:104f6800bc2d070000102700210020000ffc0700bf
:104f7800100220000e004000f2002000916e2e006a
:104f88003e090700100220000e00400023250700fc
:104f9800ca260700200f98002e0890000000e000a5
:104fa80029003a00100220000e0040008201200073
:104fb800816f2e0031090700100220000e0040000a
:104fc80016250700100220000e004000b200200045
:104fd80001712e0029090700100220000e00400070
:104fe8000e250700b0712e00bb24070027260700f6
:104ff8007425070080007800a07821004e0907007a
:1050080081250700100220000e004000a178210031
:10501800811f7800d1712e00811f7800d20d070002
:10502800e4875700100220000e004000fb24070010
:1050380031732e00a0782100380907000000e00035
:105048001600320010003700100220000e00400049
:10505800ae089000811f780011752e00811f78001e
:10506800c10d0700e4875700100220000e00400021
:10507800ea240700f624070000402200410f200020
:10508800cafb0700baff370041762e00a07821003e
:10509800220907000000e00041003a001002200049
:1050a8000e004000b2032000f1772e00f30807003d
:1050b800100220000e004000d8240700df2407005b
:1050c80000402200410f2000b8fb070030002000fc
:1050d8002ffb0700400020002dfb0700352c0700a0
:1050e8000000eb00000f78000000eb00500f980064
:1050f800e6250700600f98006e0890000000e000a9
:1051080002003a0000000000f9ff370010022000fa
:105118000e0040006e099000821f7800a17b2e00cf
:10512800811f7800900d0700e487570010022000c7
:105138000e004000b9240700117c2e006e08900074
:10514800f60807000000e00002003a001000200006
:10515800000f78001e0078000000e0000e0032000a
:10516800b17c2e006e089000ec0807000000e000fb
:1051780009003a00100220000e0040001202200030
:10518800f17c2e00bd080700100220000e00400030
:10519800a22407000000fe001b250700d4ff3700eb
:1051a800c9e2a900cbe2a8004a2a0700cd390700c6
:1051b800263a0700353a0700ff0047007e004700ff
:1051c800973a07006e589000e14f50000c003a00e3
:1051d8007e589000f64f500009003a001002200057
:1051e8000e004000d2002000017f2e00a308070017
:1051f800100220000e00400088240700130037002a
:105208007e5890000081fb006e5890008080fb0063
:10521800100220000e004000821f7800811f7800d5
:10522800d17f2e00811f78004f0d0700e6875700b9
:10523800100220000e0040007824070030002000f3
:10524800d3fa070040002000d1fa07003c290700e4
:10525800100220000e0040000201200011822e00e2
:1052680086080700100220000e0040006b2407008b
:10527800a23907004042880051428800404280001d
:1052880051428000120220000e014100809fbe00a2
:1052980010832e00801f780002007800320d07006e
:1052a800e6875700100220000e0040005b2407002c
:1052b800293b0700501680004900de00614060006d
:1052c8008080fb00100220000e004000811f780043
:1052d80001842e00811f7800230d0700e487570002
:1052e800100220000e0040004c2407006000b800a7
:1052f800100798002107980000242400f1002000de
:1053080030079800410798000000eb00500798000c
:1053180050052000303b8800a00a2000303b880060
:1053280027a6a800303180000080a0000090a000cf
:105338003031880000012000203188001010200042
:105348002031880010102000203188001010200023
:10535800203188006939070040428800514288009e
:105368004042800051428000120220000e0141009c
:10537800809fbe0010832e00801f780002007800f6
:10538800f90c0700e6875700100220000e004000c5
:10539800222407004242800053428000f0ff2f0081
:1053a80001002000800f5100818f59000c003e0041
:1053b800100220000e00400082022000c1842e004e
:1053c8002e080700100220000e00400013240700da
:1053d800000020001100200040428800514288004f
:1053e80010c0b300be2d07001100200030002000bf
:1053f800d5fa07003b3b0700600798006e00900055
:105408000000e00015003a00100220000e004000e5
:10541800a201200041872e00180807001002200072
:105428000e004000fd2307002e3b07006007980090
:105438006e0090000000e00008003a001002200012
:105448000e00400012012000e1882e000b08070022
:10545800100220000e004000f02307000c68ef0047
:105468000d68ef001a3a07000000e000080032005b
:10547800100220000e00400092002000d1482e00ab
:10548800fe070700100220000e004000e32307007b
:105498000000eb00700798000000eb00000f980078
:1054a8000000eb00ca220700982d07001002200018
:1054b8000e004000f2002000f1892e00ef070700df
:1054c800100220000e004000d42307000000eb006b
:1054d800300f980032250700e5220700304280008f
:1054e800e20f500003003a004628ef00e08a2e0041
:1054f80079230700511680000020200000806000fa
:105508000000e00001003200d32f07002ec8bf00c2
:105518000004e00051003200853a07000000e00076
:1055280001003a002a023700804180009141800042
:10553800120220000e014100809fbe00208b2e0029
:10554800801f780002007800870c0700e687570064
:10555800100220000e004000b023070082418000a6
:1055680093418000f0ff2f00f1072000800f5100c9
:10557800818f59002a003e008041800091418000bf
:10558800020220000e0141001300200079390700b3
:105598000e6090008080fb00100220000e0040008a
:1055a800811f7800518c2e00811f78006e0c070037
:1055b800e4875700100220000e00400097230700e0
:1055c8000e609000e14f40000400320080418000ee
:1055d80091418000213a070008003700100220009e
:1055e8000e00400092002000118d2e00a307070036
:1055f800100220000e00400088230700824180002e
:1056080093418000000020001100200002004000ab
:10561800838048008041880091418800ec01370070
:10562800100220000e00400072012000a18d2e0003
:1056380092070700100220000e00400077230700a1
:105648003f2807002e68ef0000002000110020000e
:1056580040428800514288003a28ef000dc8bf0038
:105668000004e0000a003a005116800000202000e3
:10567800008060000000e00004003a00bf2307003b
:105688000004e000010032000140fe00d0013700b4
:1056980086220700e0428000e10f500018003a001f
:1056a800c08420003002be002003be00f0ff2700a7
:1056b800010020006011b8000000620081806200d3
:1056c8000201630083816300e00f5000e08f5800ff
:1056d800e00f5900e08f590009003a00408520008a
:1056e8005001be004000be00e00f5000e08f58009f
:1056f800e00f5900e08f59000100320072290700bd
:105708000dc8bf00e14f500008003400100220000f
:105718000e00400062002000118f2e00570707007e
:10572800100220000e0040003c2307000d68ef0027
:105738000040eb00205798008e3a0700300f980081
:105748003e0890000000e0000d003a001002200022
:105758000e004000b2002000718f2e00470707009e
:10576800100220000e0040002c2307005d3a0700bd
:105778000e0890000000e800000f9800360037007f
:1057880090468000a1468000b7fb0700b041880022
:10579800c1418800b2418000c3418000200320003d
:1057a80001002000800f5100818f5900250036002c
:1057b800b2418000c3418000f02d2200210020006a
:1057c800800f5100818f59001e003e0010c0b300a9
:1057d800205798000000eb0070079800b241800045
:1057e800c34180001e009000ae009000800f510061
:1057f800818f590004003600b2418000c341800007
:105808001207980023079800b2418000c341800026
:105818003e009000ce009000800f5100818f59000b
:1058280004003100b2418000c34180003207980073
:10583800430798005e0090000000e80050079800b9
:10584800050037007e0090000000e800700798000f
:105858003628ef003828ef00c08420003004be004e
:105868002005be00f0ff2f00310020006011b800b5
:10587800000264008182640002036500838365007e
:1058880000002000110020006011b8000020e10095
:1058980001a8e10002b0e10003b8e10002003a000b
:1058a8009d2a0700150037002e5090000004e000e4
:1058b80012003200c08420003002be002003be0067
:1058c800f0ff2300010020006011b8000000620012
:1058d800818062000201630083816300e00f500051
:1058e800e08f5800e00f5900e08f590003003a009c
:1058f800b0418000c1418000a82a07002e509000c6
:105908000004e0000c003200511680000020200046
:10591800008060000000e00007003a006046800058
:105928000000e00004003200e0428000e20f500076
:1059380001003a009a250700511680000020200037
:10594800008060000000e0000d003a00fe009000ba
:1059580080022000808f500009003400e04280005f
:10596800e10f5000060032003a28ef004d01070011
:1059780010002000604688000000eb0070079800c7
:105988003468ef00d7390700300f98006e00900098
:105998000000e00015003a00100220000e00400050
:1059a800a201200041872e00b40607001002200043
:1059b8000e00400099220700ca39070060079800c6
:1059c8006e0090000000e00008003a00100220007d
:1059d8000e0040000201200021902e00a7060700bb
:1059e800100220000e0040008c2207000dc8bf00e6
:1059f8000004e00008003200100220000e00400001
:105a08006200200021912e009c0607001002200051
:105a18000e004000812207002e5090000004e00094
:105a28006b003200e08120003002be002003be007f
:105a380010002000010020006011b80000004200a2
:105a480081804a0002014b0083814b00e4812000e1
:105a5800009abe000292be00d04180000000e00023
:105a680018003a00c08420005001be004000be006b
:105a7800140220000e024200809fbe00829fbe00da
:105a880080912e00801f780004007800360b0700f4
:105a9800ea875700100220000e0040005f2207002e
:105aa800d1418000607c21000080400082002000fd
:105ab800c184200071060700d041800068004000c2
:105ac800d0418800d1418000607c210000804000e6
:105ad800420020006183200068060700d041800052
:105ae80064004000d0418800d141800000102000af
:105af800808f500036003a0080842000400f9800c4
:105b08004e089000104078000083fb004e0890007b
:105b18000000e800104078008082fb004e089000ea
:105b28000080e800104078000082fb004e089000da
:105b380063004000104078008081fb0040428000f4
:105b480051428000120220000e014100861f780099
:105b5800851f7800841f7800831f7800809fbe000f
:105b6800e0922e00801f780002007800fe0a0700ed
:105b7800ee875700100220000e0040002722070081
:105b88004242800053428000f0ff2f00f1072000be
:105b9800800f5100818f59000c003e004c380700df
:105ba800404280005142800003102000627c2100a6
:105bb800c837070040428000514280000010b00002
:105bc8000180b00040428800514288003a28ef0026
:105bd800c08420003002be002003be00f0ff2f006a
:105be800110020006011b80000006200818062008e
:105bf8000201630083816300e00f5000e08f5800ca
:105c0800e00f5900e08f590064003a00b1270700ff
:105c1800b4418000c5418000501680004900de0074
:105c2800614060000084fb00501680004d00de00db
:105c3800614060008083fb000242800013428000c4
:105c4800e0418000f1418000160220000e0343006d
:105c5800849fbe00881f7800871f7800829fbe003f
:105c6800809fbe00f0942e00801f78000600780008
:105c7800bd0a0700f2875700100220000e004000fe
:105c8800e6210700d3418000404280005142800055
:105c9800120220000e014100831f7800809fbe0081
:105ca800e0972e00801f780002007800ae0a0700f7
:105cb800e8875700100220000e004000d721070097
:105cc8000e0890000000e0000d00340010022000d3
:105cd8000e0040008e099000831f780061992e0005
:105ce800811f7800a00a0700e487570010022000ef
:105cf8000e004000c92107000000eb00000f9800cb
:105d080000682900810920003007980041079800a1
:105d18006000b80010079800210798000000eb0009
:105d28005007980051168000002020000080600075
:105d38000000e0000e003200648120006000b8001e
:105d48006011b800009abe000292be00e4812000f3
:105d58006000b8006011b800009abe000292be0050
:105d68006000b80030418800414188000a003700cf
:105d780030418000414180006011b80055020700a1
:105d88000000e00004003a00004280001142800058
:105d98003041880041418800cf2307000dc8bf006b
:105da800e14f500008003400100220000e004000af
:105db80062002000519a2e00b00507001002200052
:105dc8000e004000952107000d68ef00bffd370069
:105dd800befd37000000fa00889fbe008a9fbe0003
:105de800bb0507006101b900f0ff2f003100280052
:105df8000202780003017800800178000100780031
:105e080003026200000061006101b800c011dd00fa
:105e1800020020000200be006121b80002007000ec
:105e280083807000e00f5000e08f580008003d00ac
:105e380061005000e080580002002000c3ff2f00de
:105e4800020070008380700061004000e08048001c
:105e58000004be004fcdde008a057800c084200013
:105e68005001be004000be000002440081824c0088
:105e780002034d0083834d000000200061002000d4
:105e88006011b8000000420081804a0002014b0006
:105e980083814b004f05be004f04be000080fa000e
:105ea80000000600ca00fa00889fbe008a9fbe0054
:105eb8007600470042012000b19a2e006f050700c6
:105ec80076004700552107000000eb00000f78001e
:105ed80030002000c3f7070040002000c1f707008a
:105ee8000040eb00fe2a0700592107008c29070013
:105ef800b8ff07001007980021079800320798009c
:105f0800430798000100370000000000a4220700a2
:105f18001e0fe80010c0b30034e8b7005116800027
:105f280000202000008060000000e0001300320024
:105f3800422107003000200095f7070000a0260046
:105f48008101200019f8070030002000a5f707009c
:105f580000a026008101200014f80700300020006e
:105f68008bf7070000a02600810120000ff807002a
:105f7800300020009bf70700ad0037000040fe000e
:105f8800c08420003002be002003be00f0ff2f00b6
:105f9800310020006011b8000000620081806200ba
:105fa8000201630083816300e00f5000e08f580016
:105fb800e00f5900e08f590007003a003000200038
:105fc80073f707000010270021002000f7f70700eb
:105fd8003000200083f70700c08420003002be0094
:105fe8002003be001e009000ae0090003e0190000d
:105ff800ce0190000020e10001a8e10002b0e1001c
:1060080003b8e100c0ff3600800020004046880049
:106018003123070076004700c2002000f19b2e00c4
:106028001605070076004700fc200700032107003b
:10603800c08420003002be002003be005407980030
:106048006507980076079800070f98000100370049
:106058000040fe00c08420003004be002005be00c1
:106068005e009000ee0090007e0190008e09900086
:106078000002540081825c0002035d0083835d009e
:10608800f0342c00010020006011b8000020e1006d
:1060980001a8e10002b0e10003b8e100ecff36001e
:1060a800df26070010c0b3008d2a07000d3807004f
:1060b800100f98000040fe000d68ef002d38070013
:1060c800100f98001e0890000000e00009003a0038
:1060d80076004700c2002000b19c2e00e7040700ac
:1060e80076004700cd2007003628ef003828ef005b
:1060f8000500370090468000a14680005af9070045
:10610800b0418800c14188000040eb00742a0700b4
:10611800b728070030418000414180006011b80075
:106128006c0107000000e00004003a000042800013
:1061380011428000304188004141880065260700ef
:1061480075280700c08420005001be004000be0032
:10615800200f9800020037000040fe0010220700c0
:106168002e0890006101b8000000280001002000fe
:1061780002004000838048000002be004fabde00f2
:1061880086037800c08420005001be004000be0095
:106198000020e10001a8e10002b0e10003b8e1003d
:1061a800edff3e00b2418000c34180002003200083
:1061b80001002000800f5100818f59000e00360029
:1061c800b2418000c3418000f02d22002100200050
:1061d800800f5100818f590007003e00760047006c
:1061e80062012000719d2e00a4040700760047007c
:1061f8008a2007000e0037000040fe0076004700a6
:10620800f2002000d19e2e009c0407007600470073
:10621800822007008e200700eefe07001007980076
:1062280021079800320798004307980037ff370086
:106238008000200040468800ae2807004f05be00b9
:106248004f04be000080fa00000006000600fa00b5
:10625800000f780011079800220798001e007800a8
:1062680021072000810f500018003200210720006c
:10627800810f50000a003c00e20f50001500320068
:10628800e20f500003003c00e10f50000b00320009
:1062980015003700e30f50000a00320012003700e3
:1062a80041072000810f50000c00320041072000f8
:1062b800810f50000b0035000b003700aef30700cc
:1062c80009003700c133070007003700000000004d
:1062d8000500370000000000030037000000000040
:1062e800010037000000000010c0b3000080fa0071
:1062f800000006000040da000000fe001004b100b3
:10630800070035009001b100040034007000b100ae
:10631800030035009001b10001003c0010000500a9
:10632800000005006900e100040035006d00e1008f
:10633800030034000002b100010032000000050033
:1063480010000500800078001106b1000300350038
:106358009101b10001003c000050a10000000600be
:106368000a00fa00e20f500020003e0060fc8000a6
:10637800e10f500006003200802320004523200052
:1063880023232000042320000000e00004003a003a
:106398008022200045222000232220000422200001
:1063a800060028001403630003003a00060878007a
:1063b80000002800140a700013a8a30001003a0086
:1063c80013a0a00002007800050037001388a3007e
:1063d800feff32003102fb00840a78000000e90069
:1063e8000000e000f9ff3a00080037003300200001
:1063f800b3bf9f00c0bf9f00d1bf9f00e2bf9f00f7
:106408006a8057006a1607006fb997000200780083
:106418000080fa000000060003f0a200889fbe007a
:106428008a9fbe008c1f7800090107001001330005
:106438006450e1004f0032006420e1005200320055
:1064480003826c0007003b000905d0000306d0005a
:10645800820f54000c065d00020039000200320071
:1064680089017800030678008582550004003d0004
:106478000003fd008103fd008502ea008b854200d0
:10648800840f720002003b0060001000e0801800da
:106498006011b8000005eb007a28e1000a00390015
:1064a80006007800c75ddd00f707b2008780750039
:1064b8002d003700828171000a01780061056000b3
:1064c8008180d1000080d3008502e900f9ff3b00fc
:1064d800060440008784480002003b006004140062
:1064e800e0841c000988a300070032008a8171003b
:1064f80082817100610164008904d1000884d3009d
:106508008b05e800170037000978a30013003a004c
:106518000b00e000130034008b05e9000804440078
:1065280089844c000a4474000978a3000d003a00dd
:106538000b00e000070034008b05e9000804440064
:1065480089844c0001003a000b0020000978a30060
:10655800f7ff32000001eb00020037008281710072
:106568000a0178007f0007000cf0a70001f0a000e6
:10657800c80037006420e10002003a00838f6c00f5
:10658800c80033000801be000200be00c100370089
:10659800889fbe008a9fbe008c1f7800ac00070051
:1065a800b300330003866c006450e1002e00320013
:1065b8006420e100330032006150e1002f00320016
:1065c8006120e1003100320085855500eb07b000fd
:1065d80009002000080420000500370008044400d2
:1065e80089844c000a0031000603430087834b006e
:1065f8000001530081815b00f8ff33000203be00f5
:106608000800a0000804440089844c00f6ff390003
:10661800c639dd0083017300010032001300200039
:106628008904d1000884d3000998a300050032002a
:106638000800a7000300a0008904d1000884d30043
:106648008b05e8008904d1000884d3000001eb0021
:106658000281d2004300070001f0a1000cf0a7005e
:1066680001f0a0008b0037006420e1008d003200ab
:106678000801be000200be00f7ff37006120e100fc
:10668800880032006000b800f3ff370000002000e7
:1066980001f82700f0ff3700839f68000100e00041
:1066a80002003d0060001000e08018000300e000d8
:1066b80002003d0060011100e0811900b2000700ee
:1066c8004f00e00002003b0060001000e08018006e
:1066d8000000060014002000e6013700f4ff2f0038
:1066e800e40137000001be00440007000470a70061
:1066f80003f0a10003f8a30013003a006509b100f4
:1067080010003200090035006928e1000200350058
:1067180001002800000005000000400081804800ba
:106728008502e900fcff3a0000000600f88f4200ed
:10673800050035008100d1000080d3008502e80003
:10674800fcff3a00000006008000eb000000050096
:106758004f89de0082017800e10137006011b8003e
:10676800ef01370081002000618055000b003d00db
:106778000b00200061fe2f000100e1001d00340025
:1067880082817100610164008904d1000884d3000a
:106798000000e800faff3a00710020006100640080
:1067a8000300700002006000090032006104440028
:1067b800e0844c000988a500050032008b05e8003c
:1067c8006808e10002003a008904d1000884d30077
:1067d800f20f20000258e10005003d00c75ddd0012
:1067e800f907b200898075000800780000000600eb
:1067f8000bf827008b00780000000500c70ade00b0
:10680800f107b200f50fb20008003200e1cf4200f4
:10681800020032000170a00024000500810f700002
:10682800010032000408050044000500810f7000d3
:1068380002003a00140005008502e900000040004b
:1068480081c04800fcff3b000170a0002400050047
:106858000004be00e9ff07000003be000405be00f7
:106868000200be00e5ff0700844f75000000060027
:106878000200be006450e100050036006420e1001b
:10688800020036000968a30001003a000800be00b3
:106898000160a0004f0678004f05be004f04be00ff
:1068a80000000600f0ff2f00f1ff2700f9ff370076
:1068b800889fbe008a9fbe008c1f7800e4ff0700f7
:1068c800ebff330003866c006450e10024003200c3
:1068d8006420e100270032006150e100220032000c
:1068e8006120e100210032008b854200eb07b100f6
:1068f8000134b800003ab8000804420089844a000c
:10690800013ab8000030b8008880400009014a0008
:106918000400330000004000818048000201490063
:106928008b05e900c909dd00830170000100320010
:1069380013002000c814de004814dd004709de00fb
:106948001200b200c808de000884700085ff070046
:1069580001f0a1000cf0a70001f0a000cdff370066
:106968006120e100cfff32000801be000200be0036
:10697800f7ff37006150e100fcff3a00c9ff37001c
:106988000001eb00950137006022b80006022000e4
:106998000000d0008180d2000482d2008582d2001b
:1069a8000000a0000202520083825a000300310056
:1069b8000202420083824a000000a1000603e900a7
:1069c800f3ff3a0000000600889fbe008a9fbe00c1
:1069d80030044200b0844a0030054b0090854b00db
:1069e8006000b1000898be000a90be000440e100b3
:1069f80005c8e10006d0e10007d8e1000200310037
:106a0800680040001008e8004f05be004f04be00b3
:106a180000000600889fbe008a9fbe003004be00aa
:106a28002005be000418540005985c0006185d0097
:106a380007985d00110020000440e10005c8e1004e
:106a480006d0e10007d8e100010039008000eb0022
:106a5800108810004f05be004f04be00000006005d
:106a68001200fa00889fbe008a9fbe008c9fbe005d
:106a7800e0b79f00f1b79f0082bf9f0093bf9f00c0
:106a88000605be000404be000000eb00d0b79f005e
:106a9800c0b79f00b0b79f00a0b79f0090b79f00f6
:106aa8000006eb005fb19700cfb09700820141006c
:106ab8003fb097000200e00004003d0037000700e7
:106ac8007e805700c0ff070003003700330007002f
:106ad8007e805700cfff0700dfb697000d00e0006b
:106ae8000c0035006fb29700ffb297000fbb9700fc
:106af8009fbb970010002000010020006011b80023
:106b080000027200818272000203730083837300a3
:106b18001b0007000c06e80001042000810f560046
:106b2800e0ff3a000d00e00004003d000802be004e
:106b38000a03be007e805700a3ff07005fa89700e6
:106b48000000e00005003a001fb29700afb29700be
:106b58003fb39700cfb39700090007006fb09700c5
:106b6800ffb097000fb997009fb997004f06be0076
:106b78004f05be004f04be000080fa00000006006a
:106b88000100070000000600a4b79f00b5b79f00ea
:106b9800c6b79f00d7b79f00000006004f09de0068
:106ba80082817100b3b79f004f01de0081804000f1
:106bb80082807000a1b79f008fb097004f09de0058
:106bc800000040000200700090b79f007fa8970067
:106bd8004f01de00818040008280700081b79f00f5
:106be8000d0007004f3ade0000004000040070006e
:106bf800f0af9f00080007000402420085824a00a7
:106c080006034b0087834b00dfff07000802be0026
:106c18000a03be00000006002fb29700bfb297001b
:106c28004fb39700dfb3970000000600881f780075
:106c380018002000881f780089ff07008f87e90067
:106c48004f04780000000600801feb0084ff070057
:106c58008f87e90000000600889fbe008a9fbe005b
:106c6800e00f5000e08f5800e00f5900e08f590006
:106c78000c003d006044b8006055b80000005400a6
:106c880081805c0002015d0083815d0018002000a6
:106c98001500070008003d00180007000004eb007d
:106ca800050037000004eb000f00070002003d005c
:106cb8001200070018002000dcff07000800e000b1
:106cc800060032006022b8006033b80000005200ad
:106cd80081805a0002015b0083815b004f05be0082
:106ce8004f04be0000000600e00f5200e08f5a007b
:106cf800e00f5b00e08f5b00000006006044b80016
:106d08006055b8000402540085825c0006035d00eb
:106d180087835d0000000600889fbe008a9fbe0032
:106d28008c1f7800e00f5000e08f5800e00f5900ea
:106d3800e08f59000d003d006044b8006055b80070
:106d48000000540081805c0002015d0083815d00c9
:106d58001c0020000820e10009a8e1000ab0e100b9
:106d68000bb8e1000d003d00080037000006eb00fd
:106d7800e00f5200e08f5a00e00f5b00e08f5b00ed
:106d880006003d006044b8006055b8000402540095
:106d980085825c0006035d0087835d00aaff07000b
:106da8000c00e000060032006022b8006033b80032
:106db8000000520081805a0002015b0083815b0061
:106dc8004f0678004f05be004f04be0000000600c5
:106dd800889fbe008a9fbe008c1f78000006eb00cb
:106de800e00f5000e08f5800e00f5900e08f590085
:106df80007003d006044b8006055b800000054002a
:106e080081805c0002015d0083815d001c00200020
:106e1800e00f5200e08f5a00e00f5b00e08f5b004c
:106e280007003d006044b8006055b80004025400f3
:106e380085825c0006035d0087835d000c00a2006c
:106e4800cf0007000c00e000060032006022b80006
:106e58006033b8000000520081805a0002015b00d4
:106e680083815b004f0678004f05be004f04be00cb
:106e780000000600889fbe008a9fbe00841f78001d
:106e880073fe07004f00780011003300f0ff2f0059
:106e9800838f6c0006003b00040565000a00a7000c
:106ea8000800370009f0a60010002000080037008d
:106eb800820f5400838f5c0003003900100020000b
:106ec80001003e000000200009f0a7000000ea00d1
:106ed8004f05be004f04be000000e00000000600a1
:106ee800881f7800030478000300e00007003d00d5
:106ef80060001000e080180060011900e0811900ae
:106f080002003b0001f02d000300370004000700d9
:106f180008f0a70001f0a0004f0478000000060068
:106f2800889fbe008a9fbe00008270000402710024
:106f380004827100260032000004be000200be0078
:106f48006011b8006b092000950220000182cf0073
:106f58000a0039000541b1000082cf00070039005e
:106f68000541b1000982cf00040039000541b10094
:106f78000882cf00010039000541b10005425200e6
:106f8800120032000a003b00828171006101640036
:106f98008100d1000080d3008984d3000884d30005
:106fa8008b05e8000442e800f7ff3a0007003700c5
:106fb8000804440089844c0000004800818048008f
:106fc8008b05e9000442e900f9ff3a00e5fd0700f6
:106fd8004f05be004f04be0000000600889fbe009b
:106fe8008a9fbe008c9fbe00820578000004be0008
:106ff80002fe07000800be006420e1000700390017
:1070080002003a00f1ff2700f0ff2f000160a00006
:1070180012022000c2468800550037006120e100b6
:1070280003003a000b00a70001f8230050003700c6
:1070380001f0a1000200210093642400a5fd0700cf
:107048000800be0004003500b2fd2000930c2400a7
:107058008e0007000004be000005eb000b00a60030
:107068004f0dde0001f0a1000004be0032982f0091
:1070780023ea23000efe07000001eb0003f02300c3
:107088000b00a70003f82300e4fc07005e000700dc
:107098000000a7000a00a200adfd07000b00e000f9
:1070a800030032000200200003f02300dafc07008e
:1070b80001f0a2000006be00020020009304240094
:1070c800fbfd07000801be00d4fc0700809fbe003e
:1070d8000c00be0022a22a00d3a72300f4fd07005b
:1070e8004f01be00cdfc07000004be0001f0a10066
:1070f800020020000398230076fd07000800be0068
:10710800190035000001be00e9fd07000006be00b9
:10711800b2c52900e3622300e5fd070022222b0007
:10712800f3942b00bdfc07000c01be00e0fd070036
:10713800e273280083c02300b8fc07000c01be00de
:10714800dbfd070042aa2a00a3e22b00b3fc0700dc
:107158000c01be00d6fd07000801be00d4fd0700e3
:107168000801be00adfc07000a00a70001f0a2005c
:107178004f06be004f05be004f04be0000000600cb
:10718800889fbe008a9fbe008c9fbe000404b80082
:107198000506b8008904460060854e000606b8005a
:1071a8000a054600e0854e000706b8008b05460034
:1071b800040eb800890446000a854e00e0854d009b
:1071c800050eb8000a0546008b854e00060eb8006d
:1071d8008b0546000416b8000a0546008b854e004c
:1071e8000516b8008b054600041eb8008b0546003e
:1071f8000800be000a01be004f06be004f05be00d3
:107208004f04be00000006000001be007bfd070021
:107218000470a70003f0a1006509b1001600320050
:107228000d0035006828e10006003500f0ff2f004a
:10723800f1ff27000300e00013003b0001002800d5
:107248000000050000004000818048008502e90038
:10725800fcff3a0008003700f88f420002003c00ab
:107268008000eb00000005008100d1000080d30001
:107278008502e800fcff3a000300e00002003b0042
:1072880060001000e08018000000060004002000e4
:1072980000003700889fbe008a9fbe008c1f7800c0
:1072a8004f26dd006afd070071fd33006120e10013
:1072b800430032006250e10041003e003e003900c8
:1072c8006420e1003c003200058255000f003b00bd
:1072d8000402e80038003a00800f5300818f5b00f9
:1072e800350034000800be0003f0a10001f0a6003c
:1072f80003f0a0000cf0a70048fc070065fd37006c
:107308000603430087834b000c46460000055300e4
:1073180081855b00020033000a03be000c00a00058
:107328000402e900f6ff3b008505780006024300e9
:1073380087824b0004003a006000b80009f0a700fb
:1073480001f0a00053fd37000002520081825a006c
:107358000704e000040033000603430087834b0062
:107368008b05e900faff3700090578000604be001e
:107378000203be006011b800fafc0700e00f5200db
:10738800e08f5a000700350002003c000c08a300fb
:10739800040032000601be0003f0a0000cf0a700b4
:1073a8001efc07000a85680001f0a1000af0a7008a
:1073b80001f0a00037fd37000800be0035fd37009a
:1073c800100220000cf0a600c046880035fd3700ea
:1073d800889fbe008a1f78003044780080047800b7
:1073e80001c2b300814f5400fbff3200e94f540043
:1073f800f9ff3200d0c2b300804f540003003a00b6
:10740800394478001ac0b300050037000045eb0086
:10741800b0c2b300804f540001003a0039447800ec
:107428006000b8000a003700a20020000300200016
:107438009b14070002cdb300024144000281fb0007
:107448008001eb0002004000838048003944780046
:107458000881fb000203b100e90f5100f2ff36007a
:107468000a04e0000200320060001000e08018000a
:107478004f0578004f04be00000006008001780028
:1074880002003700b15978000201e9000200e0006b
:10749800fcff3a0000000600800178000200370077
:1074a800815978000201e9000200e000fcff3a007f
:1074b800000006008000eb0000fc880011fc88003a
:1074c80011c0b300e0f72100014878000000060071
:1074d800e0f721001004e00002003a00100020004c
:1074e800f4ff0700d2e62400631c240000fc80009f
:1074f80011fc80006a140700920323000300200097
:10750800000141008181490002fc880013fc8800c9
:107518000300780000f0a10000000600b0417800e8
:1075280031c1510002003a000304e000fbff3a00b9
:107538000200fb000000060000017800b14178005d
:10754800035978000304e000fcff3a00000006003d
:10755800800078003104e000feff3a000080ea0075
:1075680000804000000006000a003700b0417800a3
:107578000304e000030032000201e900b1cf51002a
:10758800040032008381fb001480fb00008051005e
:1075980000000600010278000200e000f3ff3a0054
:1075a8000000050080017800060037000201e900ac
:1075b800b142780085597800030278000504e0009c
:1075c80006003200030278000200e000f7ff3a00ec
:1075d80002003700005aeb000201e9000200e00057
:1075e800fcff3a0000000600889fbe000004be00b1
:1075f8000800e00003003a0058fc80000800e000a2
:10760800130032000800be008a110700000444007d
:107618001804e00004003a000000eb0050fc880069
:107628000004eb000a0037000800be006e110700d6
:107638000000440050fc88001004e0000200320002
:107648000058eb00010037000000eb0050fc8800f8
:10765800080078004f04be0000000600e6874700d7
:10766800889fbe008a9fbe008c9fbe008e1f780038
:1076780081067800820478008000eb00c14688000b
:107688000d00e00001003200800e7800000578004f
:10769800ba4078000a0478000100fb0081bf9f000f
:1076a80020fb07008fb897000000e000f8ff3a00c1
:1076b800d0c2b30080cf500003003a00b840780031
:1076c8001ec0b300050037000047eb00b0c2b3008e
:1076d80080cf500001003a00b840780000c3b300e2
:1076e80080cf500012003a00b84078000900e0004e
:1076f80002003200f08f540058003a0080c7b300ef
:1077080080cf50000300320080c5b30080cf500006
:1077180003003a00b8407800090120004f00370004
:107728000900e0004d003a00890020004b003700b6
:107738000046eb000900e00002003a000046eb00ba
:10774800a90020006055b8000101fb000200780084
:1077580081bf9f00f2b79f00e8fa07008fb8970033
:107768007fb197000000e0000500320002007800b9
:10777800f4fa070091ccb30001424000050037003d
:107788000203b100e90f51001e003e0004cdb30012
:1077980004c240000400fb00890f500019003d009e
:1077a8000402fb00cfa2de006149b9000a00be0056
:1077b800f4b79f0085bf9f00b91307007fb29700f9
:1077c8008fba970004024000858248000800e8004c
:1077d800840f5500858f5d000500360021022000ca
:1077e800c14688000004780010c0b30006003700c6
:1077f80098407800000478000405be001cc0b3005f
:10780800d1ff37000040eb000c04e0000300320019
:107818000d00e00001003200880ee900e14f500041
:10782800050032000e04e000050032006005150076
:10783800e0851d00020037000085eb008085eb0025
:107848000a00be004f0778004f06be004f05be0075
:107858004f04be006f00b100000006001cc0b3005a
:10786800b8ff3700889fbe008a9fbe008c9fbe006d
:107878008005780081047800820678000000eb001b
:10788800c04688000b0678000c0578000a067800c8
:107898003c4478000800fb00a2fa07000000e00062
:1078a800f9ff3a00d0c2b300804f54000300320001
:1078b80000c0e900804f540002003a000a05e800c1
:1078c80001003700004478000d0178008900780035
:1078d8000a00780061ff07000900e0000700320095
:1078e800990f550024003a008b0c780022003700cd
:1078f800e00f5000e08f58000f003a00b2c2b3000a
:10790800824f540004003a00e00f5000e08f580006
:1079180015003d0008003700d2c2b300824f540062
:1079280011003a000200200003002800820f5000d6
:10793800838f58000a00360020022000c0468800c5
:10794800f0ff2f00f1ff2700d2c2b300824f54008e
:1079580005003a000000200001002800020037005e
:1079680060001000e08018004f06be004f05be0002
:107978004f04be0000000600998f5500dfff3a0053
:10798800dbff37000c00fa00889fbe000004780077
:10799800f0ff2700d0bf9f008004eb0099bf9f0035
:1079a80088bf9f00a8bf9f00200c2000b0bf9f0089
:1079b80078815700cfb097007080570010000700fb
:1079c8000fb89700094878008fb8970008805000d2
:1079d8004f04be000080fa0000000600d0019000ad
:1079e800028151004240a9000300340010017800d0
:1079f800014978000208e80001007800000006004c
:107a08002f02b000889fbe008a9fbe008c9fbe00d8
:107a18008e1f780080067800d1af9f0092b79f0034
:107a28000007eb0044033700dfa897008100e80057
:107a3800d1af9f0051c2b300814f500003003a00fc
:107a48005fa897000006eb0011003700bd0090000a
:107a58000000fb000168a300070032000e01780057
:107a6800800078000d007800dcff07000000e000cf
:107a780005003a00300337008d0078001710070022
:107a8800e10f40002c0332000e07e8002a033700fc
:107a98008000780030417800d3c2b300834f510092
:107aa8000c00320007003c00edc15100834f51002b
:107ab8000a003200ebc14100834f51000d003a002b
:107ac8000800370003c3b300834f510009003a0090
:107ad800060037000c30a000edff37000c00a000b6
:107ae800ebff37000c10a000e9ff37000c20a000c6
:107af800e7ff37000c18a300010032000c00a100ba
:107b08000c38a300010032000c20a1000200fb0089
:107b18000003b100e90f50000c003e00010178009d
:107b28000000eb006a00b900b201fb000303b100da
:107b380000804100820078009201fb000303b1003d
:107b4800e98f5100f7ff3600080037000000eb000e
:107b5800a3c2b300834f510004003a001fb197003d
:107b68004200780092b79f008100e8008001eb0096
:107b7800a3b79f00e2c2b300914f11000c003a0076
:107b88000ce0a00064415100d14f11000300320005
:107b98000101780003027800090037001fb297003e
:107ba800c402780094b79f00a5b79f008100e80041
:107bb80001017800090037006a22b90004824100f7
:107bc80082007800b201fb000303b100e98f510085
:107bd800f9ff3600a4b79f00f5ff3700b2407800e0
:107be800d2af9f00c3c6b30083cf50002500320038
:107bf8000f003c0032c6b30082cf5000a000320014
:107c080004003c000104e000d00232006b41510046
:107c18000f00370042c6b30082cf50001700320071
:107c28006541410082cf5000b3003a00130037008d
:107c380032c7b30082cf50001f00320007003c005b
:107c48006441510082cf5000140032000241e80024
:107c580082cf5000a8003a001300370052c7b30083
:107c680082cf5000ab0032006341410082cf500008
:107c7800a1003a00a1d79f000d003700a1d79f00af
:107c8800a6003700010120000c48a30001003200c3
:107c9800010028000c867000d0ff3700a1d79f0094
:107ca8000c60a0009d003700a1d79f000c50a000d9
:107cb8000c70a00099003700a1d79f009fb39700d0
:107cc800c700780097b79f00b1b79f000100e00098
:107cd80002003a00e9b82100b9b79f003fb1970008
:107ce8008000eb00010037008100e800e2c1780065
:107cf8000304e000fcff3a00c1b79f002fb59700ce
:107d08000a00e00005003200cfb597008b0f550040
:107d1800020031008a007800c1b79f00cfb09700f9
:107d28000004eb00810f50000100360001045000f0
:107d3800680666002b003a00110037003d009000ed
:107d48000068a300070032000e017800010220003d
:107d58000d00780021ff07000000e00006003a004f
:107d6800060037008d007800000220005b0f070036
:107d7800e10f4000010032000e07e8000804e900a6
:107d88000800e000edff3a000084eb001500370022
:107d98003d0090000068a300090032000800780048
:107da800b000fb00000478000e0178000d00780098
:107db8000aff07000000e00008003a000f00370043
:107dc800880078003100fb00010478008d007800fd
:107dd800420f0700e10f4000080032000e07e800dc
:107de80006003700acb79f00080678003fb497003c
:107df800cfb497005fb59700efb5970009007800fa
:107e08008004e9000000e000e1ff3a00b8b79f00f5
:107e1800c9b79f00dab79f00ebb79f000c04780042
:107e28002fb697000c00e000430232001100370023
:107e38003d0090000068a300070032000e017800a2
:107e4800010220000d007800e4fe07000000e000b9
:107e580006003a00060037008d0078000002200076
:107e68001e0f0700e10f4000010032000e07e80076
:107e78000804e9000800e000edff3a002e02370090
:107e88009fb297004504780095b79f00cfc4de00e5
:107e9800614db9000802be000a03be004822de0098
:107ea800c828dd0004827000a4d79f000c48a300f6
:107eb800090032000404e00007003200e14f4200ec
:107ec80005003200b4d79f00c8d79f0022002000c9
:107ed800c2b79f0003003700b8d79f0013002000e7
:107ee800c3b79f0024fd2f000f0242000402e800e0
:107ef800b4b79f0081ff3700a1d79f0025fd2f0051
:107f080085824700b5b79f0016002000c6b79f00be
:107f18007aff3700a1d79f000c0cb3008c007800c3
:107f2800010cb20032003a000c00e00005003d00f0
:107f38009fb097004105be004104be0091b79f0065
:107f4800080037000c48a3000b0032001fb297004e
:107f58004401be0094b79f000204be004fcdde006e
:107f68008a057800b8b79f00c9b79f00dab79f00a5
:107f7800ebb79f00090037009fb49700c90078004d
:107f880099b79f00610ab900612bb900b4b79f0087
:107f9800c5b79f00d6b79f00e7b79f003fb49700cb
:107fa800cfb497005fb59700efb59700e00f540086
:107fb800e08f5c00e00f5d00e08f5d0022003d0077
:107fc8003c00b3006022b8006033b80008045200d7
:107fd80089845a000a055b008b855b00b8b79f004f
:107fe800c9b79f00dab79f00ebb79f0016003700ac
:107ff8000c00e00004003d001fb497004803be00d9
:108008004802be00050037000c48a30005003200f6
:108018001fb497004802be006033b80098b79f00ad
:10802800050037009fb49700c900780099b79f00f2
:10803800610ab8006033b800b4b79f00c5b79f00a5
:10804800d6b79f00e7b79f00afb297000500e000e2
:108058000d003a0016002000a6b79f003fb4970015
:10806800cfb497005fb59700efb59700e00f5400c5
:10807800e08f5c00e00f5d00e08f5d0002003200e1
:108088008004eb00a9b79f000c0578000a0cb20029
:108098008ab79f0001042000810f55003400320088
:1080a80003003c000a00e0000800320048003700e6
:1080b800010820008fb59700818f55001400320009
:1080c800010c2000818f550041003a00e2b92100df
:1080d80011c0b3003202be003203be003fb49700a5
:1080e800cfb497005fb59700efb597000440e10063
:1080f80005c8e10006d0e10007d8e10033003900e7
:108108008140e800f4cf5000f2ff3a002f0037001a
:1081180011c0b30004012000050020006033b8003e
:108128003fb49700cfb497005fb59700efb59700bd
:108138000440e10005c8e10006d0e10007d8e100ed
:1081480022003900490020000402d0008582d200b4
:108158000683d2008783d2008904e900faff3a0037
:108168008140e800f0cf5000edff3a0017003700db
:1081780011c0b30084002000050020006033b8005f
:108188003fb49700cfb497005fb59700efb597005d
:108198000440e10005c8e10006d0e10007d8e1008d
:1081a8000a003900390020000402d0008582d2007c
:1081b8000683d2008783d2008904e900faff3a00d7
:1081c8008140e800f5cf5000edff3a00a1d79f00ad
:1081d8002fd597008a00fb00afb597008b8f500012
:1081e80002003d00abd79f00040037002fb1970075
:1081f800810f510001003d00a1b79f000000e00081
:1082080003003200e3006600010032000000e900cc
:108218000ce8a30006003200afb19700830f5000ae
:108228000200340003005000010037000000eb009a
:108238002fd297008400fb008002eb00f5af9f006f
:10824800810f50000200340081005000f1af9f0000
:108258000c28a3003c003200610166000c18a30042
:108268000f0032003d0090000068a30006003200b5
:10827800b10220000200e000010032008180e80025
:108288000e0178000d003700b00220000200e00067
:10829800010032000080e8008d0078000e003700f1
:1082a8000200e000100032003d0090000068a300ca
:1082b800070032000e017800010220000d0078004e
:1082c800c6fd07000000e00006003a00060037007f
:1082d8008d00780000022000000e0700e10f40002a
:1082e800010032000e07e8007fab97000600e000af
:1082f80052003200060478003d0090000068a30098
:10830800070032000e017800010320000d007800fc
:10831800b2fd07000000e00006003a000600370042
:108328008d00780000032000ec0d0700e10f4000ed
:10833800010032000e07e8000804e900eeff3a00e9
:10834800f8af9f003d003700ffab97000700e00043
:10835800160032000c38a30014003a000704780015
:108368003d0090000068a300070032000e0178006d
:10837800010220000d00780098fd07000000e000d1
:1083880006003a00060037008d0078000002200041
:10839800d20d0700e10f4000010032000e07e8008f
:1083a8000804e900eeff3a00f8af9f00610166009b
:1083b8000c18a3000f0032003d0090000068a300d5
:1083c80006003200b10220000200e0000100320085
:1083d8008180e8000e0178000d003700b00220000f
:1083e8000200e000010032000080e8008d00780003
:1083f8000e0037000200e000100032003d0090003f
:108408000068a300070032000e0178000102200076
:108418000d00780071fd07000000e00006003a003a
:10842800060037008d00780000022000ab0d070021
:10843800e10f4000010032000e07e8002fb497005a
:108448000800e900c204dd00c9af9f006301b9005c
:1084580002057800baaf9f004300dd0061b9210032
:1084680081004000e1af9f0098003700afb597004a
:108478008b05e900abb79f00000420008fb0970080
:10848800808f50006800320003003c000100e000cb
:108498000800320073003700000820000fb1970071
:1084a800800f51004c003200000c2000800f51005a
:1084b8006c003a000c00e0001e003d00efa9970098
:1084c8003304be002305be000802be000a03be0036
:1084d8003fb09700cfb097005fb19700efb197001a
:1084e800d2f90700a0d79f000000fb00cf80de0074
:1084f8006109b9000802be000a03be0034fa070089
:108508003fb29700cfb297005fb39700efb39700e1
:108518000002520081825a0002035b0083835b00e1
:10852800b4b79f00c5b79f00d6b79f00e7b79f00b5
:10853800250037000c48a3001a0032003fb297000c
:10854800cfb297006fab97003604be002605be0079
:108558000801be000400be00f4b79f0085bf9f005d
:1085680009f90700a0d79f000000fb00cf80de00bc
:108578000801be004a1007007fb297008fba970023
:108588000002520081825a000404be006055b800ff
:10859800b8b79f00c9b79f00dab79f00ebb79f0035
:1085a80009003700efac9700190178003fb5970034
:1085b800110009000285d800a2002000110009005e
:1085c8000280d800a1d79f00afd597000b43b00019
:1085d800abd79f0023003700d0b721000c58a30069
:1085e80001003200c0b621003fb29700cfb2970019
:1085f8005fb39700efb39700cfa897008100e90019
:10860800050033008703d1000683d3008582d30099
:108618000482d300f9ff37006f02620060427a00db
:10862800a4d79f000f0037003fb09700cfb0970046
:108638005fb19700efb197003faa97000402e900e5
:10864800050033008301d1000281d3008180d3006b
:108658000080d300f9ff3700674060000043b00096
:10866800a0d79f00bd009000afd297000500fb0087
:108678000168a300070032000e017800800078002e
:108688000d007800d5fc07000000e00005003a0066
:10869800050037008d007800100d0700e10f40003d
:1086a800010032000e07e8004fab97006403530047
:1086b800c6af9f00bfab9700e3835300b7af9f00df
:1086c8006fac970068045400e8af9f00afb4970000
:1086d8000900e00065ff3a000c38a30016003200dc
:1086e8007fad97000a00e000130034000a04780008
:1086f8003d0090000068a300070032000e017800da
:10870800010220000d007800b4fc07000000e00022
:1087180006003a00060037008d00780000022000ad
:10872800ee0c0700e10f4000010032000e07e800e0
:108738000804e900eeff3a00dfad97001b4078001f
:10874800a0d79f000004e000b7fc3a000e007800b4
:108758004f0778004f06be004f05be004f04be000d
:108768002f02b100000006000c00fa00889fbe002e
:1087780000047800f0ff2700d0bf9f008004eb00c2
:1087880099bf9f0088bf9f00a8bf9f00200c2000b2
:10879800b0bf9f0078815700cfb097007080570016
:1087a800cf0007000fb89700094878008fb89700e6
:1087b800088050004f04be000080fa000000060048
:1087c8000800fa00889fbe008a9fbe000084fb0054
:1087d800d1c6b300814f5000340036004b0620004c
:1087e800110009000b84d800810578007200400050
:1087f8004300dd00c9972100008044006022b800d2
:108808000600200007fe23005001be004000be0005
:108818002c0f07000002be000203be0084bf9f00a9
:1088280095bf9f00a6bf9f00b7bf9f00aa0020006a
:10883800110009008a85d80080057800e98545007f
:10884800c35ddd008b8544003b02be002b03be00e8
:108858000fb897009fb897002fb99700bfb9970036
:10886800180f07000002be000203be0084bf9f006d
:1088780095bf9f00a6bf9f00b7bf9f0011000900ca
:108888000a84d800010478004344dd008884440049
:108898003902be002903be000fb897009fb89700a1
:1088a8002fb99700bfb997001d003700ea4f500055
